:020000040800F2
:10000000000002207D830008F5250008FB2500087C
:1000100001260008072600080D2600080000000041
:1000200000000000000000000000000051800008F7
:1000300013260008000000003182000869790008DA
:10004000CD830008CD830008CD830008CD83000850
:10005000CD830008CD830008CD830008CD83000840
:10006000CD830008CD830008CD830008CD83000830
:10007000CD830008CD830008CD830008CD83000820
:10008000CD830008CD830008CD8300082126000819
:1000900035260008492600085D260008CD830008A3
:1000A000CD830008CD830008CD830008CD830008F0
:1000B000CD830008CD830008CD830008CD830008E0
:1000C000CD830008CD830008CD830008CD830008D0
:1000D000CD830008CD830008CD8300087126000879
:1000E000CD830008CD830008CD830008CD830008B0
:1000F000CD830008CD830008CD830008CD830008A0
:10010000CD830008CD830008CD830008CD8300088F
:10011000CD830008CD83000885260008CD83000824
:10012000CD830008CD830008CD830008CD8300086F
:10013000CD830008CD830008CD83000899260008F0
:10014000AD260008C1260008D5260008CD8300088A
:10015000CD830008CD830008CD830008CD8300083F
:10016000CD830008CD830008CD830008CD8300082F
:10017000CD830008CD830008CD8300080000000077
:04018000CD83000823
:1001900010B5054C237833B9044B13B10448AFF3C1
:1001A00000800123237010BD7800002000000000B3
:1001B0006885000808B5034B1BB103490348AFF33A
:1001C000008008BD000000007C0000206885000859
:1001D00053B94AB9002908BF00281CBF4FF0FF31AE
:1001E0004FF0FF3000F076B9ADF1080C6DE904CEA8
:1001F00000F006F8DDF804E0DDE9022304B0704702
:100200002DE9F047089E0D4604468846002B4DD147
:100210008A42944668D9B2FA82F252B101FA02F3E4
:10022000C2F1200120FA01F10CFA02FC41EA0308B4
:1002300094404FEA1C41B8FBF1F71FFA8CFE01FB1A
:10024000178807FB0EF0230C43EA084398420AD9AB
:100250001CEB030307F1FF3580F01E81984240F24A
:100260001B81023F63441B1AB3FBF1F001FB103307
:1002700000FB0EFEA4B244EA0344A6450AD91CEBD7
:10028000040400F1FF3380F00981A64540F20681A5
:10029000644402380021A4EB0E0440EA07401EB17A
:1002A0000023D440C6E90043BDE8F0878B4208D95B
:1002B000002E00F0EE800021C6E900050846BDE8EA
:1002C000F087B3FA83F100294AD1AB4202D38242CC
:1002D00000F2FC80841A65EB030301209846002E8F
:1002E000E2D0C6E90048DFE702B9FFDEB2FA82F2E7
:1002F000002A40F09180A1EB0C0001214FEA1C473D
:100300001FFA8CFEB0FBF7F307FB1300250C45EA40
:1003100000450EFB03F0A84208D91CEB050503F1CC
:10032000FF3802D2A84200F2CE8043462D1AB5FB18
:10033000F7F007FB10550EFB00FEA4B244EA05449B
:10034000A64508D91CEB040400F1FF3502D2A645EE
:1003500000F2B6802846A4EB0E0440EA03409EE774
:10036000C1F120078B4022FA07FC4CEA030C25FA66
:1003700007FA4FEA1C49BAFBF9F820FA07F309FB20
:1003800018AA8D401FFA8CFE1D4300FA01F308FBEA
:100390000EF02C0C44EA0A44A04202FA01F20BD9F6
:1003A0001CEB040408F1FF3A80F08880A04240F280
:1003B0008580A8F102086444241AB4FBF9F009FB13
:1003C000104400FB0EFEADB245EA0444A64508D930
:1003D0001CEB040400F1FF356CD2A6456AD9023843
:1003E000644440EA0840A0FB0295A4EB0E04AC4232
:1003F000C846AE4656D353D0002E69D0B3EB0802A0
:1004000064EB0E0422FA01F304FA07F71F43CC4011
:10041000C6E90074002147E70CFA02FCC2F1200192
:1004200025FA01F34FEA1C4720FA01F195400D43EC
:10043000B3FBF7F107FB11331FFA8CFE280C40EADF
:10044000034001FB0EF3834204FA02F408D91CEBCB
:10045000000001F1FF382FD283422DD902396044C8
:10046000C01AB0FBF7F307FB1300ADB245EA004535
:1004700003FB0EF0A84208D91CEB050503F1FF3879
:1004800016D2A84214D9023B6544281A43EA014116
:1004900038E73146304607E72F46E4E61846F9E6E6
:1004A0004B45A9D2B9EB020865EB0C0E0138A3E766
:1004B0004346EAE7284694E74146D1E7D0467BE742
:1004C0006444023847E7023B65442FE7084606E7E5
:1004D0003146E9E6704700BF70B500260C4D0D4C63
:1004E000641BA410A64209D108F03EF800260A4D6C
:1004F0000A4C641BA410A64205D170BD55F8043BFC
:1005000098470136EEE755F8043B98470136F2E785
:10051000848700088487000884870008888700088B
:1005200003460244934200D1704703F8011BF9E7E8
:1005300080B400AF00BFBD4680BC704780B483B0BC
:1005400000AF03463960FB713B6818460C37BD4667
:1005500080BC704780B483B000AF78600B46FB70FE
:10056000FB78DB2B19D0DB2B1CDC022B10D0022BF1
:1005700018DC002B02D0012B05D013E07B680C4A5D
:100580001A6009230FE07B680A4A1A6009230AE00F
:100590007B68094A1A60002305E07B68074A1A60F5
:1005A000002300E0002318460C37BD4680BC70478E
:1005B00014860008208600082C8600083086000873
:1005C00080B483B000AF78600B467B8013467B70AD
:1005D00008E07B687A781A707B6801337B607B88DF
:1005E000013B7B807B88002BF3D100BF00BF0C3721
:1005F000BD4680BC704780B582B000AF78600B46C6
:100600007B807B88002219467868FFF7D9FF00BFFE
:100610000837BD4680BD80B485B000AFF860B960D2
:100620001346FB710CE0BB681A78FB681A70FB6814
:100630000133FB60BB680133BB60FB79013BFB719D
:10064000FB79002BEFD100BF00BF1437BD4680BC43
:100650007047000080B483B000AF0346FB710B46C7
:10066000BB7113467B71044A7B79137400BF0C374E
:10067000BD4680BC704700BF9400002080B500AF2D
:100680001F4B03F5805393F82E30DBB203F0700359
:10069000002B1FD01A4B03F5805393F82E30DBB29A
:1006A00003F00103002B06D0154B5B8943F01003C8
:1006B0009AB2134B5A81124B03F5805393F82E30A4
:1006C000DBB243F00103DAB20D4B03F5805383F83C
:1006D0002E2013E00A4B03F5805393F82E30DBB243
:1006E00043F01003DAB2064B03F5805383F82E2053
:1006F000034B1B7A0249184601F03AF900BF80BD4E
:100700009400002080B582B000AF78607B681B7ACF
:100710007A681146184601F02BF900BF0837BD462C
:1007200080BD000080B500AF2A4B03F5805393F8DD
:100730002E30DBB203F07003002B48D1254B03F5BC
:1007400080535B8D002B42D0224B03F5805393F8EE
:100750002E30DBB243F02003DAB21E4B03F5805398
:1007600083F82E201B4B03F580535A6A194B03F56F
:1007700080539B8D19460B46DB000B4413441846EF
:10078000FFF7C0FF134B03F580539B8D01339AB2E3
:10079000104B03F580539A850E4B03F580539A8DC9
:1007A0000C4B03F580531B8D9A4204D3094B03F580
:1007B000805300229A85074B03F580535B8D013BE4
:1007C0009AB2044B03F580535A85012300E00023BD
:1007D000184680BD9400002080B400AF064B03F59E
:1007E000805300225A85044B03F5805300229A85DA
:1007F00000BFBD4680BC70479400002080B483B029
:1008000000AF03463960FB710FE00C4BDB683A68C0
:1008100012781A70094BDB680133084AD3603B68D1
:1008200001333B60FB79013BFB71FB79002BECD181
:10083000012318460C37BD4680BC70479400002049
:1008400080B483B000AF03463960FB710FE00C4BFE
:10085000DB681A783B681A703B6801333B60084BD1
:10086000DB680133064AD360FB79013BFB71FB79FE
:10087000002BECD1012318460C37BD4680BC7047D5
:100880009400002080B500AF154B5B8903F0BF03D7
:100890009AB2134B5A81124B00225A74104B002209
:1008A0009A740F4B00229A820D4B03F580531A461F
:1008B000002393610A4B03F580531A460023D3614A
:1008C000074B03F580531A46002313624FF48051FF
:1008D0000448FFF790FEFFF77FFF00BF80BD00BF19
:1008E00094000020AC00002080B483B000AF3A4BED
:1008F0005B7C9AB2384B9B7C9BB25B009BB21344EF
:100900009BB29B009AB2344B9B8A194689000B44D8
:100910009BB21344FB80FB880933FB80FB88B3F553
:10092000805F01D3302351E02B4B5B7C06339B006F
:10093000294A1344033323F003031A46264B03F5D5
:1009400080539A61244B03F580539A69224B9B7C18
:10095000DB001344033323F003031A461E4B03F555
:100960008053DA611C4B03F58053DA691A4B9B8A7A
:100970009B001344184A02F580521362164B03F58C
:1009800080531B6A144A928A1344033323F00303EF
:100990001A46114B03F580535A62FB88C3F5805306
:1009A0001A460E4BA3FB02235B089AB20A4B03F5CF
:1009B00080531A85084B03F580531A8D064B9B7C98
:1009C0009BB29A4201D2302300E0002318460C3734
:1009D000BD4680BC704700BF94000020398EE338CC
:1009E00080B483B000AF00237B710023FB714EE025
:1009F000FB792C4A06339B0013445B78BB713BE0C8
:100A0000FB79284A06339B0013449B7803F00203CA
:100A1000002B25D07B79052B01D930233DE07A7955
:100A200020491346DB0013440B4403F58153123372
:100A3000FF221A707A791B4B03F580539969BB79B1
:100A4000DB0019441346DB00134403F581531033D4
:100A5000144A134402334B607B7901337B7108E005
:100A6000104B03F580539A69BB79DB0013440022D5
:100A70005A60BB790133BB71FB790A4A063312F81D
:100A80002330BA799A42BBD9FB790133FB71054B0C
:100A90005B7CFA799A42ABD3002318460C37BD46EB
:100AA00080BC70479400002080B582B000AF034640
:100AB000FB71054AFB795374FFF716FF034618468E
:100AC0000837BD4680BD00BF9400002080B582B0CD
:100AD00000AF03460A46FB711346BB71144B9B7C67
:100AE0001A46BB7913447B2B01DD30231BE0FB79D5
:100AF0000F4A917C0E4A06339B0013440A465A70F3
:100B00000B4B9A7CBB791344DAB2094B9A74084BAD
:100B10009A7CFB79013AD1B2054A063302F82310D8
:100B2000FFF7E2FE034618460837BD4680BD00BF0A
:100B30009400002080B584B000AF0346FB710B46E3
:100B4000BB7113467B711D4B9B8A1A467B79C3F59B
:100B50007F43FF339A4201D930232BE0FB79174AB8
:100B600006339B0013445B78FB73144B03F58053EF
:100B70009A69F97BBB790B44DB0013440F4A928AD4
:100B80001A800E4B9A8A7B799BB213449AB20B4B14
:100B90009A820A4B9A8A094B03F580539969F87B2C
:100BA000BB790344DB000B44013A92B25A80FFF751
:100BB0009BFE034618461037BD4680BD94000020BA
:100BC00080B483B000AF0346FB71FB790D4A063356
:100BD0009B0013449A78FB7942F04002D1B2094A53
:100BE00006339B0013440A469A70064B5B8943F018
:100BF00040039AB2034B5A8100BF0C37BD4680BCFC
:100C0000704700BF9400002080B582B000AF002381
:100C1000FB7120E0FB79154A06339B0013449B7857
:100C200003F00103002B13D0FB791846FFF7C8FF30
:100C3000FB790E4A06339B0013449A78FB7922F025
:100C40000102D1B2094A06339B0013440A469A7046
:100C5000FB790133FB71054B5B7CFA799A42D9D35E
:100C600000BF00BF0837BD4680BD00BF9400002014
:100C700080B584B000AF0346FB71FB79184A063398
:100C80009B0013449A78FB7902F03202D1B2144AE5
:100C900006339B0013440A469A700023FB730CE052
:100CA000FB7B0F4A06339B0013449B7803F0400301
:100CB000002B11D1FB7B0133FB73094B5B7CFA7B6F
:100CC0009A42EDD3064B5B8903F0BF039AB2044B03
:100CD0005A81FFF781FD00E000BF1037BD4680BD9F
:100CE0009400002080B582B000AF0023FB7120E0AB
:100CF000FB79154A06339B0013449B7803F00103EC
:100D0000002B13D0FB791846FFF7B2FFFB790E4A90
:100D100006339B0013449A78FB7922F00102D1B28A
:100D2000094A06339B0013440A469A70FB79013343
:100D3000FB71054B5B7CFA799A42D9D300BF00BFA7
:100D40000837BD4680BD00BF9400002080B582B04A
:100D500000AF0023FB7112E0FB79124A06339B00BF
:100D600013449A78FB7902F03202D1B20D4A06336D
:100D70009B0013440A469A70FB790133FB71094BBF
:100D80005B7CFA799A42E7D3064B5B8903F0BF0399
:100D90009AB2044B5A81FFF71FFD00BF0837BD46CA
:100DA00080BD00BF9400002080B588B000AF03462E
:100DB000FB710023FB76A84B5B8903F04003002BFB
:100DC00001D1002395E10023FB758BE1FB7DA24A55
:100DD00006339B0013449B7803F04003002B00F084
:100DE0007B81FB7D9C4A06339B001344DB78FA79B8
:100DF0009A4240F07381FB7D974A06339B0013446F
:100E00009B7803F00203002B6FD0FB7E43F00803B6
:100E1000FB76FB7D904A06339B0013445B78BB75E1
:100E20005AE08D4B03F580539A69BB7DDB00134478
:100E30001B883B83884B03F580531A6A3B8B134412
:100E40001B78002B00F03881834B03F580539A699F
:100E5000BB7DDB0013445B887B827F4B03F58053B3
:100E60009A69BB7DDB0013445B68FB61FB691B78FF
:100E7000FF2B04D1FB7E43F01003FB7629E0FB69D6
:100E8000FF221A701FE0744B03F580531A6A3B8BE4
:100E900013441B787B747B7C002B19D06E4B03F5BD
:100EA0008053DA693B8B9B0013441868FB6901335C
:100EB0007A7C1946FFF7AFFB7B7CFA691344FB6130
:100EC0003B8B01333B833A8B7B8A9A42DBD900E030
:100ED00000BFBB7D0133BB75FB7D5F4A063312F853
:100EE0002330BA7D9A429CD9F9E0FB7D5A4A0633F9
:100EF0009B0013445B78BB75E4E0FB7E43F0010389
:100F0000FB76554B03F580535A8D534B03F58053B5
:100F10001B8D9A4214D3FB7E43F00203FB76FB7DCC
:100F20004D4A06339B0013449A78FB7D42F0080239
:100F3000D1B2494A06339B0013440A469A70BEE078
:100F4000454B03F580539A8D434B03F580535B8DDE
:100F50001344BB82404B03F580531B8DBA8A9A42DF
:100F600006D33D4B03F580531B8DBA8AD31ABB823F
:100F7000394B03F58053596ABA8A1346DB00134490
:100F80000B44FB60FB68BA7D1A700123FB72FB7D8A
:100F9000314A06339B0013449B7803F00803002B6F
:100FA00016D0FB681B7863F07F03DAB2FB681A7017
:100FB000FB7D294A06339B0013449A78FB7D22F07F
:100FC0000802D1B2244A06339B0013440A469A70A1
:100FD000214B03F580539A69BB7DDB0013441B88CA
:100FE0003B831D4B03F580531A6A3B8B13441B78DC
:100FF000002B63D0184B03F580539A69BB7DDB004F
:1010000013445B887B82FB7AFA681344FB611EE021
:10101000114B03F580531A6A3B8B13441B787B7486
:101020007B7C002B1AD00C4B03F58053DA693B8B89
:101030009B0013441B687A7C1946F869FFF7EBFAAA
:101040007B7CFA691344FB613B8B01333B833A8B16
:101050007B8A9A42DCD902E09400002000BFFB6842
:10106000FA69D31ADAB2FB681A72244B03F580537B
:1010700093F82E30DBB203F07003002B0AD01F4B25
:1010800003F580535B8D01339AB21C4B03F58053FB
:101090005A8514E0194B03F5805393F82E30DBB2D8
:1010A00043F02003DAB2154B03F5805383F82E206A
:1010B000F868FFF727FB02E000BF00E000BFBB7D40
:1010C0000133BB75FB7D0D4A063312F82330BA7D20
:1010D0009A427FF612AF02E000BF00E000BFFB7D46
:1010E0000133FB75054B5B7CFA7D9A42FFF46EAED3
:1010F000FB7E18462037BD4680BD00BF940000200F
:1011000080B500AF054B5B8903F0DF039AB2034B58
:101110005A81FFF71BFE00BF80BD00BF9400002076
:1011200080B58CB000AF78607B68BB62BB6A1B780F
:1011300087F8273097F82730BF2B1FD8B64B9B7CFA
:1011400097F827209A4215D2B34B03F580539A693A
:1011500097F82730DB0013445B68FB60FB68002BCB
:1011600008D0FB68BA6A1068516818605960127A32
:101170001A7285E3222387F82F306BE3BB6A1B7852
:10118000FF2B41D1A44BFF221A70A34B01221A72EC
:10119000A14B5B8903F08003002B07D1FFF772FBA3
:1011A0009D4B03F58053002283F82E209A4B20227A
:1011B0005A81994B08221A72974B0122DA71964B89
:1011C00001229A71944B0822DA70934B08229A807C
:1011D000914B00225A70904B5B7843F00403DAB2D3
:1011E0008D4B5A708C4B5B7843F00803DAB28A4B14
:1011F0005A70894B00229A70874B9B7863F07F036B
:10120000DAB2854B9A702FE3834B5B8903F020039E
:10121000002B00F02C83804B03F5805393F82E3085
:10122000DBB203F01103002B07D07B4B5B8943F04B
:1012300010039AB2784B5A8122E3774BFF221A703F
:10124000754B01221A72BB6A1B78D33B2B2B00F221
:10125000EB8201A252F823F0FF150008D515000813
:10126000B5150008AF150008531500082918000827
:1012700027150008FD14000829180008291800087F
:10128000DF170008771700082F1600085F16000800
:1012900019170008A11600082918000829180008C5
:1012A000291800082918000829180008291800081A
:1012B000291800082918000829180008291800080A
:1012C000291800081D14000829180008BF13000879
:1012D000291800082918000829180008AD1400086A
:1012E0005B140008A7130008291800082918000833
:1012F000291800084F1300081D13000809130008DF
:101300008913000843130008434B02221A72424B10
:10131000FE221A70404B00225A709AE23E4B08227D
:101320001A723D4B1022DA713B4B00229A703A4BF5
:1013300000229A71384B00221A71374B00225A71E1
:1013400087E2354B01221A72FFF7DAFE81E2324B57
:1013500008221A72304B00225A702F4B00225A601A
:10136000BB6A5A7807F1080311461846FFF7F2F8EE
:101370000346294A5360BB6819460020FFF7DEF890
:101380000346254AD36064E2234B06221A72224B9D
:101390005B89DAB2204B5A701F4B00229A701E4BA9
:1013A00000229A8055E2BB6ADA78BB6A5B6819460C
:1013B0001046FFF7C3F80346174AD36049E2BB6AF9
:1013C0005B7887F8253097F82530062B03D9222340
:1013D00087F82F303EE2BB6A9A1C97F825301146F9
:1013E0001846FFF70BFA034687F82F3097F82F308F
:1013F000022B00F03E8297F82F30002B03D12323DD
:1014000087F82F3026E297F82F30032B40F0108218
:10141000212387F82F301DE294000020BB6A01339E
:1014200019460720FFF7EAF9034687F82F3097F8A7
:101430002F30022B00F0238297F82F30002B03D19E
:10144000232387F82F3005E297F82F30032B40F045
:10145000F181212387F82F30FCE1BB6A5B7887F8A4
:10146000263097F82630072B03D9222387F82F3010
:10147000F0E197F82630A1491846FFF7E1F9034655
:1014800087F82F3097F826300133DAB29C4B1A7266
:1014900097F82F30022B00F0EE8197F82F30002BB9
:1014A00040F0CA81242387F82F30D3E1BB6ADA7871
:1014B000BB6A5B6819461046FFF740F80346904A3E
:1014C000D360BB6A5B788D491846FFF7B9F90346CC
:1014D00087F82F30BB6A5B780133DAB2884B1A7217
:1014E00097F82F30022B00F0C88197F82F30002B8F
:1014F00040F0A481242387F82F30ABE1804B0822F1
:101500001A727F4B00229A717D4B5B7C9AB27C4BA6
:101510005A807B4B02229A80794B0022DA71784BF9
:1015200041225A7095E1764B08221A72744B0122BF
:101530005A70734B0122DA70714B07229A70704B0C
:1015400007221A716E4B00225A716D4B0022DA800D
:101550007FE1BB6A5B88FB75694B07221A72FB7DD2
:10156000684AD25C664B5A70654B01229A70FB7DCB
:10157000654AD25C624BDA70FB7D644AD25C604B98
:101580001A71FB7D624AD35C1B09DAB25C4B5A715B
:101590005B4B00229A71FB7D5E4A52F8233019465C
:1015A000FF20FEF7CBFF0346554AD36051E1FFF71A
:1015B00069F94EE1BB6A5B88BB75BB7D1846FFF7D6
:1015C00073FA034687F82F3097F82F30002B00F07E
:1015D00037813FE1BB6A5B887B75BB6A1B793B75D2
:1015E0003A7D7B7D11461846FFF770FA034687F86F
:1015F0002F3097F82F30002B00F024812AE1BB6AAE
:101600005B88FB74BB6A1B79BB74BB6A5B797B74B8
:101610007A7CB97CFB7C1846FFF78CFA034687F886
:101620002F3097F82F30002B00F00E8112E1BB6AAB
:101630005B887B76324B08221A727B7E304A0633F7
:101640009B0013449A782E4B5A702D4B01229A71AD
:101650002B4B00229A802A4B0022DA71F9E0BB6AF8
:101660005B88FB76BB6A9B88BB76FB7E244A06338D
:101670009B001344BA7EDA70FB7EBA6A5178204A26
:1016800006339B0013440A469A70FFF7A9F90346F4
:1016900087F82F3097F82F30002B00F0D780D9E053
:1016A000BB6A5B8887F82430BB6A1B7987F82330D4
:1016B000BB6A5B7987F8223097F82430104A0633EA
:1016C0009B0013445A7897F82330134487F821304D
:1016D0000B4B01221A720A4B03F580539A6997F853
:1016E0002130DB0013441A8897F822309BB2134450
:1016F0009AB2034B03F580531A86AAE095000020A6
:1017000094000020588600084C8600085086000887
:101710005486000844860008BB6ADA78BB6A5B68B6
:1017200019461046FEF70AFFF861574B01221A725C
:10173000554B03F580531B6A534A02F58052128EB3
:101740001344BA6A92781A704F4B03F58053DA69E2
:101750004D4B03F580531B8E9B001344FA691A60AE
:10176000494B03F580531B8E01339AB2464B03F568
:1017700080531A866DE0BB6A5B883B76BB6A5B78F8
:10178000012B03D0BB6A5B78022B23D13B7E3E4A00
:1017900006339B0013449A783B7E42F00102D1B29B
:1017A000394A06339B0013440A469A70BB6A5B7839
:1017B000012B03D13B7E1846FFF702FA324B02227F
:1017C0001A723B7E304A06339B0013445A782E4BE4
:1017D0005A703EE03B7E1846FFF74AFA39E0BB6A92
:1017E0005B78002B02D1FFF7B1FA31E0264B5B7C2E
:1017F000002B07D0244B9B7C002B03D0224B9B8AD1
:10180000002B03D12A2387F82F3023E0BB6A5B78B3
:10181000022B02D1FFF766FA1AE0BB6A5B78012B54
:1018200016D1FFF7F1F913E0202387F82F3011E0EC
:1018300000BF19E000BF17E000BF15E000BF13E0D4
:1018400000BF11E000BF0FE000BF0DE000BF0BE0E4
:1018500000BF09E00C4B02221A720B4BFE221A70D9
:10186000094A97F82F305370FEF708FF08E000BFD1
:1018700006E000BF04E000BF02E000BF00E000BFE0
:101880003037BD4680BD00BF9400002080B500AF5A
:101890001C4B03F5805393F82E30DBB223F070031A
:1018A000DAB2184B03F5805383F82E20154B03F55D
:1018B000805393F82E30DBB203F00103002B11D0DC
:1018C000104B03F5805393F82E30DBB223F0010365
:1018D000DAB20C4B03F5805383F82E20FEF7CEFED0
:1018E00001230DE0074B5B8903F04003002B06D07A
:1018F000FEF718FF0346002B01D0012300E0002370
:10190000184680BD9400002080B500AFFEF710FEA1
:1019100041F268010948FEF76EFE00220821082006
:10192000FEF798FE054B00225A81044B03F58053C5
:10193000002283F82E2000BF80BD00BF940000204D
:1019400080B582B000AF78607B685B6840F255522A
:10195000934208D17B681B78002B04D17B680C3341
:101960001846FFF7DDFB00BF0837BD4680BD00000D
:1019700080B588B000AF03463960FB7107F10C03F6
:1019800000221A605A609A60DA601A6100233B7381
:1019900040F277733B61FB797B73FA7907F10C03B3
:1019A0000C333968184606F012FD074B186807F12A
:1019B0000C010023002206F0A5F9FFF767FF00BF26
:1019C0002037BD4680BD00BF2811002080B500AF84
:1019D00002F042F800F030F800F0ECF800F090FD72
:1019E00000F042FC00F076FC00F06CF800F09EF88D
:1019F0000F4801F093FB0346002B05D10D4801F081
:101A00008DFB0346002B01D000F0CEF848F2130105
:101A1000074801F0EBFD48F21301064801F0E6FD2E
:101A200005F0BCFF00F074F905F0DAFFFEE700BF37
:101A3000301100205811002080B592B000AF07F19E
:101A40001803302200211846FEF76AFD3B1D0022D4
:101A50001A605A609A60DA601A610123BB6105233B
:101A6000FB6102233B634FF480037B630823BB636A
:101A7000F023FB6302233B6405237B6407F1180317
:101A8000184602F027F80346002B01D000F08CF82E
:101A90000F237B600223BB600023FB604FF4A05345
:101AA0003B614FF480537B613B1D0321184602F0DC
:101AB00065FA0346002B01D000F076F800BF4837E6
:101AC000BD4680BD80B58AB000AF00237B61002396
:101AD000BB610123FB6100233B6004237B60002387
:101AE000BB600423FB6000233B6101233B620E23A8
:101AF0007B623B4619460C4801F030FA01237B61BA
:101B000000233B6000237B600023BB600423FB6059
:101B100001233B613B461946034801F01FFA00BF11
:101B20002837BD4680BD00BF3011002080B58AB087
:101B300000AF0E237B610023BB610123FB61002307
:101B40003B6000237B600023BB600023FB6000231D
:101B50003B6101233B620E237B623B4619460848EA
:101B600001F0FCF90F237B6101233B613B461946E1
:101B7000034801F0F3F900BF2837BD4680BD00BF20
:101B80005811002080B582B000AF78607B681B6878
:101B9000044A934201D101F081FF00BF0837BD46DE
:101BA00080BD00BF0010004080B400AF72B600BF1F
:101BB000FEE7000080B58CB000AF07F11C030022E7
:101BC0001A605A609A60DA601A610023BB614C4B5C
:101BD0001B6B4B4A43F004031363494B1B6B03F02D
:101BE0000403BB61BB6900237B61454B1B6B444A0B
:101BF00043F080031363424B1B6B03F080037B6154
:101C00007B6900233B613E4B1B6B3D4A43F0020363
:101C100013633B4B1B6B03F002033B613B690023E7
:101C2000FB60374B1B6B364A43F008031363344B9E
:101C30001B6B03F00803FB60FB680023BB60304BA9
:101C40001B6B2F4A43F0400313632D4B1B6B03F0B8
:101C50004003BB60BB6800237B60294B1B6B284A99
:101C600043F001031363264B1B6B03F001037B60FE
:101C70007B68002244F28101224802F073FE0022B8
:101C80004021214802F06EFE4FF40053FB614FF4F7
:101C900088133B6200237B6207F11C0319461B4833
:101CA00002F0C2FC44F28103FB6101233B6200238A
:101CB0007B620023BB6207F11C031946114802F046
:101CC000B3FC4023FB6101233B6200237B620023C2
:101CD000BB6207F11C0319460B4802F0A5FC8023E8
:101CE000FB6100233B6200237B6207F11C03194662
:101CF000054802F099FC00BF3037BD4680BD00BFEB
:101D0000003802400004024000180240000802406F
:101D100080B500AF244A1421102005F07FFF034650
:101D2000224A1360224A1421102005F077FF03464F
:101D3000204A1360204A1421802005F06FFF0346DB
:101D40001E4A13601E4A1421802005F067FF0346D7
:101D50001C4A13601C4A1421102005F05FFF034643
:101D60001A4A13601A4A00211A4805F07CFE0346FD
:101D7000194A1360194A0021194805F074FE0346F8
:101D8000184A1360184A0021184805F06CFE0346F3
:101D9000174A1360174A0021174805F064FE0346EE
:101DA000164A136000BF80BDEC8600081C1100209D
:101DB0000487000820110020348700082811002023
:101DC0004C8700082C1100201C87000824110020DB
:101DD000808600083D1E0008101100205C86000867
:101DE000011E00080C110020A4860008791E0008BE
:101DF00014110020C8860008D11F00081811002007
:101E000080B58EB000AF78600A4B186807F12401E6
:101E10000023002205F0D6FF0346002B05D107F171
:101E200024031946044800F033F9012005F0AEFE02
:101E3000EAE700BF281100203011002080B58EB0E5
:101E400000AF78600A4B186807F1240100230022D4
:101E500005F0B8FF0346002B05D107F1240319460E
:101E6000044800F015F9012005F090FEEAE700BFF4
:101E70002C1100205811002080B592B000AF78607E
:101E800005F0E9FD024613469B0013445B001A4629
:101E9000494BA3FB02239B09FB6305F0DCFD0346D2
:101EA0004FF47A7202FB03F3434AA2FB03239B091C
:101EB000BB6305F0BBFD78647B6C3B6407F12003DA
:101EC00000221A605A609A60DA601A61012387F86A
:101ED00020303A4B7B62082387F82130012387F8B2
:101EE0002C30022387F82D30032387F82E3004236B
:101EF00087F82F30052387F83030062387F83130F4
:101F0000072387F83230082387F833302C4B1868C2
:101F100007F120010023002205F0F4FE294B186888
:101F200007F120010023002205F0ECFE05F07EFD04
:101F300078637A6B3B6CD31ABA6B9A4233D87B6B5B
:101F40003B6407F10C0300221A605A609A60DA6061
:101F50001A6101233B731C4B3B6108237B730123F4
:101F6000FB770223BB7703237B7704233B7705238F
:101F7000FB760623BB7607237B7608233B76104B44
:101F8000186807F10C010023002205F0BBFE0D4B81
:101F9000186807F10C010023002205F0B3FE802130
:101FA0000A4802F0F7FC7A6CFB6B13447B64786C94
:101FB00005F007FE82E700BFD34D621003FFFE1855
:101FC000281100202C11002004FFFE1800040240FC
:101FD00090B58DB000AF786005F03DFD0246134628
:101FE0009B0013445B001A46274BA3FB02239B096B
:101FF0003B6205F01BFDF8620A23FB77FFF784FCC8
:1020000005F014FDB862002387F8273009E007F1D6
:1020100008031846FFF794FC97F82730013387F838
:10202000273097F82720FB7F9A420AD2174B18686F
:1020300007F108010023002205F0C4FE0346002B2F
:10204000E5D00020FEF7B0FE05F0F0FC0246BB6ACA
:10205000D41A05F000FD0346642202FB03F30A4A8A
:10206000A2FB03239B099C4205D30120FEF79CFEA3
:1020700005F0DCFCB862FA6A3B6A1344FB62F86A5A
:1020800005F09FFDBFE700BFD34D62102411002073
:1020900080B588B000AF786039603B681B78002B52
:1020A00001D0042300E000233B613B681B78002B38
:1020B00002D13B685B6800E00023BB603B681B7893
:1020C000002B02D03B685B6800E00023FB603B68AC
:1020D0005B78BB6100237B6100233B7702E001203A
:1020E00005F054FD786801F02CF90346002BF6D07A
:1020F0003B6803F10C0207F108010023786801F046
:1021000051F8034618462037BD4680BD80B592B0D1
:1021100000AFF8600B467A60FB72F97A07F124038E
:1021200007F12C02F86801F040F90346002B23D197
:102130007B6B042B0CBF01230023DBB23B743B7C85
:10214000002B01D03B6B00E0FB6A7B61FB6BDBB2D9
:102150007B7407F11C0307F1240292E8030083E873
:10216000030001F0ADFC0346BB6107F11001002341
:102170000022786805F0C6FD00BF4837BD4680BD27
:1021800080B582B000AF78607B680D4A934207D17A
:102190000C4B1B681A4600217868FFF7B7FF0AE06E
:1021A0007B68094A934206D1084B1B681A460021F6
:1021B0007868FFF7ABFF00BF0837BD4680BD00BFA2
:1021C000301100201C110020581100202011002087
:1021D00080B582B000AF78607B680D4A934207D12A
:1021E0000C4B1B681A4601217868FFF78FFF0AE045
:1021F0007B68094A934206D1084B1B681A460121A5
:102200007868FFF783FF00BF0837BD4680BD00BF79
:10221000301100202411002058110020201100202E
:1022200080B483B000AF78607B680B4A934204D1DE
:102230000A4B5B680133094A53607B68084A934242
:1022400004D1084B5B680133064A536000BF0C376A
:10225000BD4680BC704700BF30110020FC1000203C
:10226000581100200411002080B500AF174B184A08
:102270001A60164B06225A60144B00229A60134BC8
:102280000022DA60114B4FF480221A610F4B4FF499
:1022900040125A610D4B00221A760C4B00225A76DE
:1022A0000A4B00229A76094B0122DA76074B00226C
:1022B0001A77064B01225A77044800F053FD034673
:1022C000002B01D0FFF770FC00BF80BD3011002053
:1022D0000064004080B500AF174B184A1A60164BD7
:1022E00006225A60144B00229A60134B0022DA60D7
:1022F000114B4FF440321A610F4B4FF480025A6178
:102300000D4B00221A760C4B00225A760A4B002203
:102310009A76094B0122DA76074B00221A77064B90
:1023200001225A77044800F01DFD0346002B01D01E
:10233000FFF73AFC00BF80BD581100200068004044
:1023400080B58CB000AF786007F11C0300221A60E2
:102350005A609A60DA601A617B681B68634A93422C
:1023600056D1634B1B680133614A1360604B1B6895
:10237000012B0DD10023BB615E4B1B6C5D4A43F00A
:10238000007313645B4B1B6C03F00073BB61BB6990
:1023900000237B61574B1B6B564A43F001031363C9
:1023A000544B1B6B03F001037B617B694FF440735B
:1023B000FB6102233B6200237B620323BB62092390
:1023C000FB6207F11C0319464B4802F02DF900226D
:1023D0000521132002F0FDF8132002F016F9002267
:1023E0000521142002F0F5F8142002F00EF9002265
:1023F0000521152002F0EDF8152002F006F9002263
:102400000521162002F0E5F8162002F0FEF868E03B
:102410007B681B68394A934263D100233B61354B8B
:102420001B6C344A43F080631364324B1B6C03F023
:1024300080633B613B692E4B1B6801332C4A136060
:102440002B4B1B68012B0DD10023FB60294B1B6C10
:10245000284A43F000731364264B1B6C03F000738F
:10246000FB60FB680023BB60224B1B6B214A43F0DF
:10247000020313631F4B1B6B03F00203BB60BB68BB
:102480004FF44053FB6102233B6200237B62032332
:10249000BB620923FB6207F11C031946164802F0D0
:1024A000C3F8002205213F2002F093F83F2002F0FC
:1024B000ACF800220521402002F08BF8402002F009
:1024C000A4F800220521412002F083F8412002F007
:1024D0009CF800220521422002F07BF8422002F005
:1024E00094F800BF3037BD4680BD00BF0064004097
:1024F00080110020003802400004024000680040C3
:1025000080B500AF114B124A1A60104B4FF4E13204
:102510005A600E4B00229A600C4B0022DA600B4B83
:1025200000221A61094B0C225A61084B00229A6161
:10253000064B0022DA61054802F0D6FA0346002B6A
:1025400001D0FFF731FB00BF80BD00BF8411002028
:102550000048004080B58AB000AF786007F11403EE
:1025600000221A605A609A60DA601A617B681B6800
:102570001D4A934234D100233B611C4B1B6C1B4A08
:1025800043F480231364194B1B6C03F480233B61D9
:102590003B690023FB60154B1B6B144A43F0080397
:1025A0001363124B1B6B03F00803FB60FB684FF4D3
:1025B00040737B610223BB610023FB6103233B6209
:1025C00007237B6207F114031946094802F02CF82F
:1025D00000220521272001F0FCFF272002F015F83A
:1025E00000BF2837BD4680BD00480040003802408B
:1025F000000C024080B400AFFEE780B400AFFEE7FD
:1026000080B400AFFEE780B400AFFEE780B400AF57
:10261000FEE780B400AF00BFBD4680BC704700003D
:1026200080B500AF024801F006F800BF80BD00BFD2
:102630003011002080B500AF024800F0FCFF00BF61
:1026400080BD00BF3011002080B500AF024800F00F
:10265000F2FF00BF80BD00BF3011002080B500AF89
:10266000024800F0E8FF00BF80BD00BF301100202D
:1026700080B500AF024802F087FA00BF80BD00BFFE
:102680008411002080B500AF024800F09BF900BF24
:1026900080BD00BFCC11002080B500AF024800F023
:1026A000CAFF00BF80BD00BF5811002080B500AF39
:1026B000024800F0C0FF00BF80BD00BF58110020DD
:1026C00080B500AF024800F0B6FF00BF80BD00BF7C
:1026D0005811002080B500AF024800F0ACFF00BFE9
:1026E00080BD00BF5811002080B582B000AF00232C
:1026F0007B60124B5B6C114A43F4804353640F4B75
:102700005B6C03F480437B607B6800233B600B4B76
:102710001B6C0A4A43F080531364084B1B6C03F094
:1027200080533B603B6800220F216FF0010001F0F5
:1027300050FF00BF0837BD4680BD00BF00380240D3
:1027400080B58EB000AF78600023FB620023BB62CF
:102750000023FB60334B1B6C324A43F010031364BD
:10276000304B1B6C03F01003FB60FB6807F1100299
:1027700007F114031146184601F046FE3B6AFB625E
:10278000FB6A002B03D101F0FBFD786304E001F04C
:10279000F7FD03465B007B637B6B234AA2FB0323AD
:1027A0009B0C013BBB62214B214A1A601F4B40F23C
:1027B000E732DA601D4ABB6A53601C4B00221A6183
:1027C0001A4B00229A60194B00229A61174800F0B8
:1027D00033F8034687F8333097F83330002B1BD19A
:1027E000124800F081F8034687F8333097F8333009
:1027F000002B11D1362001F008FF7B680F2B08D881
:1028000000227968362001F0E4FE0A4A7B681360F2
:1028100002E0012387F8333097F833301846383711
:10282000BD4680BD0038024083DE1B43CC11002032
:10283000001000406400002080B582B000AF7860D6
:102840007B68002B01D1012341E07B6893F83D3088
:10285000DBB2002B06D17B68002283F83C2078682D
:1028600000F039F87B68022283F83D207B681A6803
:102870007B6804331946104600F0B8F97B680122E2
:1028800083F846207B68012283F83E207B68012282
:1028900083F83F207B68012283F840207B68012277
:1028A00083F841207B68012283F842207B68012263
:1028B00083F843207B68012283F844207B6801224F
:1028C00083F845207B68012283F83D2000231846C9
:1028D0000837BD4680BD80B483B000AF786000BFCC
:1028E0000C37BD4680BC704780B485B000AF7860BF
:1028F0007B6893F83D30DBB2012B01D001234EE021
:102900007B68022283F83D207B681B68DA687B685D
:102910001B6842F00102DA607B681B68224A93421E
:1029200022D07B681B68B3F1804F1DD07B681B6889
:102930001E4A934218D07B681B681D4A934213D0ED
:102940007B681B681B4A93420ED07B681B681A4A3F
:10295000934209D07B681B68184A934204D07B6875
:102960001B68174A934211D17B681B689B6803F070
:102970000703FB60FB68062B10D07B681B681A6896
:102980007B681B6842F001021A6007E07B681B68E5
:102990001A687B681B6842F001021A60002318461F
:1029A0001437BD4680BC7047000001400004004061
:1029B00000080040000C00400004014000400140BD
:1029C0000018004080B584B000AF78607B681B6859
:1029D000DB68FB607B681B681B69BB60BB6803F03E
:1029E0000203002B20D0FB6803F00203002B1BD056
:1029F0007B681B686FF002021A617B6801221A77FC
:102A00007B681B689B6903F00303002B03D0786885
:102A100000F0D1F805E0786800F0C4F8786800F0BC
:102A2000D3F87B6800221A77BB6803F00403002BFD
:102A300020D0FB6803F00403002B1BD07B681B68CD
:102A40006FF004021A617B6802221A777B681B68A8
:102A50009B6903F44073002B03D0786800F0ABF857
:102A600005E0786800F09EF8786800F0ADF87B68C3
:102A700000221A77BB6803F00803002B20D0FB6804
:102A800003F00803002B1BD07B681B686FF0080263
:102A90001A617B6804221A777B681B68DB6903F084
:102AA0000303002B03D0786800F085F805E0786810
:102AB00000F078F8786800F087F87B6800221A77D1
:102AC000BB6803F01003002B20D0FB6803F0100359
:102AD000002B1BD07B681B686FF010021A617B68AB
:102AE00008221A777B681B68DB6903F44073002BAC
:102AF00003D0786800F05FF805E0786800F052F8DD
:102B0000786800F061F87B6800221A77BB6803F0F0
:102B10000103002B0CD0FB6803F00103002B07D04E
:102B20007B681B686FF001021A617868FFF72AF86A
:102B3000BB6803F08003002B0CD0FB6803F080031C
:102B4000002B07D07B681B686FF080021A617868E1
:102B500000F0FFF8BB6803F04003002B0CD0FB68CB
:102B600003F04003002B07D07B681B686FF0400226
:102B70001A61786800F031F8BB6803F02003002B7D
:102B80000CD0FB6803F02003002B07D07B681B6888
:102B90006FF020021A61786800F0D2F800BF103799
:102BA000BD4680BD80B483B000AF786000BF0C37F5
:102BB000BD4680BC704780B483B000AF786000BF72
:102BC0000C37BD4680BC704780B483B000AF7860DE
:102BD00000BF0C37BD4680BC704780B483B000AFE7
:102BE000786000BF0C37BD4680BC704780B485B0AC
:102BF00000AF786039607B681B68FB607B68454A82
:102C0000934213D07B68B3F1804F0FD07B68424A68
:102C100093420BD07B68414A934207D07B68404A7D
:102C2000934203D07B683F4A934208D1FB6823F06C
:102C30007003FB603B685B68FA681343FB607B686A
:102C4000344A93422BD07B68B3F1804F27D07B6806
:102C5000314A934223D07B68304A93421FD07B682D
:102C60002F4A93421BD07B682E4A934217D07B6831
:102C70002D4A934213D07B682C4A93420FD07B6835
:102C80002B4A93420BD07B682A4A934207D07B6839
:102C9000294A934203D07B68284A934208D1FB68B3
:102CA00023F44073FB603B68DB68FA681343FB6006
:102CB000FB6823F080023B685B691343FB607B6821
:102CC000FA681A603B689A687B68DA623B681A683F
:102CD0007B689A627B680F4A934203D07B68114AF3
:102CE000934203D13B681A697B681A637B680122AF
:102CF0005A617B681B6903F00103012B05D17B68D6
:102D00001B6923F001027B681A6100BF1437BD46BE
:102D100080BC7047000001400004004000080040F3
:102D2000000C00400004014000400140004401400C
:102D30000048014000180040001C004000200040F6
:102D400080B483B000AF786000BF0C37BD4680BC54
:102D5000704780B483B000AF786000BF0C37BD46C9
:102D600080BC704780B584B000AF78607B68002B72
:102D700001D10123EDE07B6893F82030DBB2002B1A
:102D800002D17868FFF7DCFA7B681B681A687B68F9
:102D90001B6842F001021A6000F092FEF86012E037
:102DA00000F08EFE0246FB68D31A0A2B0BD97B6813
:102DB0005B6A43F400327B685A627B68052283F8C1
:102DC00020200123C5E07B681B685B6803F00103DA
:102DD000002BE5D07B681B681A687B681B6822F0B3
:102DE00002021A6000F06CFEF86012E000F068FE6B
:102DF0000246FB68D31A0A2B0BD97B685B6A43F443
:102E000000327B685A627B68052283F82020012308
:102E10009FE07B681B685B6803F00203002BE5D131
:102E20007B681B7E012B08D17B681B681A687B6856
:102E30001B6842F080021A6007E07B681B681A6812
:102E40007B681B6822F080021A607B685B7E012B26
:102E500008D17B681B681A687B681B6842F04002D7
:102E60001A6007E07B681B681A687B681B6822F0A1
:102E700040021A607B689B7E012B08D17B681B682F
:102E80001A687B681B6842F020021A6007E07B68C2
:102E90001B681A687B681B6822F020021A607B6836
:102EA000DB7E012B08D17B681B681A687B681B6876
:102EB00022F010021A6007E07B681B681A687B68C2
:102EC0001B6842F010021A607B681B7F012B08D13F
:102ED0007B681B681A687B681B6842F008021A60EE
:102EE00007E07B681B681A687B681B6822F0080291
:102EF0001A607B685B7F012B08D17B681B681A68AE
:102F00007B681B6842F004021A6007E07B681B685C
:102F10001A687B681B6822F004021A607B689A6852
:102F20007B68DB681A437B681B691A437B685B69B3
:102F300042EA03017B685B685A1E7B681B680A4390
:102F4000DA617B6800225A627B68012283F82020C4
:102F5000002318461037BD4680BD000080B487B0FE
:102F600000AF786039607B681B687B617B6893F891
:102F70002030FB74FB7C012B03D0FB7C022B40F048
:102F8000BE80654B7B617B69D3F8003243F0010260
:102F90007B69C3F800227B69D3F8003223F47C52AA
:102FA0007B69C3F800227B69D3F800223B685B6A27
:102FB0001B021A437B69C3F800223B685B6903F07C
:102FC0001F03012202FA03F3FB607B69D3F81C2282
:102FD000FB68DB431A407B69C3F81C223B68DB6952
:102FE000002B23D17B69D3F80C22FB68DB431A400A
:102FF0007B69C3F80C223B68DB6819043B685B689B
:103000009BB23A68526919437B69483243F83210DF
:103010003B689B6819043B681B689AB23B685B6914
:103020000A4379694833DB000B445A603B68DB692B
:10303000012B22D17B69D3F80C22FB681A437B69F0
:10304000C3F80C223B681B6819043B685B689BB2A1
:103050003A68526919437B69483243F832103B6839
:103060009B6819043B68DB689AB23B685B690A435A
:1030700079694833DB000B445A603B689B69002B3D
:1030800009D17B69D3F80422FB68DB431A407B69D2
:10309000C3F8042207E07B69D3F80422FB681A43D3
:1030A0007B69C3F804223B681B69002B09D17B694B
:1030B000D3F81422FB68DB431A407B69C3F814225F
:1030C00007E07B69D3F81422FB681A437B69C3F8D5
:1030D00014223B681B6A012B07D17B69D3F81C22A1
:1030E000FB681A437B69C3F81C227B69D3F8003262
:1030F00023F001027B69C3F80022002306E07B680D
:103100005B6A43F480227B685A62012318461C37AD
:10311000BD4680BC704700BF0064004080B584B0ED
:1031200000AF78607B6893F82030DBB2012B2ED1A2
:103130007B68022283F820207B681B681A687B6802
:103140001B6822F001021A6000F0BAFCF86012E07D
:1031500000F0B6FC0246FB68D31A0A2B0BD97B6839
:103160005B6A43F400327B685A627B68052283F80D
:103170002020012312E07B681B685B6803F00103D9
:10318000002BE5D17B6800225A62002306E07B68B1
:103190005B6A43F400227B685A62012318461037A9
:1031A000BD4680BD80B489B000AFF860B9607A6078
:1031B0003B60FB6893F82030FB77FB681B689B68DB
:1031C000BB61FB7F012B03D0FB7F022B40F0AD8066
:1031D000BB6903F08063002B0AD1BB6903F0006375
:1031E000002B05D1BB6903F08053002B00F09580C4
:1031F000BB691B0E03F003037B6101227B699A40CC
:103200003B681A60BB689B68002B0DD1BB681B68CC
:103210005A05BB68DB68F96809681A437B6918338B
:103220001B010B441A600FE0BB685B68DA00BB68E7
:103230009B681A43BB68DB68F96809681A437B69B5
:1032400018331B010B441A60FB681968BB681A69C4
:103250007B6918331B010B4404331A60BB681B7D68
:10326000012B11D1FB681A687B6918331B011344C9
:1032700004331B68FA68116843F480727B69183361
:103280001B010B4404331A607B6807331B781A0652
:103290007B6806331B781B041A437B6805331B7855
:1032A0001B0213437A68043212781046FA681168D8
:1032B00043EA00027B691B010B4403F5C6731A60E5
:1032C0007B6803331B781A067B6802331B781B0468
:1032D0001A437B6801331B781B0213437A68127808
:1032E0001046FA68116843EA00027B691B010B442F
:1032F00003F5C4731A60FB681A687B6918331B01F5
:1033000013441B68FA68116843F001027B691833A3
:103310001B010B441A6000230EE0FB685B6A43F458
:103320000012FB685A62012306E0FB685B6A43F403
:103330008022FB685A62012318462437BD4680BCB0
:10334000704780B485B000AF78600023FB607B6875
:1033500093F82030FB72FB7A012B02D0FB7A022B10
:103360001DD17B681B689B6803F08063002B02D033
:10337000FB680133FB607B681B689B6803F000639C
:10338000002B02D0FB680133FB607B681B689B68E5
:1033900003F08053002B02D0FB680133FB60FB6815
:1033A00018461437BD4680BC704780B487B000AF64
:1033B000F860B9607A603B60FB6893F82030FB7579
:1033C000FB7D012B03D0FB7D022B40F00381BB680A
:1033D000002B0ED1FB681B68DB6803F00303002B96
:1033E00016D1FB685B6A43F40012FB685A62012342
:1033F000F7E0FB681B681B6903F00303002B07D190
:10340000FB685B6A43F40012FB685A620123E8E040
:10341000FB681A68BB681B331B0113441B6803F06D
:1034200004027B689A607B689B68002B0CD1FB6868
:103430001A68BB681B331B0113441B685B0DC3F385
:103440000A027B681A600BE0FB681A68BB681B33D2
:103450001B0113441B68DB0823F060427B685A6041
:10346000FB681A68BB681B331B0113441B6803F01D
:1034700002027B68DA60FB681A68BB681B331B01B9
:10348000134404331B6803F00803002B03D07B684C
:1034900008221A610BE0FB681A68BB681B331B012A
:1034A000134404331B6803F00F027B681A61FB6846
:1034B0001A68BB681B331B01134404331B681B0AC7
:1034C000DAB27B689A61FB681A68BB681B331B0120
:1034D000134404331B681B0C9AB27B685A61FB6867
:1034E0001A68BB681B01134403F5DC731B68DAB26E
:1034F0003B681A70FB681A68BB681B01134403F52C
:10350000DC731B681A0A3B680133D2B21A70FB687D
:103510001A68BB681B01134403F5DC731B681A0CA3
:103520003B680233D2B21A70FB681A68BB681B0191
:10353000134403F5DC731B681A0E3B680333D2B2E5
:103540001A70FB681A68BB681B01134403F5DE732D
:103550001A683B680433D2B21A70FB681A68BB68F9
:103560001B01134403F5DE731B681A0A3B6805331D
:10357000D2B21A70FB681A68BB681B01134403F5CA
:10358000DE731B681A0C3B680633D2B21A70FB68F4
:103590001A68BB681B01134403F5DE731B681A0E1F
:1035A0003B680733D2B21A70BB68002B08D1FB68A6
:1035B0001B68DA68FB681B6842F02002DA6007E0EB
:1035C000FB681B681A69FB681B6842F020021A61DD
:1035D000002306E0FB685B6A43F48022FB685A62C2
:1035E000012318461C37BD4680BC704780B485B0A7
:1035F00000AF786039607B6893F82030FB73FB7B09
:10360000012B02D0FB7B022B09D17B681B68596917
:103610007B681B683A680A435A61002306E07B68AE
:103620005B6A43F480227B685A6201231846143790
:10363000BD4680BC704780B58AB000AF786000237B
:103640007B627B681B685B693B627B681B685B68AD
:10365000FB617B681B689B68BB617B681B68DB68E0
:103660007B617B681B681B693B617B681B689B698E
:10367000FB603B6A03F00103002B7CD0BB6903F0C5
:103680000103002B23D07B681B6801229A60BB6971
:1036900003F00203002B03D0786800F083F916E0F2
:1036A000BB6903F00403002B04D07B6A43F400637E
:1036B0007B620CE0BB6903F00803002B04D07B6A3B
:1036C00043F480537B6202E0786800F086F9BB69BE
:1036D00003F48073002B24D07B681B684FF4807246
:1036E0009A60BB6903F40073002B03D0786800F084
:1036F00062F916E0BB6903F48063002B04D07B6A97
:1037000043F400537B620CE0BB6903F40063002BBD
:1037100004D07B6A43F480437B6202E0786800F067
:1037200065F9BB6903F48033002B24D07B681B68E8
:103730004FF480329A60BB6903F40033002B03D04E
:10374000786800F041F916E0BB6903F48023002B90
:1037500004D07B6A43F400437B620CE0BB6903F452
:103760000023002B04D07B6A43F480337B6202E0A9
:10377000786800F044F93B6A03F00803002B0CD092
:103780007B6903F01003002B07D07B6A43F40073BE
:103790007B627B681B681022DA603B6A03F00403DB
:1037A000002B0BD07B6903F00803002B06D07B684D
:1037B0001B680822DA60786800F02AF93B6A03F097
:1037C0000203002B09D07B681B68DB6803F003034E
:1037D000002B02D07868FEF7D3FC3B6A03F040036D
:1037E000002B0CD03B6903F01003002B07D07B6A41
:1037F00043F480637B627B681B6810221A613B6A1A
:1038000003F02003002B0BD03B6903F00803002BCF
:1038100006D07B681B6808221A61786800F001F9FD
:103820003B6A03F01003002B09D07B681B681B69FF
:1038300003F00303002B02D07868FEF7C9FC3B6A53
:1038400003F40033002B0BD0FB6903F01003002BB3
:1038500006D07B681B6810225A60786800F0EAF88E
:103860003B6A03F48033002B0BD0FB6903F00803A1
:10387000002B06D07B681B6808225A60786800F02D
:10388000E2F83B6A03F40043002B7BD0FB6903F0B2
:103890000403002B72D03B6A03F48073002B08D022
:1038A000FB6803F00103002B03D07B6A43F00103A4
:1038B0007B623B6A03F40073002B08D0FB6803F0C3
:1038C0000203002B03D07B6A43F002037B623B6A56
:1038D00003F48063002B08D0FB6803F00403002B83
:1038E00003D07B6A43F004037B623B6A03F400630A
:1038F000002B43D0FB6803F07003002B3ED0FB6825
:1039000003F07003602B2BD0602B2ED8502B22D0CD
:10391000502B2AD8402B19D0402B26D8302B10D032
:10392000302B22D8102B02D0202B05D01DE07B6A33
:1039300043F008037B6219E07B6A43F010037B626B
:1039400014E07B6A43F020037B620FE07B6A43F064
:1039500040037B620AE07B6A43F080037B6205E000
:103960007B6A43F480737B6200E000BF7B681B6866
:103970009A697B681B6822F070029A617B681B68F9
:1039800004225A607B6A002B08D07B685A6A7B6AE3
:103990001A437B685A627868FEF742FC00BF2837FA
:1039A000BD4680BD80B483B000AF786000BF0C37E7
:1039B000BD4680BC704780B483B000AF786000BF64
:1039C0000C37BD4680BC704780B483B000AF7860D0
:1039D00000BF0C37BD4680BC704780B483B000AFD9
:1039E000786000BF0C37BD4680BC704780B483B0A0
:1039F00000AF786000BF0C37BD4680BC704780B414
:103A000083B000AF786000BF0C37BD4680BC704704
:103A100080B483B000AF786000BF0C37BD4680BC77
:103A2000704780B483B000AF786000BF0C37BD46EC
:103A300080BC704780B483B000AF786000BF0C37A3
:103A4000BD4680BC704780B483B000AF786000BFD3
:103A50000C37BD4680BC704780B500AF0E4B1B686D
:103A60000D4A43F4007313600B4B1B680A4A43F47E
:103A700080631360084B1B68074A43F4807313602C
:103A8000032000F09BFD0F20FEF75AFEFEF72CFEF0
:103A90000023184680BD00BF003C024080B400AF48
:103AA000054B1B781A46054B1B681344034A1360E9
:103AB00000BFBD4680BC7047680000201412002083
:103AC00080B400AF024B1B681846BD4680BC7047EF
:103AD0001412002080B58AB000AF78607B68002B9C
:103AE00001D101233BE27B681B6803F00103002B3B
:103AF00050D09E4B9B6803F00C03042B0CD09B4BC7
:103B00009B6803F00C03082B12D1984B5B6803F4FD
:103B10008003B3F5800F0BD1944B1B6803F4003383
:103B2000002B36D07B685B68002B32D1012316E274
:103B30007B685A688E4BD2B21A707B685B68002B28
:103B400013D0FFF7BDFF386208E0FFF7B9FF024668
:103B50003B6AD31A642B01D9032300E2834B1B6811
:103B600003F40033002BF0D014E0FFF7A9FF386214
:103B700008E0FFF7A5FF02463B6AD31A642B01D980
:103B80000323ECE1794B1B6803F40033002BF0D1E5
:103B900000E000BF7B681B6803F00203002B77D0B6
:103BA000724B9B6803F00C03002B0BD06F4B9B6890
:103BB00003F00C03082B26D16C4B5B6803F48003E5
:103BC000002B20D1694B1B6803F00203002B05D0AA
:103BD0007B68DB68012B01D00123C0E1634B1B68CC
:103BE00023F0F8027B681B69F821B961B96991FA81
:103BF000A1F179617969B1FA81F1C9B28B405B4970
:103C000013430B6044E07B68DB68002B2AD0594BE0
:103C100001221A60FFF754FF386208E0FFF750FFF7
:103C200002463B6AD31A022B01D9032397E14F4B7B
:103C30001B6803F00203002BF0D04C4B1B6823F0F1
:103C4000F8027B681B69F8213961396991FAA1F1A1
:103C5000F960F968B1FA81F1C9B28B404349134365
:103C60000B6015E0434B00221A60FFF729FF386212
:103C700008E0FFF725FF02463B6AD31A022B01D961
:103C800003236CE1394B1B6803F00203002BF0D1D6
:103C90007B681B6803F00803002B30D07B685B69EE
:103CA000002B16D0344B01221A60FFF709FF38624F
:103CB00008E0FFF705FF02463B6AD31A022B01D941
:103CC00003234CE1294B5B6F03F00203002BF0D080
:103CD00015E0294B00221A60FFF7F2FE386208E077
:103CE000FFF7EEFE02463B6AD31A022B01D90323EB
:103CF00035E11E4B5B6F03F00203002BF0D17B68B4
:103D00001B6803F00403002B00F08780002387F872
:103D10002730164B1B6C03F08053002B10D100236F
:103D2000BB60124B1B6C114A43F0805313640F4B62
:103D30001B6C03F08053BB60BB68012387F82730FE
:103D40000E4B1B680D4A43F4807313600B4B1B68CA
:103D500003F48073002B22D1084B1B68074A43F4FD
:103D600080731360FFF7ACFE386212E00038024047
:103D70000238024000004742800E47420070004077
:103D8000FFF79EFE02463B6AD31A022B01D903239A
:103D9000E5E0754B1B6803F48073002BF0D07B6863
:103DA0009A68724BD2B21A707B689B68002B15D050
:103DB000FFF786FE38620AE0FFF782FE02463B6AA2
:103DC000D31A41F28832934201D90323C7E0684BEA
:103DD0001B6F03F00203002BEED014E0FFF770FE20
:103DE00038620AE0FFF76CFE02463B6AD31A41F2E2
:103DF0008832934201D90323B1E05D4B1B6F03F07E
:103E00000203002BEED197F82730012B05D1584B38
:103E10001B6C574A23F0805313647B689B69002B0B
:103E200000F09C80524B9B6803F00C03082B61D080
:103E30007B689B69022B46D14E4B00221A60FFF72C
:103E40003FFE386208E0FFF73BFE02463B6AD31AAA
:103E5000642B01D9032382E0454B1B6803F00073F8
:103E6000002BF0D1424B5A68434B13407A68D1691A
:103E70007A68126A11437A68526A920111437A6829
:103E8000D26A120611437A68926A5208013A120401
:103E90000A43374913434B60364B01221A60FFF740
:103EA0000FFE386208E0FFF70BFE02463B6AD31AAA
:103EB000642B01D9032352E02D4B1B6803F00073E0
:103EC000002BF0D04AE02B4B00221A60FFF7F8FDE0
:103ED000386208E0FFF7F4FD02463B6AD31A642B10
:103EE00001D903233BE0224B1B6803F00073002B36
:103EF000F0D133E07B689B69012B01D101232EE0D7
:103F00001B4B5B68FB61FB6903F480027B68DB6928
:103F10009A4221D1FB6903F03F027B681B6A9A42F7
:103F20001AD1FA6947F6C07313407A68526A92014F
:103F3000934211D1FB6903F440327B689B6A5B08B2
:103F4000013B1B049A4207D1FB6903F070627B6856
:103F5000DB6A1B069A4201D0012300E000231846C9
:103F60002837BD4680BD00BF007000407038024059
:103F700000380240600047420080BCF080B586B047
:103F800000AF786039607B68002B01D10123D2E05B
:103F90006B4B1B6803F00F033A689A420CD9684BCD
:103FA0003A68D2B21A70664B1B6803F00F033A6886
:103FB0009A4201D00123BEE07B681B6803F0020334
:103FC000002B20D07B681B6803F00403002B05D076
:103FD0005C4B9B685B4A43F4E05393607B681B68CF
:103FE00003F00803002B05D0564B9B68554A43F459
:103FF00060439360534B9B6823F0F0027B689B689F
:10400000504913438B607B681B6803F00103002B4E
:1040100040D07B685B68012B07D14A4B1B6803F4D7
:104020000033002B15D1012385E07B685B68022BF0
:1040300007D1444B1B6803F00073002B09D1012307
:1040400079E0404B1B6803F00203002B01D10123F0
:1040500071E03C4B9B6823F003027B685B68394945
:1040600013438B60FFF72CFD78610AE0FFF728FD12
:1040700002467B69D31A41F28832934201D9032365
:1040800059E0304B9B6803F00C027B685B689B0037
:104090009A42EBD12A4B1B6803F00F033A689A420D
:1040A0000CD2274B3A68D2B21A70254B1B6803F02A
:1040B0000F033A689A4201D001233CE07B681B68F9
:1040C00003F00403002B08D01E4B9B6823F4E0523E
:1040D0007B68DB681B4913438B607B681B6803F0BC
:1040E0000803002B09D0174B9B6823F460427B68C0
:1040F0001B69DB00134913438B6000F02BF801466A
:10410000104B9B6803F0F003F0223A613A6992FA8F
:10411000A2F2FA60FA68B2FA82F2D2B2D3400A4A44
:10412000D35C21FA03F3094A1360094B1B68184654
:10413000FEF706FB002318461837BD4680BD00BFBA
:10414000003C024000380240648700086C000020F8
:10415000640000202DE9B04F94B000AF00237B64D1
:104160000023FB6400233B640023BB647C4B9B68FF
:1041700003F00C03082B0DD0082B00F2E780002B76
:1041800002D0042B03D0E1E0764BBB64E1E0764B38
:10419000BB64DEE0724B5B6803F03F037B64704BF3
:1041A0005B6803F48003002B65D06D4B5B689B0953
:1041B0000022BB63FA63BB6BC3F308033B630023BA
:1041C0007B63D7E90C4522462B464FF000004FF0A9
:1041D0000001590141EAD261500102460B462146D5
:1041E000511A3961294663EB01037B614FF00002EC
:1041F0004FF00003D7E904AB59468B01514643EA1F
:10420000916351468A01D446B2EB0C08594663EBE0
:1042100001094FF000024FF000034FEAC90343EADF
:1042200058734FEAC80290469946234618EB030399
:10423000BB602B4649EB0303FB604FF000024FF0DD
:104240000003D7E9024529464B0220462946044689
:1042500043EAD45301464A02104619467B6C0022B9
:10426000BB62FA62D7E90A23FBF7B2FF02460B46AC
:104270001346FB645CE03A4B5B689B0900221846DE
:104280001146C0F308033B6200237B62D7E908892B
:1042900042464B464FF000004FF00001590141EA01
:1042A000D261500102460B46C446B2EB0C0A4046AE
:1042B00049468C4663EB0C0B4FF000024FF00003B5
:1042C0004FEA8B1343EA9A634FEA8A12B2EB0A046D
:1042D00063EB0B054FF000024FF00003EB0043EAE5
:1042E0005473E20014461D460346E3183B600B4638
:1042F00045EB03037B604FF000024FF00003D7E96A
:10430000004529468B0220462946044643EA945339
:1043100001468A02104619467B6C0022BB61FA6195
:10432000D7E90623FBF754FF02460B461346FB640E
:104330000B4B5B681B0C03F0030301335B003B6416
:10434000FA6C3B6CB2FBF3F3BB6402E0054BBB645D
:1043500000BFBB6C18465037BD46BDE8B08F00BFEC
:10436000003802400024F40000127A0080B400AF4C
:10437000024B1B681846BD4680BC70476C0000208D
:1043800080B582B000AFFFF7F1FF01460B4B9B6891
:1043900003F4E0534FF4E0527A607A6892FAA2F2A2
:1043A0003A603A68B2FA82F2D2B2D340044AD35C9D
:1043B00021FA03F318460837BD4680BD0038024095
:1043C0007487000880B582B000AFFFF7CFFF0146C9
:1043D0000B4B9B6803F460434FF460427A607A6849
:1043E00092FAA2F23A603A68B2FA82F2D2B2D340BA
:1043F000044AD35C21FA03F318460837BD4680BD52
:10440000003802407487000880B483B000AF786041
:1044100039607B680F221A60114B9B6803F003021E
:104420007B685A600E4B9B6803F0F0027B689A60D1
:104430000B4B9B6803F4E0527B68DA60084B9B6887
:10444000DB0803F4E0527B681A61064B1B6803F03B
:104450000F023B681A6000BF0C37BD4680BC704736
:1044600000380240003C024080B485B000AF786064
:104470007B6803F00703FB600C4BDB68BB60BA682A
:104480004FF6FF031340BB60FB681A02BB6813437F
:1044900043F0BF6343F40033BB60044ABB68D3609E
:1044A00000BF1437BD4680BC704700BF00ED00E080
:1044B00080B400AF044BDB681B0A03F00703184607
:1044C000BD4680BC704700BF00ED00E080B483B003
:1044D00000AF0346FB7197F90730002B0BDBFB792C
:1044E00003F01F02064997F907305B09012000FA23
:1044F00002F241F8232000BF0C37BD4680BC704754
:1045000000E100E080B483B000AF03463960FB7186
:1045100097F90730002B0ADB3B68DAB20C4997F9B0
:1045200007301201D2B20B4483F800230AE03B6843
:10453000DAB20849FB7903F00F03043B1201D2B24F
:104540000B441A7600BF0C37BD4680BC704700BFD5
:1045500000E100E000ED00E080B489B000AFF86059
:10456000B9607A60FB6803F00703FB61FB69C3F184
:104570000703042B28BF0423BB61FB690433062B0C
:1045800002D9FB69033B00E000237B614FF0FF325F
:10459000BB6902FA03F3DA43BB681A407B699A40AD
:1045A0004FF0FF317B6901FA03F3D9437B680B407D
:1045B000134318462437BD4680BC704780B582B08F
:1045C00000AF78607868FFF74FFF00BF0837BD463F
:1045D00080BD80B586B000AF0346B9607A60FB73DA
:1045E00000237B61FFF764FF78617A68B9687869B6
:1045F000FFF7B2FF024697F90F3011461846FFF752
:1046000081FF00BF1837BD4680BD80B582B000AFC6
:104610000346FB7197F907301846FFF757FF00BFB5
:104620000837BD4680BD000080B487B000AF786019
:10463000396000237B616FE13B681A6801217B6967
:1046400001FA03F31340FB60FB68002B00F061816B
:104650003B685B6803F00303012B05D03B685B6894
:1046600003F00303022B30D17B689B683B617B69BD
:104670005B00032202FA03F3DB433A6913403B6118
:104680003B68DA687B695B0002FA03F33A6913431B
:104690003B617B683A699A607B685B683B61012299
:1046A0007B6902FA03F3DB433A6913403B613B68E1
:1046B0005B681B0903F001027B6902FA03F33A69A4
:1046C00013433B617B683A695A603B685B6803F05F
:1046D0000303032B17D07B68DB683B617B695B00BE
:1046E000032202FA03F3DB433A6913403B613B6860
:1046F0009A687B695B0002FA03F33A6913433B61F2
:104700007B683A69DA603B685B6803F00303022B5D
:1047100023D17B69DA087B68083253F822303B6189
:104720007B6903F007039B000F2202FA03F3DB43CC
:104730003A6913403B613B681A697B6903F00703E0
:104740009B0002FA03F33A6913433B617B69DA0881
:104750007B680832396943F822107B681B683B612B
:104760007B695B00032202FA03F3DB433A691340DF
:104770003B613B685B6803F003027B695B0002FA04
:1047800003F33A6913433B617B683A691A603B68FB
:104790005B6803F44033002B00F0BB800023BB6058
:1047A000644B5B6C634A43F480435364614B5B6CC2
:1047B00003F48043BB60BB685F4A7B699B0802339C
:1047C00052F823303B617B6903F003039B000F2207
:1047D00002FA03F3DB433A6913403B617B68574AB3
:1047E000934231D07B68564A93422BD07B68554A1E
:1047F000934225D07B68544A93421FD07B68534A2A
:10480000934219D07B68524A934213D07B68514A35
:1048100093420DD07B68504A934207D07B684F4A41
:10482000934201D1082310E009230EE007230CE096
:1048300006230AE0052308E0042306E0032304E03E
:10484000022302E0012300E000237A6902F0030260
:10485000920093401A463B6913433B6136497B699A
:104860009B0802333A6941F823203D4B9B683B612A
:10487000FB68DB433A6913403B613B685B6803F4C8
:104880008013002B03D03A69FB6813433B61344A21
:104890003B699360324BDB683B61FB68DB433A6901
:1048A00013403B613B685B6803F40013002B03D0AB
:1048B0003A69FB6813433B61294A3B69D360284B43
:1048C0005B683B61FB68DB433A6913403B613B68D3
:1048D0005B6803F40033002B03D03A69FB68134391
:1048E0003B611F4A3B6953601D4B1B683B61FB6882
:1048F000DB433A6913403B613B685B6803F48033F8
:10490000002B03D03A69FB6813433B61144A3B69AF
:1049100013607B6901337B613B681A687B6922FA0B
:1049200003F3002B7FF488AE00BF00BF1C37BD46E9
:1049300080BC70470038024000380140000002404F
:104940000004024000080240000C02400010024037
:104950000014024000180240001C024000200240E7
:10496000003C014080B483B000AF78600B467B8090
:1049700013467B707B78002B03D07A887B689A6122
:1049800003E07B881A047B689A6100BF0C37BD4640
:1049900080BC704780B485B000AF78600B467B80E8
:1049A0007B685B69FB607A88FB6813401A04FB68CC
:1049B000D9437B880B401A437B689A6100BF143748
:1049C000BD4680BC704780B584B000AF78607B681E
:1049D0009B6DFB60FFF774F8B8607B6893F8353027
:1049E000DBB2022B08D07B6880225A657B680022EC
:1049F00083F83420012352E07B681B681A687B68C7
:104A00001B6822F016021A607B681B685A697B6873
:104A10001B6822F080025A617B681B6C002B03D15B
:104A20007B689B6C002B07D07B681B681A687B68CF
:104A30001B6822F008021A607B681B681A687B6892
:104A40001B6822F001021A6013E0FFF739F80246F2
:104A5000BB68D31A052B0CD97B6820225A657B686A
:104A6000032283F835207B68002283F83420032357
:104A700015E07B681B681B6803F00103002BE4D181
:104A80007B68DB6D3F229A40FB689A607B6801225D
:104A900083F835207B68002283F8342000231846F1
:104AA0001037BD4680BD80B483B000AF78607B68AE
:104AB00093F83530DBB2022B04D07B6880225A6534
:104AC00001230CE07B68052283F835207B681B6896
:104AD0001A687B681B6822F001021A6000231846DE
:104AE0000C37BD4680BC704780B582B000AF78609F
:104AF0007B68002B01D1012342E07B6893F84130B1
:104B0000DBB2002B06D17B68002283F84020786856
:104B1000FDF720FD7B68242283F841207B681B6819
:104B2000DA687B681B6822F40052DA60786800F06B
:104B30007FFC7B681B681A697B681B6822F49042C3
:104B40001A617B681B685A697B681B6822F02A021D
:104B50005A617B681B68DA687B681B6842F4005204
:104B6000DA607B6800225A647B68202283F8412047
:104B70007B68202283F842207B6800225A6300234E
:104B800018460837BD4680BD80B5BAB000AF786022
:104B90007B681B681B68C7F8E4307B681B68DB68B0
:104BA000C7F8E0307B681B685B69C7F8DC3000231E
:104BB000C7F8D8300023C7F8D430D7F8E43003F072
:104BC0000F03C7F8D830D7F8D830002B0FD1D7F85B
:104BD000E43003F02003002B09D0D7F8E03003F0D5
:104BE0002003002B03D0786800F063FB5BE2D7F86A
:104BF000D830002B00F0DE80D7F8DC3003F0010362
:104C0000002B06D1D7F8E03003F49073002B00F0AE
:104C1000D180D7F8E43003F00103002B0BD0D7F894
:104C2000E03003F48073002B05D07B685B6C43F0AD
:104C300001027B685A64D7F8E43003F00403002BC8
:104C40000BD0D7F8DC3003F00103002B05D07B68D4
:104C50005B6C43F002027B685A64D7F8E43003F0DF
:104C60000203002B0BD0D7F8DC3003F00103002B3C
:104C700005D07B685B6C43F004027B685A64D7F80C
:104C8000E43003F00803002B11D0D7F8E03003F034
:104C90002003002B05D1D7F8DC3003F00103002BF3
:104CA00005D07B685B6C43F008027B685A647B68C4
:104CB0005B6C002B00F0F281D7F8E43003F02003A6
:104CC000002B08D0D7F8E03003F02003002B02D0EF
:104CD000786800F0EEFA7B681B685B6903F04003BC
:104CE000402B0CBF01230023DBB2C7F8D4307B6814
:104CF0005B6C03F00803002B03D1D7F8D430002BF2
:104D00004FD0786800F0F8F97B681B685B6903F0A6
:104D10004003402B41D17B681B681433C7F89C309B
:104D2000D7F89C3053E8003FC7F89830D7F8983050
:104D300023F04003C7F8D0307B681B681433D7F8E2
:104D4000D020C7F8A820C7F8A430D7F8A410D7F807
:104D5000A82041E80023C7F8A030D7F8A030002BE6
:104D6000D9D17B68DB6B002B13D07B68DB6B7E4A71
:104D70001A657B68DB6B1846FFF795FE0346002B30
:104D800016D07B68DB6B1B6D7A68D26B1046984738
:104D90000EE0786800F09CF90AE0786800F098F975
:104DA00006E0786800F094F97B6800225A6475E1A7
:104DB00000BF73E17B681B6B012B40F04F81D7F87C
:104DC000E43003F01003002B00F04881D7F8E03006
:104DD00003F01003002B00F041810023BB607B68CF
:104DE0001B681B68BB607B681B685B68BB60BB683B
:104DF0007B681B685B6903F04003402B40F0B68082
:104E00007B68DB6B1B685B68A7F8BE30B7F8BE3009
:104E1000002B00F045817B689B8DB7F8BE209A423D
:104E200080F03E817B68B7F8BE20DA857B68DB6B5B
:104E3000DB69B3F5807F00F088807B681B680C33EA
:104E4000C7F88830D7F8883053E8003FC7F8843077
:104E5000D7F8843023F48073C7F8B8307B681B68B8
:104E60000C33D7F8B820C7F89420C7F89030D7F89B
:104E70009010D7F8942041E80023C7F88C30D7F879
:104E80008C30002BD9D17B681B6814337B677B6F18
:104E900053E8003F3B673B6F23F00103C7F8B43092
:104EA0007B681B681433D7F8B420C7F88020FB67F1
:104EB000F96FD7F8802041E80023BB67BB6F002B58
:104EC000E1D17B681B6814333B663B6E53E8003FBF
:104ED000FB65FB6D23F04003C7F8B0307B681B68AF
:104EE0001433D7F8B020FA66BB66B96EFA6E41E8A3
:104EF00000237B667B6E002BE3D17B68202283F846
:104F000042207B6800221A637B681B680C33FB64B9
:104F1000FB6C53E8003FBB64BB6C23F01003C7F885
:104F2000AC307B681B680C33D7F8AC20BA657B6566
:104F3000796DBA6D41E800233B653B6D002BE3D1F1
:104F40007B68DB6B1846FFF73EFD7B6802225A63E5
:104F50007B689A8D7B68DB8D9BB2D31A9BB2194616
:104F6000786800F0BEF89BE0BD5100087B689A8D20
:104F70007B68DB8D9BB2D31AA7F8CE307B68DB8DC4
:104F80009BB2002B00F08E80B7F8CE30002B00F0E3
:104F900089807B681B680C33BB63BB6B53E8003FA5
:104FA0007B637B6B23F49073C7F8C8307B681B6806
:104FB0000C33D7F8C8207A643B64396C7A6C41E8CA
:104FC0000023FB63FB6B002BE3D17B681B6814336E
:104FD0007B627B6A53E8003F3B623B6A23F001033C
:104FE000C7F8C4307B681B681433D7F8C4203A6311
:104FF000FB62F96A3A6B41E80023BB62BB6A002B93
:10500000E3D17B68202283F842207B6800221A6368
:105010007B681B680C333B613B6953E8003FFB60D6
:10502000FB6823F01003C7F8C0307B681B680C33A3
:10503000D7F8C020FA61BB61B969FA6941E8002379
:105040007B617B69002BE3D17B6802225A63B7F84E
:10505000CE301946786800F044F823E0D7F8E43001
:1050600003F08003002B09D0D7F8E03003F0800371
:10507000002B03D0786800F0B5F814E0D7F8E430DE
:1050800003F04003002B0ED0D7F8E03003F04003CC
:10509000002B08D0786800F0F4F804E000BF02E0CC
:1050A00000BF00E000BFE837BD4680BD80B483B0DC
:1050B00000AF786000BF0C37BD4680BC704780B43D
:1050C00083B000AF786000BF0C37BD4680BC70472E
:1050D00080B483B000AF786000BF0C37BD4680BCA1
:1050E000704780B483B000AF78600B467B8000BF10
:1050F0000C37BD4680BC704780B495B000AF786077
:105100007B681B680C337B637B6B53E8003F3B631E
:105110003B6B23F49073FB647B681B680C33FA6C65
:105120003A64FB63F96B3A6C41E80023BB63BB6BE9
:10513000002BE5D17B681B6814333B623B6A53E864
:10514000003FFB61FB6923F00103BB647B681B68C4
:105150001433BA6CFA62BB62B96AFA6A41E8002396
:105160007B627B6A002BE5D17B681B6B012B19D11D
:105170007B681B680C33FB60FB6853E8003FBB6037
:10518000BB6823F010037B647B681B680C337A6C6C
:10519000BA617B617969BA6941E800233B613B6987
:1051A000002BE5D17B68202283F842207B68002217
:1051B0001A6300BF5437BD4680BC704780B584B0C9
:1051C00000AF78607B689B6BFB60FB680022DA8530
:1051D000FB680022DA84F868FFF77AFF00BF103717
:1051E000BD4680BD80B485B000AF78607B6893F821
:1051F0004130DBB2212B3ED17B689B68B3F5805FE9
:1052000014D17B681B69002B10D17B681B6AFB6083
:10521000FB681B881A467B681B68C2F308025A6049
:105220007B681B6A9A1C7B681A6208E07B681B6AB1
:10523000591C7A6811621A787B681B685A607B680F
:10524000DB8C9BB2013B9BB27A681946D184002B60
:105250000FD17B681B68DA687B681B6822F08002CC
:10526000DA607B681B68DA687B681B6842F0400282
:10527000DA60002300E0022318461437BD4680BCE4
:10528000704780B582B000AF78607B681B68DA68D1
:105290007B681B6822F04002DA607B68202283F87A
:1052A00041207868FFF702FF002318460837BD4603
:1052B00080BD80B58CB000AF78607B6893F84230D9
:1052C000DBB2222B40F0AE807B689B68B3F5805F39
:1052D00017D17B681B69002B13D10023FB627B680D
:1052E0009B6ABB627B681B685B689BB2C3F3080365
:1052F0009AB2BB6A1A807B689B6A9A1C7B689A6226
:1053000026E07B689B6AFB620023BB627B689B682C
:10531000B3F5805F07D07B689B68002B0AD17B6860
:105320001B69002B06D17B681B685B68DAB2FB6ADD
:105330001A7008E07B681B685B68DBB203F07F03D0
:10534000DAB2FB6A1A707B689B6A5A1C7B689A62A5
:105350007B68DB8D9BB2013B9BB27A681946D18595
:10536000002B5DD17B681B68DA687B681B6822F0C4
:105370002002DA607B681B68DA687B681B6822F4AD
:105380008072DA607B681B685A697B681B6822F050
:1053900001025A617B68202283F842207B68002248
:1053A0005A637B681B6B012B35D17B6800221A6323
:1053B0007B681B680C337B617B6953E8003F3B6172
:1053C0003B6923F010037B627B681B680C337A6AAD
:1053D0003A62FB61F9693A6A41E80023BB61BB6943
:1053E000002BE5D17B681B681B6803F01003102BB2
:1053F0000AD10023FB607B681B681B68FB607B682D
:105400001B685B68FB60FB687B689B8D194678684E
:10541000FFF767FE02E07868FFF751FE002302E025
:10542000002300E0022318463037BD4680BD00004F
:1054300080B584B000AF78607B681B681B6923F47B
:1054400040517B68DA687B681B680A431A617B6895
:105450009A687B681B691A437B685B691A437B689F
:10546000DB691343BB607B681B68DB6823F416436E
:1054700023F00C037A681268B9680B43D3607B6829
:105480001B685B6923F440717B689A697B681B68C1
:105490000A435A617B681B68574A934204D07B6871
:1054A0001B68564A934203D1FEF78CFFF86002E076
:1054B000FEF766FFF8607B68DB69B3F5004F4CD1FF
:1054C000FA6813469B0013449A001A447B685B6891
:1054D0005B00B2FBF3F34A4AA2FB03235B09190109
:1054E000FA6813469B0013449A001A447B685B6871
:1054F0005B00B2FBF3F2424BA3FB02035B096420A7
:1055000000FB03F3D31ADB0032333D4AA2FB032333
:105510005B095B0003F4F8731944FA6813469B00B7
:1055200013449A001A447B685B685B00B2FBF3F299
:10553000334BA3FB02035B09642000FB03F3D31A84
:10554000DB0032332E4AA2FB03235B0903F0070280
:105550007B681B680A449A604AE0FA6813469B001D
:1055600013449A001A447B685B689B00B2FBF3F318
:10557000234AA2FB03235B091901FA6813469B0027
:1055800013449A001A447B685B689B00B2FBF3F2F9
:105590001B4BA3FB02035B09642000FB03F3D31A3C
:1055A0001B013233164AA2FB03235B0903F0F0030D
:1055B0001944FA6813469B0013449A001A447B6806
:1055C0005B689B00B2FBF3F20D4BA3FB02035B098C
:1055D000642000FB03F3D31A1B013233084AA2FBF9
:1055E00003235B0903F00F027B681B680A449A607F
:1055F00000BF1037BD4680BD0010014000140140BF
:105600001F85EB5180B400AF00BFBD4680BC704722
:1056100080B483B000AF78607B6803F108027B68D8
:105620005A607B684FF0FF329A607B6803F1080292
:105630007B68DA607B6803F108027B681A617B682B
:1056400000221A6000BF0C37BD4680BC704780B492
:1056500083B000AF78607B6800221A6100BF0C370E
:10566000BD4680BC704780B485B000AF78603960BB
:105670007B685B68FB603B68FA685A60FB689A6805
:105680003B689A60FB689B683A685A60FB683A68B6
:105690009A603B687A681A617B681B685A1C7B6851
:1056A0001A6000BF1437BD4680BC704780B485B017
:1056B00000AF786039603B681B68BB60BB68B3F1C2
:1056C000FF3F03D17B681B69FB600CE07B680833FC
:1056D000FB6002E0FB685B68FB60FB685B681B6863
:1056E000BA689A42F6D2FB685A683B685A603B68CF
:1056F0005B683A689A603B68FA689A60FB683A6847
:105700005A603B687A681A617B681B685A1C7B6820
:105710001A6000BF1437BD4680BC704780B485B0A6
:1057200000AF78607B681B69FB607B685B687A68A8
:1057300092689A607B689B687A6852685A60FB68D6
:105740005B687A689A4203D17B689A68FB685A6002
:105750007B6800221A61FB681B685A1EFB681A608E
:10576000FB681B6818461437BD4680BC70470000B4
:1057700080B584B000AF786039607B68FB60FB68FF
:10578000002B0AD14FF0500383F31188BFF36F8FC2
:10579000BFF34F8FBB6000BFFEE702F0EFFCFB687A
:1057A0001A68FB68DB6BF968096C01FB03F31A44A8
:1057B000FB689A60FB6800229A63FB681A68FB68C2
:1057C0005A60FB681A68FB68DB6B013BF968096C7F
:1057D00001FB03F31A44FB68DA60FB68FF2283F8DD
:1057E0004420FB68FF2283F845203B68002B14D13E
:1057F000FB681B69002B1AD0FB681033184601F0B8
:105800009BFA0346002B12D00C4B4FF080521A60CB
:10581000BFF34F8FBFF36F8F09E0FB68103318465B
:10582000FFF7F6FEFB6824331846FFF7F1FE02F09F
:10583000D5FC012318461037BD4680BD04ED00E0BD
:1058400080B58EB002AFF860B9607A603B60FB68EB
:10585000002B0AD14FF0500383F31188BFF36F8FF1
:10586000BFF34F8FBB6200BFFEE73B68002B0AD13E
:105870004FF0500383F31188BFF36F8FBFF34F8F47
:105880007B6200BFFEE77B68002B02D0BB68002B69
:1058900001D0012300E00023002B0AD14FF0500378
:1058A00083F31188BFF36F8FBFF34F8F3B6200BF4D
:1058B000FEE77B68002B02D1BB68002B01D10123DE
:1058C00000E00023002B0AD14FF0500383F311882E
:1058D000BFF36F8FBFF34F8FFB6100BFFEE7502315
:1058E0007B617B69502B0AD04FF0500383F3118802
:1058F000BFF36F8FBFF34F8FBB6100BFFEE77B69C4
:105900003B68FB62FB6A002B0DD0FB6A012283F827
:10591000462097F83820FB6A009313467A68B968E6
:10592000F86800F03FF8FB6A18463037BD4680BD86
:1059300080B58AB002AFF860B9601346FB71FB68AE
:10594000002B0AD14FF0500383F31188BFF36F8F00
:10595000BFF34F8F3B6100BFFEE7FB68BA6802FBF5
:1059600003F3FB61FB695033184602F0BBFAB861E0
:10597000BB69002B11D0BB697B617B6950337B61B4
:10598000BB69002283F84620FA79BB69009313466D
:105990007A69B968F86800F005F8BB6918462037DD
:1059A000BD4680BD80B584B000AFF860B9607A6054
:1059B000FB70BB68002B03D1BB69BA691A6002E0B7
:1059C000BB697A681A60BB69FA68DA63BB69BA684E
:1059D0001A640121B869FFF7CBFEBB69FA7883F836
:1059E0004C2000BF1037BD4680BD000080B58EB092
:1059F00000AFF860B9607A603B6000237B63FB68AE
:105A00003B633B6B002B0AD14FF0500383F31188AB
:105A1000BFF36F8FBFF34F8FBB6200BFFEE7BB6862
:105A2000002B03D13B6B1B6C002B01D1012300E049
:105A30000023002B0AD14FF0500383F31188BFF3EA
:105A40006F8FBFF34F8F7B6200BFFEE73B68022B77
:105A500003D13B6BDB6B012B01D1012300E0002361
:105A6000002B0AD14FF0500383F31188BFF36F8FDF
:105A7000BFF34F8F3B6200BFFEE701F01FFB034601
:105A8000002B02D17B68002B01D1012300E0002311
:105A9000002B0AD14FF0500383F31188BFF36F8FAF
:105AA000BFF34F8FFB6100BFFEE702F067FB3B6B6C
:105AB0009A6B3B6BDB6B9A4202D33B68022B29D17A
:105AC0003A68B968386B00F08BFAF8623B6B5B6A36
:105AD000002B10D03B6B2433184601F02DF9034600
