:020000040800F2
:10000000000002203D770008E1190008E719000808
:10001000ED190008F3190008F919000800000000A4
:100020000000000000000000000000001174000843
:10003000FF19000800000000F1750008256D000898
:100040008D7700088D7700088D7700088D77000880
:100050008D7700088D7700088D7700088D77000870
:100060008D7700088D7700088D7700088D77000860
:100070008D7700088D7700088D7700088D77000850
:100080008D7700088D7700088D7700080D1A00081D
:10009000211A0008351A0008491A00088D7700084F
:1000A0008D7700088D7700088D7700088D77000820
:1000B0008D7700088D7700088D7700088D77000810
:1000C0008D7700088D7700088D7700088D77000800
:1000D0008D7700088D7700088D7700085D1A00087D
:1000E0008D7700088D7700088D7700088D770008E0
:1000F0008D7700088D7700088D7700088D770008D0
:100100008D7700088D7700088D7700088D770008BF
:100110008D7700088D770008711A00088D77000828
:100120008D7700088D7700088D7700088D7700089F
:100130008D7700088D7700088D770008851A0008F4
:10014000991A0008AD1A0008C11A00088D77000836
:100150008D7700088D7700088D7700088D7700086F
:100160008D7700088D7700088D7700088D7700085F
:100170008D7700088D7700088D770008000000005B
:040180008D7700086F
:1001900010B5054C237833B9044B13B10448AFF3C1
:1001A00000800123237010BD7800002000000000B3
:1001B000247A000808B5034B1BB103490348AFF389
:1001C000008008BD000000007C000020247A0008A8
:1001D00080F0004002E000BF81F0004142001FBFFC
:1001E0005FEA410392EA030F7FEA226C7FEA236C05
:1001F0006AD04FEA1262D2EB1363C1BFD2184140FA
:1002000048404140B8BF5B42192B88BF704710F08F
:10021000004F40F4000020F07F4018BF404211F032
:10022000004F41F4000121F07F4118BF494292EA9A
:10023000030F3FD0A2F1010241FA03FC10EB0C00C6
:10024000C3F1200301FA03F100F0004302D5494253
:1002500060EB4000B0F5000F13D3B0F1807F06D300
:1002600040084FEA310102F10102FE2A51D2B1F1F8
:10027000004F40EBC25008BF20F0010040EA0300ED
:100280007047490040EB0000013A28BFB0F5000F6D
:10029000EDD2B0FA80FCACF1080CB2EB0C0200FA23
:1002A0000CF0AABF00EBC25052421843BCBFD04072
:1002B0001843704792F0000F81F4000106BF80F4EC
:1002C00000000132013BB5E74FEA41037FEA226CAF
:1002D00018BF7FEA236C21D092EA030F04D092F07A
:1002E000000F08BF0846704790EA010F1CBF0020AE
:1002F000704712F07F4F04D1400028BF40F000400B
:10030000704712F100723CBF00F50000704700F02A
:10031000004343F0FE4040F4000070477FEA226251
:1003200016BF08467FEA23630146420206BF5FEA22
:10033000412390EA010F40F4800070474FF0000322
:1003400004E000BF10F0004348BF40425FEA000CE9
:1003500008BF704743F0964301464FF000001CE091
:1003600050EA010208BF70474FF000030AE000BFE7
:1003700050EA010208BF704711F0004302D5404225
:1003800061EB41015FEA010C02BF84460146002097
:1003900043F0B64308BFA3F18053A3F50003BCFAB2
:1003A0008CF2083AA3EBC25310DB01FA02FC63445F
:1003B00000FA02FCC2F12002BCF1004F20FA02F266
:1003C00043EB020008BF20F00100704702F1200259
:1003D00001FA02FCC2F1200250EA4C0021FA02F2BA
:1003E00043EB020008BF20EADC7070474FF0FF0CBF
:1003F0001CEAD0521EBF1CEAD15392EA0C0F93EABA
:100400000C0F6FD01A4480EA010C400218BF5FEA5B
:1004100041211ED04FF0006343EA501043EA5111CE
:10042000A0FB01310CF00040B1F5000F3EBF4900C8
:1004300041EAD3715B0040EA010062F17F02FD2ACC
:100440001DD8B3F1004F40EBC25008BF20F00100AF
:10045000704790F0000F0CF0004C08BF49024CEAC6
:10046000502040EA51207F3AC2BFD2F1FF0340EA58
:10047000C250704740F400004FF00003013A5DDCC9
:1004800012F1190FDCBF00F000407047C2F100020A
:10049000410021FA02F1C2F1200200FA02FC5FEAF7
:1004A000310040F1000053EA4C0308BF20EADC7041
:1004B000704792F0000F00F0004C02BF400010F4B3
:1004C000000F013AF9D040EA0C0093F0000F01F060
:1004D000004C02BF490011F4000F013BF9D041EA82
:1004E0000C018FE70CEAD15392EA0C0F18BF93EA84
:1004F0000C0F0AD030F0004C18BF31F0004CD8D1AE
:1005000080EA010000F00040704790F0000F17BF34
:1005100090F0004F084691F0000F91F0004F14D07A
:1005200092EA0C0F01D142020FD193EA0C0F03D1D2
:100530004B0218BF084608D180EA010000F00040D5
:1005400040F0FE4040F40000704740F0FE4040F4B0
:10055000400070474FF0FF0C1CEAD0521EBF1CEA4F
:10056000D15392EA0C0F93EA0C0F69D0A2EB03026D
:1005700080EA010C49024FEA402037D04FF0805307
:1005800043EA111143EA10130CF000408B4238BFCC
:100590005B0042F17D024FF4000C8B4224BF5B1ADA
:1005A00040EA0C00B3EB510F24BFA3EB510340EA28
:1005B0005C00B3EB910F24BFA3EB910340EA9C00D6
:1005C000B3EBD10F24BFA3EBD10340EADC001B0146
:1005D00018BF5FEA1C1CE0D1FD2A3FF650AF8B42EA
:1005E00040EBC25008BF20F0010070470CF0004CF7
:1005F0004CEA50207F32C2BFD2F1FF0340EAC25022
:10060000704740F400004FF00003013A37E792F0E2
:10061000000F00F0004C02BF400010F4000F013A40
:10062000F9D040EA0C0093F0000F01F0004C02BF3B
:10063000490011F4000F013BF9D041EA0C0195E7A4
:100640000CEAD15392EA0C0F08D142027FF47DAF3D
:1006500093EA0C0F7FF470AF084676E793EA0C0F2D
:1006600004D14B023FF44CAF08466EE730F0004C2B
:1006700018BF31F0004CCAD130F000427FF45CAFBB
:1006800031F000437FF43CAF5FE700BF4FF0FF3C29
:1006900006E000BF4FF0010C02E000BF4FF0010C7C
:1006A0004DF804CD4FEA40024FEA41037FEA226C45
:1006B00018BF7FEA236C11D001B052EA530C18BF67
:1006C00090EA010F58BFB2EB030088BFC81738BFCC
:1006D0006FEAE17018BF40F0010070477FEA226CBA
:1006E00002D15FEA402C05D17FEA236CE4D15FEAB6
:1006F000412CE1D05DF8040B704700BF84460846EA
:100700006146FFE70FB5FFF7C9FF002848BF10F1AA
:10071000000F0FBD4DF808EDFFF7F4FF0CBF0120EF
:1007200000205DF808FB00BF4DF808EDFFF7EAFF79
:1007300034BF012000205DF808FB00BF4DF808ED34
:10074000FFF7E0FF94BF012000205DF808FB00BF29
:100750004DF808EDFFF7D2FF94BF012000205DF8AF
:1007600008FB00BF4DF808EDFFF7C8FF34BF0120BC
:1007700000205DF808FB00BF4FEA4002B2F1FE4FD7
:100780000FD34FF09E03B3EB12620DD94FEA002353
:1007900043F0004310F0004F23FA02F018BF40422C
:1007A00070474FF00000704712F1610F01D1420213
:1007B00005D110F0004008BF6FF0004070474FF0C7
:1007C0000000704742000ED2B2F1FE4F0BD34FF043
:1007D0009E03B3EB126209D44FEA002343F00043B7
:1007E00023FA02F070474FF00000704712F1610FDA
:1007F00001D1420202D14FF0FF3070474FF00000AC
:10080000704700BF53B94AB9002908BF00281CBF70
:100810004FF0FF314FF0FF3000F076B9ADF1080C2A
:100820006DE904CE00F006F8DDF804E0DDE902230E
:1008300004B070472DE9F047089E0D4604468846EF
:10084000002B4DD18A42944668D9B2FA82F252B155
:1008500001FA02F3C2F1200120FA01F10CFA02FCC4
:1008600041EA030894404FEA1C41B8FBF1F71FFA34
:100870008CFE01FB178807FB0EF0230C43EA0843AC
:1008800098420AD91CEB030307F1FF3580F01E8163
:10089000984240F21B81023F63441B1AB3FBF1F004
:1008A00001FB103300FB0EFEA4B244EA0344A6454C
:1008B0000AD91CEB040400F1FF3380F00981A6453E
:1008C00040F20681644402380021A4EB0E0440EAA1
:1008D00007401EB10023D440C6E90043BDE8F087BD
:1008E0008B4208D9002E00F0EE800021C6E90005F9
:1008F0000846BDE8F087B3FA83F100294AD1AB423C
:1009000002D3824200F2FC80841A65EB03030120CB
:100910009846002EE2D0C6E90048DFE702B9FFDEC4
:10092000B2FA82F2002A40F09180A1EB0C00012182
:100930004FEA1C471FFA8CFEB0FBF7F307FB1300CE
:10094000250C45EA00450EFB03F0A84208D91CEB34
:10095000050503F1FF3802D2A84200F2CE804346DB
:100960002D1AB5FBF7F007FB10550EFB00FEA4B2E5
:1009700044EA0544A64508D91CEB040400F1FF3500
:1009800002D2A64500F2B6802846A4EB0E0440EA47
:1009900003409EE7C1F120078B4022FA07FC4CEA96
:1009A000030C25FA07FA4FEA1C49BAFBF9F820FABA
:1009B00007F309FB18AA8D401FFA8CFE1D4300FAAD
:1009C00001F308FB0EF02C0C44EA0A44A04202FAA0
:1009D00001F20BD91CEB040408F1FF3A80F0888087
:1009E000A04240F28580A8F102086444241AB4FBB6
:1009F000F9F009FB104400FB0EFEADB245EA0444D9
:100A0000A64508D91CEB040400F1FF356CD2A645BD
:100A10006AD90238644440EA0840A0FB0295A4EB7E
:100A20000E04AC42C846AE4656D353D0002E69D011
:100A3000B3EB080264EB0E0422FA01F304FA07F7A1
:100A40001F43CC40C6E90074002147E70CFA02FCC2
:100A5000C2F1200125FA01F34FEA1C4720FA01F107
:100A600095400D43B3FBF7F107FB11331FFA8CFEE2
:100A7000280C40EA034001FB0EF3834204FA02F41F
:100A800008D91CEB000001F1FF382FD283422DD989
:100A900002396044C01AB0FBF7F307FB1300ADB294
:100AA00045EA004503FB0EF0A84208D91CEB0505FA
:100AB00003F1FF3816D2A84214D9023B6544281A24
:100AC00043EA014138E73146304607E72F46E4E67E
:100AD0001846F9E64B45A9D2B9EB020865EB0C0EB6
:100AE0000138A3E74346EAE7284694E74146D1E7C1
:100AF000D0467BE76444023847E7023B65442FE772
:100B0000084606E73146E9E6704700BF70B50026A3
:100B10000C4D0D4C641BA410A64209D106F082FFB7
:100B200000260A4D0A4C641BA410A64205D170BDD4
:100B300055F8043B98470136EEE755F8043B9847D3
:100B40000136F2E7FC830008FC830008FC83000800
:100B50000084000803460244934200D1704703F822
:100B6000011BF9E780B582B000AF5A4B1B790E2B01
:100B700005D8584B1B790133DAB2564B1A71554BD5
:100B80005B793E2B05D8534B5B790133DAB2514B7D
:100B90005A71504B9B797E2B05D84E4B9B79013374
:100BA000DAB24C4B9A714B4B1B78002B1BD1494B43
:100BB00001221A70474B00221A71464B01225A70CB
:100BC00001237B71434B00225A71424B01229A70E0
:100BD0000123FB713F4B00229A713E4B0122DA70D8
:100BE0000123BB7162E03B4B5B78012B0ED10123EB
:100BF0007B71384B1B79092B16D9364B00221A71A1
:100C0000344B02225A7000237B710DE000237B716C
:100C1000304B1B79092B07D92E4B00221A712D4B13
:100C200001225A7001237B712A4B9B78012B0ED134
:100C30000123FB71274B5B79312B16D9254B002201
:100C40005A71244B02229A700023FB710DE000239D
:100C5000FB71204B5B79312B07D91E4B00225A7157
:100C60001C4B01229A700123FB711A4BDB78012B7C
:100C70000ED10123BB71174B9B79632B16D9154BF2
:100C800000229A71134B0222DA700023BB710DE02F
:100C90000023BB710F4B9B79632B07D90D4B0022AF
:100CA0009A710C4B0122DA700123BB71FB79194652
:100CB000012000F017F87B791946032000F012F8A4
:100CC000BB791946022000F00DF800BF0837BD4679
:100CD00080BD00BF9400002080B400AF00BFBD46BF
:100CE00080BC704780B584B000AF03460A46FB71F4
:100CF0001346BB714FF48043FB8100237B73FB7968
:100D0000012B02D0022B03D005E00123FB8106E07A
:100D10008023FB8103E04FF48043FB8100BFBB795C
:100D2000002B14BF01230023DBB27B737A7BFB898A
:100D30001946034803F00CF800BF1037BD4680BDCC
:100D40000004024080B500AF02F07CF800F032F8F9
:100D500000F0EEF800F0CAFD00F07CFC00F0B0FC02
:100D600000F06EF800F0A0F8104801F0CDFB03464B
:100D7000002B05D10E4801F0C7FB0346002B01D024
:100D800000F0D0F848F21301084801F025FE48F2BF
:100D90001301074801F020FEFFF79EFF05F0DCFF7E
:100DA00000F074F905F0FAFFFEE700BFD000002064
:100DB000F800002080B592B000AF07F11803302290
:100DC00000211846FFF7C6FE3B1D00221A605A603C
:100DD0009A60DA601A610123BB610523FB6102237B
:100DE0003B634FF480037B630823BB63F023FB6307
:100DF00002233B6405237B6407F11803184602F0C5
:100E00005FF80346002B01D000F08CF80F237B60C5
:100E10000223BB600023FB604FF4A0533B614FF4FF
:100E200080537B613B1D0321184602F09DFA034667
:100E3000002B01D000F076F800BF4837BD4680BDDA
:100E400080B58AB000AF00237B610023BB61012322
:100E5000FB6100233B6004237B600023BB60042311
:100E6000FB6000233B6101233B620E237B623B4618
:100E700019460C4801F068FA01237B6100233B60AE
:100E800000237B600023BB600423FB6001233B61E4
:100E90003B461946034801F057FA00BF2837BD46C4
:100EA00080BD00BFD000002080B58AB000AF0E2307
:100EB0007B610023BB610123FB6100233B600023B6
:100EC0007B600023BB600023FB6000233B610123A8
:100ED0003B620E237B623B461946084801F034FA18
:100EE0000F237B6101233B613B461946034801F018
:100EF0002BFA00BF2837BD4680BD00BFF800002098
:100F000080B582B000AF78607B681B68044A93426A
:100F100001D101F0B9FF00BF0837BD4680BD00BF59
:100F20000010004080B400AF72B600BFFEE70000C2
:100F300080B58CB000AF07F11C0300221A605A6024
:100F40009A60DA601A610023BB614C4B1B6B4B4A01
:100F500043F004031363494B1B6B03F00403BB61B1
:100F6000BB6900237B61454B1B6B444A43F0800304
:100F70001363424B1B6B03F080037B617B6900238F
:100F80003B613E4B1B6B3D4A43F0020313633B4BFB
:100F90001B6B03F002033B613B690023FB60374B93
:100FA0001B6B364A43F008031363344B1B6B03F08F
:100FB0000803FB60FB680023BB60304B1B6B2F4AB0
:100FC00043F0400313632D4B1B6B03F04003BB60E6
:100FD000BB6800237B60294B1B6B284A43F001034D
:100FE0001363264B1B6B03F001037B607B680022BD
:100FF00044F28101224802F0ABFE00224021214848
:1010000002F0A6FE4FF40053FB614FF488133B62DD
:1010100000237B6207F11C0319461B4802F0FAFC0F
:1010200044F28103FB6101233B6200237B620023C6
:10103000BB6207F11C031946114802F0EBFC402388
:10104000FB6101233B6200237B620023BB6207F14B
:101050001C0319460B4802F0DDFC8023FB610023D2
:101060003B6200237B6207F11C031946054802F02E
:10107000D1FC00BF3037BD4680BD00BF0038024004
:1010800000040240001802400008024080B500AF92
:10109000244A1421802005F09FFF0346224A136052
:1010A000224A1421802005F097FF0346204A13604E
:1010B000204A1421802005F08FFF03461E4A13604A
:1010C0001E4A1421802005F087FF03461C4A136046
:1010D0001C4A1421802005F07FFF03461A4A136042
:1010E0001A4A00211A4805F09CFE0346194A13606B
:1010F000194A0021194805F094FE0346184A136066
:10110000184A0021184805F08CFE0346174A136060
:10111000174A0021174805F084FE0346164A13605B
:1011200000BF80BD607B0008BC000020787B000809
:10113000C0000020907B0008C4000020A87B0008AD
:10114000C8000020C07B0008CC000020D07A000836
:101150007D110008AC000020F47A0008B9110008E5
:10116000B0000020187B0008F5110008B400002032
:101170003C7B00086D140008B800002080B58EB0DC
:1011800000AF78600A4B186807F1240100230022A1
:1011900005F0F6FF0346002B05D107F1240319469D
:1011A000044800F06BF9012005F0CEFEEAE700BF2D
:1011B000C8000020F800002080B58EB000AF786035
:1011C0000A4B186807F124010023002205F0D8FF1C
:1011D0000346002B05D107F124031946044800F00B
:1011E0004DF9012005F0B0FEEAE700BFC400002081
:1011F000D000002080B59EB000AF786005F009FEF9
:10120000024613469B0013445B001A468D4BA3FB1A
:1012100002239B097B6605F0FCFD0346642202FB6A
:1012200003F3884AA2FB03239B093B6605F0F1FD0B
:1012300003464FF47A7202FB03F3824AA2FB0323B4
:101240009B09FB65804BBB65804B7B654FF00003C2
:101250007B67796D7E48FFF77DF903463B6505F0B6
:10126000C3FD38673B6FFB663B6FBB66FFF77AFCDD
:1012700007F1300300221A605A609A60DA601A613E
:10128000786F06F085FA03464FF07E511846FEF758
:10129000A5FF0346B96D1846FFF7A8F803464FF0BF
:1012A0007C511846FFF7A2F80346FB64396D786F4E
:1012B000FEF794FF03467B676649786FFFF748FAAD
:1012C0000346002B05D06349786FFEF785FF034680
:1012D0007B674FF07851F86CFFF73CF903461846EE
:1012E000FFF770FA0346A7F84A30012387F8303039
:1012F000594B7B63082387F83130012387F83C3052
:10130000022387F83D30032387F83E30B7F84A3090
:10131000DBB287F83F30B7F84A301B0A9BB2DBB22A
:1013200087F84030062387F84130072387F842309A
:10133000082387F84330494B186807F13001002330
:10134000002205F0BDFE464B186807F1300100236E
:10135000002205F0B5FE05F047FD78647A6CFB6E5F
:10136000D31A3A6E9A422FD87B6CFB6607F11C03A6
:1013700000221A605A609A60DA601A6101233B7792
:10138000384B3B6208237B77012387F82F300223F9
:1013900087F82E30032387F82D30042387F82C306C
:1013A000052387F82B30062387F82A30072387F890
:1013B0002930082387F82830284B186807F11C01CA
:1013C0000023002205F07CFE7A6CBB6ED31AFA6D06
:1013D0009A422FD87B6CBB6607F1080300221A6083
:1013E0005A609A60DA601A6101233B721E4BFB60FF
:1013F00008237B720123FB760223BB7603237B76D3
:1014000004233B760523FB750623BB7507237B75F9
:1014100008233B75114B186807F1080100230022CF
:1014200005F04EFE0E4B186807F10801002300225C
:1014300005F046FE3A6F7B6E13443B67386F05F04C
:101440009EFD13E7D34D621000FFFA4500409C4516
:10145000D2537B42DB0FC940FE04F00CC4000020D5
:10146000C80000202100EE1804FFFE1880B582B0ED
:1014700000AF7860012005F067FDFBE780B588B01C
:1014800000AF786039603B681B78002B01D00423E3
:1014900000E000233B613B681B78002B02D13B68D6
:1014A0005B6800E00023BB603B681B78002B02D028
:1014B0003B685B6800E00023FB603B685B78BB61D6
:1014C00000237B6100233B7702E0012005F03CFD17
:1014D000786801F02CF90346002BF6D03B6803F145
:1014E0000C0207F108010023786801F051F8034667
:1014F00018462037BD4680BD80B592B000AFF86079
:101500000B467A60FB72F97A07F1240307F12C028B
:10151000F86801F040F90346002B23D17B6B042BC4
:101520000CBF01230023DBB23B743B7C002B01D0BA
:101530003B6B00E0FB6A7B61FB6BDBB27B7407F10A
:101540001C0307F1240292E8030083E8030001F082
:10155000ADFC0346BB6107F110010023002278684F
:1015600005F0AEFD00BF4837BD4680BD80B582B0F6
:1015700000AF78607B680D4A934207D10C4B1B6823
:101580001A4600217868FFF7B7FF0AE07B68094A2E
:10159000934206D1084B1B681A4600217868FFF772
:1015A000ABFF00BF0837BD4680BD00BFD0000020A4
:1015B000BC000020F8000020C000002080B582B0F0
:1015C00000AF78607B680D4A934207D10C4B1B68D3
:1015D0001A4601217868FFF78FFF0AE07B68094A05
:1015E000934206D1084B1B681A4601217868FFF721
:1015F00083FF00BF0837BD4680BD00BFD00000207C
:10160000CC000020F8000020C000002080B483B08F
:1016100000AF78607B680B4A934204D10A4B5B6849
:101620000133094A53607B68084A934204D1084B4E
:101630005B680133064A536000BF0C37BD4680BC6F
:10164000704700BFD00000209C000020F800002060
:10165000A400002080B500AF174B184A1A60164B43
:1016600006225A60144B00229A60134B0022DA6063
:10167000114B4FF480221A610F4B4FF440125A6104
:101680000D4B00221A760C4B00225A760A4B002290
:101690009A76094B0122DA76074B00221A77064B1D
:1016A00001225A77044800F053FD0346002B01D075
:1016B000FFF738FC00BF80BDD00000200064004070
:1016C00080B500AF174B184A1A60164B06225A60B5
:1016D000144B00229A60134B0022DA60114B4FF436
:1016E00040321A610F4B4FF480025A610D4B0022B9
:1016F0001A760C4B00225A760A4B00229A76094B36
:101700000122DA76074B00221A77064B01225A771C
:10171000044800F01DFD0346002B01D0FFF702FC3A
:1017200000BF80BDF80000200068004080B58CB08C
:1017300000AF786007F11C0300221A605A609A60BB
:10174000DA601A617B681B68634A934256D1634B27
:101750001B680133614A1360604B1B68012B0DD17C
:101760000023BB615E4B1B6C5D4A43F00073136446
:101770005B4B1B6C03F00073BB61BB6900237B6197
:10178000574B1B6B564A43F002031363544B1B6BBE
:1017900003F002037B617B694FF44073FB6102231A
:1017A0003B6200237B620323BB620923FB6207F1D8
:1017B0001C0319464B4802F02DF900220521132085
:1017C00002F0FDF8132002F016F900220521142082
:1017D00002F0F5F8142002F00EF900220521152080
:1017E00002F0EDF8152002F006F90022052116207E
:1017F00002F0E5F8162002F0FEF868E07B681B684E
:10180000394A934263D100233B61354B1B6C344A08
:1018100043F080631364324B1B6C03F080633B61C5
:101820003B692E4B1B6801332C4A13602B4B1B6802
:10183000012B0DD10023FB60294B1B6C284A43F080
:1018400000731364264B1B6C03F00073FB60FB6892
:101850000023BB60224B1B6B214A43F0020313633E
:101860001F4B1B6B03F00203BB60BB684FF440537C
:10187000FB6102233B6200237B620323BB620923DB
:10188000FB6207F11C031946164802F0C3F8002258
:1018900005213F2002F093F83F2002F0ACF800222F
:1018A0000521402002F08BF8402002F0A4F800222D
:1018B0000521412002F083F8412002F09CF800222B
:1018C0000521422002F07BF8422002F094F800BF8C
:1018D0003037BD4680BD00BF0064004020010020BD
:1018E00000380240000402400068004080B500AFAC
:1018F000114B124A1A60104B4FF4E1325A600E4BF2
:1019000000229A600C4B0022DA600B4B00221A6115
:10191000094B0C225A61084B00229A61064B0022A7
:10192000DA61054802F0BDFA0346002B01D0FFF74B
:10193000F9FA00BF80BD00BF24010020004800402C
:1019400080B58AB000AF786007F1140300221A60F6
:101950005A609A60DA601A617B681B681D4A93427C
:1019600034D100233B611C4B1B6C1B4A43F4802386
:101970001364194B1B6C03F480233B613B69002308
:10198000FB60154B1B6B144A43F008031363124BA7
:101990001B6B03F00803FB60FB684FF440737B6133
:1019A0000223BB610023FB6103233B6207237B62AD
:1019B00007F114031946094802F02CF8002205210A
:1019C000272001F0FCFF272002F015F800BF283780
:1019D000BD4680BD0048004000380240000C024077
:1019E00080B400AFFEE780B400AFFEE780B400AF84
:1019F000FEE780B400AFFEE780B400AFFEE780B43E
:101A000000AF00BFBD4680BC7047000080B500AF8E
:101A1000024801F006F800BF80BD00BFD0000020E2
:101A200080B500AF024800F0FCFF00BF80BD00BFE2
:101A3000D000002080B500AF024800F0F2FF00BFE8
:101A400080BD00BFD000002080B500AF024800F08C
:101A5000E8FF00BF80BD00BFD000002080B500AF10
:101A6000024802F06FFA00BF80BD00BF24010020D1
:101A700080B500AF024800F09BF900BF80BD00BFF9
:101A80006C01002080B500AF024800F0CAFF00BF23
:101A900080BD00BFF800002080B500AF024800F014
:101AA000C0FF00BF80BD00BFF800002080B500AFC0
:101AB000024800F0B6FF00BF80BD00BFF800002064
:101AC00080B500AF024800F0ACFF00BF80BD00BF92
:101AD000F800002080B582B000AF00237B60124B7D
:101AE0005B6C114A43F4804353640F4B5B6C03F40B
:101AF00080437B607B6800233B600B4B1B6C0A4A76
:101B000043F080531364084B1B6C03F080533B601D
:101B10003B6800220F216FF0010001F050FF00BF71
:101B20000837BD4680BD00BF0038024080B58EB08A
:101B300000AF78600023FB620023BB620023FB60E0
:101B4000334B1B6C324A43F010031364304B1B6C55
:101B500003F01003FB60FB6807F1100207F11403A8
:101B60001146184601F046FE3B6AFB62FB6A002BF9
:101B700003D101F0FBFD786304E001F0F7FD0346BB
:101B80005B007B637B6B234AA2FB03239B0C013B23
:101B9000BB62214B214A1A601F4B40F2E732DA60E8
:101BA0001D4ABB6A53601C4B00221A611A4B00226B
:101BB0009A60194B00229A61174800F033F80346E7
:101BC00087F8333097F83330002B1BD1124800F0E0
:101BD00081F8034687F8333097F83330002B11D162
:101BE000362001F008FF7B680F2B08D800227968A7
:101BF000362001F0E4FE0A4A7B68136002E001230C
:101C000087F8333097F8333018463837BD4680BDF3
:101C10000038024083DE1B436C01002000100040AE
:101C20006400002080B582B000AF78607B68002B34
:101C300001D1012341E07B6893F83D30DBB2002BFA
:101C400006D17B68002283F83C20786800F039F8E0
:101C50007B68022283F83D207B681A687B68043326
:101C60001946104600F0B8F97B68012283F8462037
:101C70007B68012283F83E207B68012283F83F20A5
:101C80007B68012283F840207B68012283F8412091
:101C90007B68012283F842207B68012283F843207D
:101CA0007B68012283F844207B68012283F8452069
:101CB0007B68012283F83D20002318460837BD4683
:101CC00080BD80B483B000AF786000BF0C37BD46E4
:101CD00080BC704780B485B000AF78607B6893F8B3
:101CE0003D30DBB2012B01D001234EE07B680222A4
:101CF00083F83D207B681B68DA687B681B6842F0CC
:101D00000102DA607B681B68224A934222D07B681A
:101D10001B68B3F1804F1DD07B681B681E4A93423D
:101D200018D07B681B681D4A934213D07B681B68E0
:101D30001B4A93420ED07B681B681A4A934209D013
:101D40007B681B68184A934204D07B681B68174A5B
:101D5000934211D17B681B689B6803F00703FB600B
:101D6000FB68062B10D07B681B681A687B681B68B1
:101D700042F001021A6007E07B681B681A687B6802
:101D80001B6842F001021A60002318461437BD4652
:101D900080BC704700000140000400400008004083
:101DA000000C0040000401400040014000180040C9
:101DB00080B584B000AF78607B681B68DB68FB602F
:101DC0007B681B681B69BB60BB6803F00203002BC8
:101DD00020D0FB6803F00203002B1BD07B681B683C
:101DE0006FF002021A617B6801221A777B681B6818
:101DF0009B6903F00303002B03D0786800F0D1F84F
:101E000005E0786800F0C4F8786800F0D3F87B68E3
:101E100000221A77BB6803F00403002B20D0FB6874
:101E200003F00403002B1BD07B681B686FF00402D7
:101E30001A617B6802221A777B681B689B6903F42E
:101E40004073002B03D0786800F0ABF805E07868A9
:101E500000F09EF8786800F0ADF87B6800221A77F1
:101E6000BB6803F00803002B20D0FB6803F00803D5
:101E7000002B1BD07B681B686FF008021A617B681F
:101E800004221A777B681B68DB6903F00303002BCD
:101E900003D0786800F085F805E0786800F078F8FD
:101EA000786800F087F87B6800221A77BB6803F037
:101EB0001003002B20D0FB6803F01003002B1BD075
:101EC0007B681B686FF010021A617B6808221A7722
:101ED0007B681B68DB6903F44073002B03D07868D0
:101EE00000F05FF805E0786800F052F8786800F0DC
:101EF00061F87B6800221A77BB6803F00103002BAE
:101F00000CD0FB6803F00103002B07D07B681B6833
:101F10006FF001021A617868FEF7F2FFBB6803F008
:101F20008003002B0CD0FB6803F08003002B07D04C
:101F30007B681B686FF080021A61786800F0FFF818
:101F4000BB6803F04003002B0CD0FB6803F0400398
:101F5000002B07D07B681B686FF040021A6178681D
:101F600000F031F8BB6803F02003002B0CD0FB68B5
:101F700003F02003002B07D07B681B686FF0200262
:101F80001A61786800F0D2F800BF1037BD4680BDF6
:101F900080B483B000AF786000BF0C37BD4680BC12
:101FA000704780B483B000AF786000BF0C37BD4687
:101FB00080BC704780B483B000AF786000BF0C373E
:101FC000BD4680BC704780B483B000AF786000BF6E
:101FD0000C37BD4680BC704780B485B000AF7860D8
:101FE00039607B681B68FB607B68454A934213D06D
:101FF0007B68B3F1804F0FD07B68424A93420BD08D
:102000007B68414A934207D07B68404A934203D0A1
:102010007B683F4A934208D1FB6823F07003FB6062
:102020003B685B68FA681343FB607B68344A934201
:102030002BD07B68B3F1804F27D07B68314A934225
:1020400023D07B68304A93421FD07B682F4A93424B
:102050001BD07B682E4A934217D07B682D4A93424F
:1020600013D07B682C4A93420FD07B682B4A934253
:102070000BD07B682A4A934207D07B68294A934257
:1020800003D07B68284A934208D1FB6823F440734D
:10209000FB603B68DB68FA681343FB60FB6823F076
:1020A00080023B685B691343FB607B68FA681A60D7
:1020B0003B689A687B68DA623B681A687B689A6258
:1020C0007B680F4A934203D07B68114A934203D145
:1020D0003B681A697B681A637B6801225A617B68D6
:1020E0001B6903F00103012B05D17B681B6923F0F9
:1020F00001027B681A6100BF1437BD4680BC70477F
:10210000000001400004004000080040000C0040B6
:1021100000040140004001400044014000480140EB
:1021200000180040001C00400020004080B483B034
:1021300000AF786000BF0C37BD4680BC704780B4EC
:1021400083B000AF786000BF0C37BD4680BC7047DD
:1021500080B584B000AF78607B68002B01D101238B
:10216000EDE07B6893F82030DBB2002B02D1786879
:10217000FFF7DCFA7B681B681A687B681B6842F013
:1021800001021A6000F092FEF86012E000F08EFE8C
:102190000246FB68D31A0A2B0BD97B685B6A43F4AF
:1021A00000327B685A627B68052283F82020012375
:1021B000C5E07B681B685B6803F00103002BE5D07A
:1021C0007B681B681A687B681B6822F002021A6031
:1021D00000F06CFEF86012E000F068FE0246FB685A
:1021E000D31A0A2B0BD97B685B6A43F400327B68F5
:1021F0005A627B68052283F8202001239FE07B68D8
:102200001B685B6803F00203002BE5D17B681B7E33
:10221000012B08D17B681B681A687B681B6842F039
:1022200080021A6007E07B681B681A687B681B687D
:1022300022F080021A607B685B7E012B08D17B68EC
:102240001B681A687B681B6842F040021A6007E04E
:102250007B681B681A687B681B6822F040021A6062
:102260007B689B7E012B08D17B681B681A687B68A2
:102270001B6842F020021A6007E07B681B681A683E
:102280007B681B6822F020021A607B68DB7E012BD2
:1022900008D17B681B681A687B681B6822F01002F3
:1022A0001A6007E07B681B681A687B681B6842F04D
:1022B00010021A607B681B7F012B08D17B681B68AA
:1022C0001A687B681B6842F008021A6007E07B68A6
:1022D0001B681A687B681B6822F008021A607B681A
:1022E0005B7F012B08D17B681B681A687B681B68C1
:1022F00042F004021A6007E07B681B681A687B687A
:102300001B6822F004021A607B689A687B68DB68AD
:102310001A437B681B691A437B685B6942EA0301C5
:102320007B685B685A1E7B681B680A43DA617B68BE
:1023300000225A627B68012283F82020002318467D
:102340001037BD4680BD000080B487B000AF786014
:1023500039607B681B687B617B6893F82030FB7475
:10236000FB7C012B03D0FB7C022B40F0BE80654B35
:102370007B617B69D3F8003243F001027B69C3F8CB
:1023800000227B69D3F8003223F47C527B69C3F8C6
:1023900000227B69D3F800223B685B6A1B021A4368
:1023A0007B69C3F800223B685B6903F01F030122CD
:1023B00002FA03F3FB607B69D3F81C22FB68DB4362
:1023C0001A407B69C3F81C223B68DB69002B23D1D0
:1023D0007B69D3F80C22FB68DB431A407B69C3F8A6
:1023E0000C223B68DB6819043B685B689BB23A6867
:1023F000526919437B69483243F832103B689B6845
:1024000019043B681B689AB23B685B690A437969A7
:102410004833DB000B445A603B68DB69012B22D157
:102420007B69D3F80C22FB681A437B69C3F80C2242
:102430003B681B6819043B685B689BB23A68526949
:1024400019437B69483243F832103B689B68190492
:102450003B68DB689AB23B685B690A437969483339
:10246000DB000B445A603B689B69002B09D17B69F8
:10247000D3F80422FB68DB431A407B69C3F80422CB
:1024800007E07B69D3F80422FB681A437B69C3F831
:1024900004223B681B69002B09D17B69D3F8142205
:1024A000FB68DB431A407B69C3F8142207E07B69B1
:1024B000D3F81422FB681A437B69C3F814223B68E3
:1024C0001B6A012B07D17B69D3F81C22FB681A43D6
:1024D0007B69C3F81C227B69D3F8003223F0010228
:1024E0007B69C3F80022002306E07B685B6A43F443
:1024F00080227B685A62012318461C37BD4680BC87
:10250000704700BF0064004080B584B000AF7860C1
:102510007B6893F82030DBB2012B2ED17B6802223E
:1025200083F820207B681B681A687B681B6822F090
:1025300001021A6000F0BAFCF86012E000F0B6FC8C
:102540000246FB68D31A0A2B0BD97B685B6A43F4FB
:1025500000327B685A627B68052283F820200123C1
:1025600012E07B681B685B6803F00103002BE5D178
:102570007B6800225A62002306E07B685B6A43F4B2
:1025800000227B685A62012318461037BD4680BD81
:1025900080B489B000AFF860B9607A603B60FB68D6
:1025A00093F82030FB77FB681B689B68BB61FB7F5F
:1025B000012B03D0FB7F022B40F0AD80BB6903F001
:1025C0008063002B0AD1BB6903F00063002B05D1A7
:1025D000BB6903F08053002B00F09580BB691B0E94
:1025E00003F003037B6101227B699A403B681A6018
:1025F000BB689B68002B0DD1BB681B685A05BB6884
:10260000DB68F96809681A437B6918331B010B44BE
:102610001A600FE0BB685B68DA00BB689B681A430E
:10262000BB68DB68F96809681A437B6918331B01CA
:102630000B441A60FB681968BB681A697B69183318
:102640001B010B4404331A60BB681B7D012B11D1A5
:10265000FB681A687B6918331B01134404331B6839
:10266000FA68116843F480727B6918331B010B44CC
:1026700004331A607B6807331B781A067B680633BD
:102680001B781B041A437B6805331B781B0213431A
:102690007A68043212781046FA68116843EA000238
:1026A0007B691B010B4403F5C6731A607B68033317
:1026B0001B781A067B6802331B781B041A437B685D
:1026C00001331B781B0213437A6812781046FA68AC
:1026D000116843EA00027B691B010B4403F5C473D4
:1026E0001A60FB681A687B6918331B0113441B6866
:1026F000FA68116843F001027B6918331B010B442F
:102700001A6000230EE0FB685B6A43F40012FB686A
:102710005A62012306E0FB685B6A43F48022FB688F
:102720005A62012318462437BD4680BC704780B4E6
:1027300085B000AF78600023FB607B6893F82030A1
:10274000FB72FB7A012B02D0FB7A022B1DD17B6836
:102750001B689B6803F08063002B02D0FB68013389
:10276000FB607B681B689B6803F00063002B02D052
:10277000FB680133FB607B681B689B6803F0805338
:10278000002B02D0FB680133FB60FB68184614374E
:10279000BD4680BC704780B487B000AFF860B960B8
:1027A0007A603B60FB6893F82030FB75FB7D012B62
:1027B00003D0FB7D022B40F00381BB68002B0ED1C0
:1027C000FB681B68DB6803F00303002B16D1FB6872
:1027D0005B6A43F40012FB685A620123F7E0FB686E
:1027E0001B681B6903F00303002B07D1FB685B6ABE
:1027F00043F40012FB685A620123E8E0FB681A68A0
:10280000BB681B331B0113441B6803F004027B6885
:102810009A607B689B68002B0CD1FB681A68BB68C8
:102820001B331B0113441B685B0DC3F30A027B6857
:102830001A600BE0FB681A68BB681B331B0113446A
:102840001B68DB0823F060427B685A60FB681A68EB
:10285000BB681B331B0113441B6803F002027B6837
:10286000DA60FB681A68BB681B331B01134404332E
:102870001B6803F00803002B03D07B6808221A6151
:102880000BE0FB681A68BB681B331B01134404335D
:102890001B6803F00F027B681A61FB681A68BB684B
:1028A0001B331B01134404331B681B0ADAB27B6819
:1028B0009A61FB681A68BB681B331B01134404331D
:1028C0001B681B0C9AB27B685A61FB681A68BB686C
:1028D0001B01134403F5DC731B68DAB23B681A7002
:1028E000FB681A68BB681B01134403F5DC731B68A3
:1028F0001A0A3B680133D2B21A70FB681A68BB68C7
:102900001B01134403F5DC731B681A0C3B6802338C
:10291000D2B21A70FB681A68BB681B01134403F536
:10292000DC731B681A0E3B680333D2B21A70FB6863
:102930001A68BB681B01134403F5DE731A683B6811
:102940000433D2B21A70FB681A68BB681B011344C7
:1029500003F5DE731B681A0A3B680533D2B21A709E
:10296000FB681A68BB681B01134403F5DE731B6820
:102970001A0C3B680633D2B21A70FB681A68BB683F
:102980001B01134403F5DE731B681A0E3B68073303
:10299000D2B21A70BB68002B08D1FB681B68DA68DA
:1029A000FB681B6842F02002DA6007E0FB681B68E6
:1029B0001A69FB681B6842F020021A61002306E0D6
:1029C000FB685B6A43F48022FB685A620123184665
:1029D0001C37BD4680BC704780B485B000AF7860BE
:1029E00039607B6893F82030FB73FB7B012B02D0AE
:1029F000FB7B022B09D17B681B6859697B681B68CC
:102A00003A680A435A61002306E07B685B6A43F434
:102A100080227B685A62012318461437BD4680BC69
:102A2000704780B58AB000AF786000237B627B6816
:102A30001B685B693B627B681B685B68FB617B684A
:102A40001B689B68BB617B681B68DB687B617B687C
:102A50001B681B693B617B681B689B69FB603B6A69
:102A600003F00103002B7CD0BB6903F00103002BB2
:102A700023D07B681B6801229A60BB6903F00203C4
:102A8000002B03D0786800F083F916E0BB6903F0EF
:102A90000403002B04D07B6A43F400637B620CE0E8
:102AA000BB6903F00803002B04D07B6A43F4805316
:102AB0007B6202E0786800F086F9BB6903F48073FA
:102AC000002B24D07B681B684FF480729A60BB692E
:102AD00003F40073002B03D0786800F062F916E06D
:102AE000BB6903F48063002B04D07B6A43F400537A
:102AF0007B620CE0BB6903F40063002B04D07B6AAB
:102B000043F480437B6202E0786800F065F9BB69BA
:102B100003F48033002B24D07B681B684FF4803291
:102B20009A60BB6903F40033002B03D0786800F08F
:102B300041F916E0BB6903F48023002B04D07B6AC3
:102B400043F400437B620CE0BB6903F40023002BD9
:102B500004D07B6A43F480337B6202E0786800F043
:102B600044F93B6A03F00803002B0CD07B6903F0A7
:102B70001003002B07D07B6A43F400737B627B68F1
:102B80001B681022DA603B6A03F00403002B0BD0B1
:102B90007B6903F00803002B06D07B681B680822C2
:102BA000DA60786800F02AF93B6A03F00203002B30
:102BB00009D07B681B68DB6803F00303002B02D09D
:102BC0007868FEF7D3FC3B6A03F04003002B0CD07F
:102BD0003B6903F01003002B07D07B6A43F480634A
:102BE0007B627B681B6810221A613B6A03F020033A
:102BF000002B0BD03B6903F00803002B06D07B6849
:102C00001B6808221A61786800F001F93B6A03F03A
:102C10001003002B09D07B681B681B6903F00303BA
:102C2000002B02D07868FEF7C9FC3B6A03F400333E
:102C3000002B0BD0FB6903F01003002B06D07B6840
:102C40001B6810225A60786800F0EAF83B6A03F4C7
:102C50008033002B0BD0FB6903F00803002B06D058
:102C60007B681B6808225A60786800F0E2F83B6ACB
:102C700003F40043002B7BD0FB6903F00403002B1B
:102C800072D03B6A03F48073002B08D0FB6803F01A
:102C90000103002B03D07B6A43F001037B623B6A94
:102CA00003F40073002B08D0FB6803F00203002B31
:102CB00003D07B6A43F002037B623B6A03F48063C8
:102CC000002B08D0FB6803F00403002B03D07B6AC1
:102CD00043F004037B623B6A03F40063002B43D0A0
:102CE000FB6803F07003002B3ED0FB6803F0700319
:102CF000602B2BD0602B2ED8502B22D0502B2AD8D3
:102D0000402B19D0402B26D8302B10D0302B22D876
:102D1000102B02D0202B05D01DE07B6A43F0080366
:102D20007B6219E07B6A43F010037B6214E07B6AEC
:102D300043F020037B620FE07B6A43F040037B6239
:102D40000AE07B6A43F080037B6205E07B6A43F420
:102D500080737B6200E000BF7B681B689A697B68B8
:102D60001B6822F070029A617B681B6804225A601B
:102D70007B6A002B08D07B685A6A7B6A1A437B689F
:102D80005A627868FEF742FC00BF2837BD4680BD16
:102D900080B483B000AF786000BF0C37BD4680BC04
:102DA000704780B483B000AF786000BF0C37BD4679
:102DB00080BC704780B483B000AF786000BF0C3730
:102DC000BD4680BC704780B483B000AF786000BF60
:102DD0000C37BD4680BC704780B483B000AF7860CC
:102DE00000BF0C37BD4680BC704780B483B000AFD5
:102DF000786000BF0C37BD4680BC704780B483B09C
:102E000000AF786000BF0C37BD4680BC704780B40F
:102E100083B000AF786000BF0C37BD4680BC704700
:102E200080B483B000AF786000BF0C37BD4680BC73
:102E3000704780B483B000AF786000BF0C37BD46E8
:102E400080BC704780B500AF0E4B1B680D4A43F441
:102E5000007313600B4B1B680A4A43F480631360D2
:102E6000084B1B68074A43F480731360032000F08B
:102E70009BFD0F20FEF75AFEFEF72CFE002318469E
:102E800080BD00BF003C024080B400AF054B1B7802
:102E90001A46054B1B681344034A136000BFBD4626
:102EA00080BC704768000020B401002080B400AFEF
:102EB000024B1B681846BD4680BC7047B401002019
:102EC00080B58AB000AF78607B68002B01D1012308
:102ED0003BE27B681B6803F00103002B50D09E4B44
:102EE0009B6803F00C03042B0CD09B4B9B6803F0F6
:102EF0000C03082B12D1984B5B6803F48003B3F5E5
:102F0000800F0BD1944B1B6803F40033002B36D099
:102F10007B685B68002B32D1012316E27B685A681C
:102F20008E4BD2B21A707B685B68002B13D0FFF710
:102F3000BDFF386208E0FFF7B9FF02463B6AD31ACB
:102F4000642B01D9032300E2834B1B6803F4003395
:102F5000002BF0D014E0FFF7A9FF386208E0FFF77C
:102F6000A5FF02463B6AD31A642B01D90323ECE187
:102F7000794B1B6803F40033002BF0D100E000BF55
:102F80007B681B6803F00203002B77D0724B9B68B1
:102F900003F00C03002B0BD06F4B9B6803F00C036A
:102FA000082B26D16C4B5B6803F48003002B20D1E7
:102FB000694B1B6803F00203002B05D07B68DB68BC
:102FC000012B01D00123C0E1634B1B6823F0F80201
:102FD0007B681B69F821B961B96991FAA1F179613E
:102FE0007969B1FA81F1C9B28B405B4913430B6037
:102FF00044E07B68DB68002B2AD0594B01221A6021
:10300000FFF754FF386208E0FFF750FF02463B6AC3
:10301000D31A022B01D9032397E14F4B1B6803F00E
:103020000203002BF0D04C4B1B6823F0F8027B68A6
:103030001B69F8213961396991FAA1F1F960F968E0
:10304000B1FA81F1C9B28B40434913430B6015E0DB
:10305000434B00221A60FFF729FF386208E0FFF7B0
:1030600025FF02463B6AD31A022B01D903236CE1E8
:10307000394B1B6803F00203002BF0D17B681B68FF
:1030800003F00803002B30D07B685B69002B16D05F
:10309000344B01221A60FFF709FF386208E0FFF79E
:1030A00005FF02463B6AD31A022B01D903234CE1E8
:1030B000294B5B6F03F00203002BF0D015E0294B86
:1030C00000221A60FFF7F2FE386208E0FFF7EEFE1A
:1030D00002463B6AD31A022B01D9032335E11E4B6A
:1030E0005B6F03F00203002BF0D17B681B6803F0D9
:1030F0000403002B00F08780002387F82730164B4D
:103100001B6C03F08053002B10D10023BB60124BCB
:103110001B6C114A43F0805313640F4B1B6C03F07C
:103120008053BB60BB68012387F827300E4B1B68B8
:103130000D4A43F4807313600B4B1B6803F48073D8
:10314000002B22D1084B1B68074A43F4807313609D
:10315000FFF7ACFE386212E000380240023802404D
:1031600000004742800E474200700040FFF79EFE7D
:1031700002463B6AD31A022B01D90323E5E0754BC3
:103180001B6803F48073002BF0D07B689A68724B45
:10319000D2B21A707B689B68002B15D0FFF786FEB1
:1031A00038620AE0FFF782FE02463B6AD31A41F218
:1031B0008832934201D90323C7E0684B1B6F03F0A9
:1031C0000203002BEED014E0FFF770FE38620AE035
:1031D000FFF76CFE02463B6AD31A41F288329342F3
:1031E00001D90323B1E05D4B1B6F03F00203002BF9
:1031F000EED197F82730012B05D1584B1B6C574A5D
:1032000023F0805313647B689B69002B00F09C8043
:10321000524B9B6803F00C03082B61D07B689B69C1
:10322000022B46D14E4B00221A60FFF73FFE386258
:1032300008E0FFF73BFE02463B6AD31A642B01D934
:10324000032382E0454B1B6803F00073002BF0D191
:10325000424B5A68434B13407A68D1697A68126AC4
:1032600011437A68526A920111437A68D26A12064F
:1032700011437A68926A5208013A12040A433749A4
:1032800013434B60364B01221A60FFF70FFE386282
:1032900008E0FFF70BFE02463B6AD31A642B01D904
:1032A000032352E02D4B1B6803F00073002BF0D07A
:1032B0004AE02B4B00221A60FFF7F8FD386208E065
:1032C000FFF7F4FD02463B6AD31A642B01D90323AE
:1032D0003BE0224B1B6803F00073002BF0D133E07E
:1032E0007B689B69012B01D101232EE01B4B5B689E
:1032F000FB61FB6903F480027B68DB699A4221D1A0
:10330000FB6903F03F027B681B6A9A421AD1FA6993
:1033100047F6C07313407A68526A9201934211D102
:10332000FB6903F440327B689B6A5B08013B1B042A
:103330009A4207D1FB6903F070627B68DB6A1B0667
:103340009A4201D0012300E0002318462837BD46E9
:1033500080BD00BF0070004070380240003802405D
:10336000600047420080BCF080B586B000AF786056
:1033700039607B68002B01D10123D2E06B4B1B68C5
:1033800003F00F033A689A420CD9684B3A68D2B2FC
:103390001A70664B1B6803F00F033A689A4201D01B
:1033A0000123BEE07B681B6803F00203002B20D0E2
:1033B0007B681B6803F00403002B05D05C4B9B6803
:1033C0005B4A43F4E05393607B681B6803F0080397
:1033D000002B05D0564B9B68554A43F460439360DD
:1033E000534B9B6823F0F0027B689B685049134362
:1033F0008B607B681B6803F00103002B40D07B6867
:103400005B68012B07D14A4B1B6803F40033002B88
:1034100015D1012385E07B685B68022B07D1444B03
:103420001B6803F00073002B09D1012379E0404BA6
:103430001B6803F00203002B01D1012371E03C4B18
:103440009B6823F003027B685B68394913438B60F8
:10345000FFF72CFD78610AE0FFF728FD02467B6943
:10346000D31A41F28832934201D9032359E0304BF9
:103470009B6803F00C027B685B689B009A42EBD16F
:103480002A4B1B6803F00F033A689A420CD2274B71
:103490003A68D2B21A70254B1B6803F00F033A68E2
:1034A0009A4201D001233CE07B681B6803F00403CF
:1034B000002B08D01E4B9B6823F4E0527B68DB682E
:1034C0001B4913438B607B681B6803F00803002BC8
:1034D00009D0174B9B6823F460427B681B69DB00B3
:1034E000134913438B6000F02BF80146104B9B6887
:1034F00003F0F003F0223A613A6992FAA2F2FA601C
:10350000FA68B2FA82F2D2B2D3400A4AD35C21FA04
:1035100003F3094A1360094B1B681846FEF706FBC4
:10352000002318461837BD4680BD00BF003C02404E
:1035300000380240D87B00086C00002064000020A6
:103540002DE9B04F94B000AF00237B640023FB64EF
:1035500000233B640023BB647C4B9B6803F00C039B
:10356000082B0DD0082B00F2E780002B02D0042B93
:1035700003D0E1E0764BBB64E1E0764BBB64DEE078
:10358000724B5B6803F03F037B64704B5B6803F432
:103590008003002B65D06D4B5B689B090022BB63E9
:1035A000FA63BB6BC3F308033B6300237B63D7E978
:1035B0000C4522462B464FF000004FF00001590108
:1035C00041EAD261500102460B462146511A396147
:1035D000294663EB01037B614FF000024FF00003CB
:1035E000D7E904AB59468B01514643EA91635146F2
:1035F0008A01D446B2EB0C08594663EB01094FF03F
:1036000000024FF000034FEAC90343EA58734FEA40
:10361000C80290469946234618EB0303BB602B462D
:1036200049EB0303FB604FF000024FF00003D7E9C2
:10363000024529464B0220462946044643EAD45314
:1036400001464A02104619467B6C0022BB62FA62B0
:10365000D7E90A23FDF7D6F802460B461346FB646A
:103660005CE03A4B5B689B09002218461146C0F3A8
:1036700008033B6200237B62D7E9088942464B4638
:103680004FF000004FF00001590141EAD2615001B2
:1036900002460B46C446B2EB0C0A404649468C46ED
:1036A00063EB0C0B4FF000024FF000034FEA8B135B
:1036B00043EA9A634FEA8A12B2EB0A0463EB0B0502
:1036C0004FF000024FF00003EB0043EA5473E200B6
:1036D00014461D460346E3183B600B4645EB0303C7
:1036E0007B604FF000024FF00003D7E90045294608
:1036F0008B0220462946044643EA945301468A0237
:10370000104619467B6C0022BB61FA61D7E906239B
:10371000FDF778F802460B461346FB640B4B5B68DB
:103720001B0C03F0030301335B003B64FA6C3B6C3E
:10373000B2FBF3F3BB6402E0054BBB6400BFBB6CA0
:1037400018465037BD46BDE8B08F00BF0038024074
:103750000024F40000127A0080B400AF024B1B6812
:103760001846BD4680BC70476C00002080B582B012
:1037700000AFFFF7F1FF01460B4B9B6803F4E053EA
:103780004FF4E0527A607A6892FAA2F23A603A68AC
:10379000B2FA82F2D2B2D340044AD35C21FA03F3E4
:1037A00018460837BD4680BD00380240E87B000857
:1037B00080B582B000AFFFF7CFFF01460B4B9B688F
:1037C00003F460434FF460427A607A6892FAA2F29E
:1037D0003A603A68B2FA82F2D2B2D340044AD35C79
:1037E00021FA03F318460837BD4680BD0038024071
:1037F000E87B000880B483B000AF786039607B68F4
:103800000F221A60114B9B6803F003027B685A6019
:103810000E4B9B6803F0F0027B689A600B4B9B6831
:1038200003F4E0527B68DA60084B9B68DB0803F422
:10383000E0527B681A61064B1B6803F00F023B687D
:103840001A6000BF0C37BD4680BC7047003802408C
:10385000003C024080B485B000AF78607B6803F024
:103860000703FB600C4BDB68BB60BA684FF6FF03D5
:103870001340BB60FB681A02BB68134343F0BF638D
:1038800043F40033BB60044ABB68D36000BF143705
:10389000BD4680BC704700BF00ED00E080B400AFC3
:1038A000044BDB681B0A03F007031846BD4680BCC7
:1038B000704700BF00ED00E080B483B000AF034666
:1038C000FB7197F90730002B0BDBFB7903F01F022C
:1038D000064997F907305B09012000FA02F241F826
:1038E000232000BF0C37BD4680BC704700E100E0DC
:1038F00080B483B000AF03463960FB7197F907309D
:10390000002B0ADB3B68DAB20C4997F90730120149
:10391000D2B20B4483F800230AE03B68DAB20849CC
:10392000FB7903F00F03043B1201D2B20B441A7669
:1039300000BF0C37BD4680BC704700BF00E100E00F
:1039400000ED00E080B489B000AFF860B9607A6043
:10395000FB6803F00703FB61FB69C3F10703042B5A
:1039600028BF0423BB61FB690433062B02D9FB6922
:10397000033B00E000237B614FF0FF32BB6902FA9A
:1039800003F3DA43BB681A407B699A404FF0FF317A
:103990007B6901FA03F3D9437B680B401343184654
:1039A0002437BD4680BC704780B582B000AF7860D8
:1039B0007868FFF74FFF00BF0837BD4680BD80B570
:1039C00086B000AF0346B9607A60FB7300237B6169
:1039D000FFF764FF78617A68B9687869FFF7B2FF2A
:1039E000024697F90F3011461846FFF781FF00BFD6
:1039F0001837BD4680BD80B582B000AF0346FB716D
:103A000097F907301846FFF757FF00BF0837BD4644
:103A100080BD000080B487B000AF786039600023BB
:103A20007B616FE13B681A6801217B6901FA03F34E
:103A30001340FB60FB68002B00F061813B685B6812
:103A400003F00303012B05D03B685B6803F003031D
:103A5000022B30D17B689B683B617B695B00032252
:103A600002FA03F3DB433A6913403B613B68DA68CF
:103A70007B695B0002FA03F33A6913433B617B689D
:103A80003A699A607B685B683B6101227B6902FA54
:103A900003F3DB433A6913403B613B685B681B09F6
:103AA00003F001027B6902FA03F33A6913433B61B5
:103AB0007B683A695A603B685B6803F00303032B39
:103AC00017D07B68DB683B617B695B00032202FAED
:103AD00003F3DB433A6913403B613B689A687B69B7
:103AE0005B0002FA03F33A6913433B617B683A696E
:103AF000DA603B685B6803F00303022B23D17B6928
:103B0000DA087B68083253F822303B617B6903F0A6
:103B100007039B000F2202FA03F3DB433A691340C9
:103B20003B613B681A697B6903F007039B0002FA5B
:103B300003F33A6913433B617B69DA087B68083217
:103B4000396943F822107B681B683B617B695B0025
:103B5000032202FA03F3DB433A6913403B613B68FB
:103B60005B6803F003027B695B0002FA03F33A69C6
:103B700013433B617B683A691A603B685B6803F4F6
:103B80004033002B00F0BB800023BB60644B5B6CB8
:103B9000634A43F480435364614B5B6C03F480439A
:103BA000BB60BB685F4A7B699B08023352F82330D5
:103BB0003B617B6903F003039B000F2202FA03F3CE
:103BC000DB433A6913403B617B68574A934231D0EB
:103BD0007B68564A93422BD07B68554A934225D046
:103BE0007B68544A93421FD07B68534A934219D052
:103BF0007B68524A934213D07B68514A93420DD05E
:103C00007B68504A934207D07B684F4A934201D168
:103C1000082310E009230EE007230CE006230AE046
:103C2000052308E0042306E0032304E0022302E066
:103C3000012300E000237A6902F00302920093401E
:103C40001A463B6913433B6136497B699B08023343
:103C50003A6941F823203D4B9B683B61FB68DB439D
:103C60003A6913403B613B685B6803F48013002BA7
:103C700003D03A69FB6813433B61344A3B69936064
:103C8000324BDB683B61FB68DB433A6913403B61C5
:103C90003B685B6803F40013002B03D03A69FB68B0
:103CA00013433B61294A3B69D360284B5B683B6106
:103CB000FB68DB433A6913403B613B685B6803F494
:103CC0000033002B03D03A69FB6813433B611F4A62
:103CD0003B6953601D4B1B683B61FB68DB433A69E2
:103CE00013403B613B685B6803F48033002B03D0D7
:103CF0003A69FB6813433B61144A3B6913607B6973
:103D000001337B613B681A687B6922FA03F3002B5D
:103D10007FF488AE00BF00BF1C37BD4680BC704733
:103D20000038024000380140000002400004024018
:103D300000080240000C0240001002400014024043
:103D400000180240001C024000200240003C0140DC
:103D500080B483B000AF78600B467B8013467B70E5
:103D60007B78002B03D07A887B689A6103E07B889C
:103D70001A047B689A6100BF0C37BD4680BC70474F
:103D800080B584B000AF78607B689B6DFB60FFF707
:103D90008DF8B8607B6893F83530DBB2022B08D021
:103DA0007B6880225A657B68002283F834200123D7
:103DB00052E07B681B681A687B681B6822F0160259
:103DC0001A607B681B685A697B681B6822F0800256
:103DD0005A617B681B6C002B03D17B689B6C002BAA
:103DE00007D07B681B681A687B681B6822F0080292
:103DF0001A607B681B681A687B681B6822F00102E6
:103E00001A6013E0FFF752F80246BB68D31A052B7D
:103E10000CD97B6820225A657B68032283F8352001
:103E20007B68002283F83420032315E07B681B683D
:103E30001B6803F00103002BE4D17B68DB6D3F229C
:103E40009A40FB689A607B68012283F835207B6882
:103E5000002283F83420002318461037BD4680BD69
:103E600080B483B000AF78607B6893F83530DBB204
:103E7000022B04D07B6880225A6501230CE07B680A
:103E8000052283F835207B681B681A687B681B68ED
:103E900022F001021A60002318460C37BD4680BC90
:103EA000704780B582B000AF78607B68002B01D18D
:103EB000012342E07B6893F84130DBB2002B06D14E
:103EC0007B68002283F840207868FDF739FD7B6825
:103ED000242283F841207B681B68DA687B681B68B2
:103EE00022F40052DA60786800F080FC7B681B687E
:103EF0001A697B681B6822F490421A617B681B6810
:103F00005A697B681B6822F02A025A617B681B6829
:103F1000DA687B681B6842F40052DA607B68002232
:103F20005A647B68202283F841207B68202283F832
:103F300042207B6800225A63002318460837BD469A
:103F400080BD000080B5BAB000AF78607B681B68A8
:103F50001B68C7F8E4307B681B68DB68C7F8E03093
:103F60007B681B685B69C7F8DC300023C7F8D83072
:103F70000023C7F8D430D7F8E43003F00F03C7F8B4
:103F8000D830D7F8D830002B0FD1D7F8E43003F071
:103F90002003002B09D0D7F8E03003F02003002BDA
:103FA00003D0786800F063FB5BE2D7F8D830002BD1
:103FB00000F0DE80D7F8DC3003F00103002B06D1DF
:103FC000D7F8E03003F49073002B00F0D180D7F8DD
:103FD000E43003F00103002B0BD0D7F8E03003F4FA
:103FE0008073002B05D07B685B6C43F001027B681B
:103FF0005A64D7F8E43003F00403002B0BD0D7F851
:10400000DC3003F00103002B05D07B685B6C43F0D0
:1040100002027B685A64D7F8E43003F00203002BF5
:104020000BD0D7F8DC3003F00103002B05D07B6800
:104030005B6C43F004027B685A64D7F8E43003F009
:104040000803002B11D0D7F8E03003F02003002B39
:1040500005D1D7F8DC3003F00103002B05D07B68D5
:104060005B6C43F008027B685A647B685B6C002BD6
:1040700000F0F281D7F8E43003F02003002B08D0E1
:10408000D7F8E03003F02003002B02D0786800F06E
:10409000EEFA7B681B685B6903F04003402B0CBFA2
:1040A00001230023DBB2C7F8D4307B685B6C03F0DC
:1040B0000803002B03D1D7F8D430002B4FD07868F9
:1040C00000F0F8F97B681B685B6903F04003402B44
:1040D00041D17B681B681433C7F89C30D7F89C30FB
:1040E00053E8003FC7F89830D7F8983023F04003E2
:1040F000C7F8D0307B681B681433D7F8D020C7F8D6
:10410000A820C7F8A430D7F8A410D7F8A82041E811
:104110000023C7F8A030D7F8A030002BD9D17B6896
:10412000DB6B002B13D07B68DB6B7E4A1A657B68E8
:10413000DB6B1846FFF794FE0346002B16D07B6816
:10414000DB6B1B6D7A68D26B104698470EE078687F
:1041500000F09CF90AE0786800F098F906E07868C9
:1041600000F094F97B6800225A6475E100BF73E1A6
:104170007B681B6B012B40F04F81D7F8E43003F0D4
:104180001003002B00F04881D7F8E03003F0100353
:10419000002B00F041810023BB607B681B681B681B
:1041A000BB607B681B685B68BB60BB687B681B6827
:1041B0005B6903F04003402B40F0B6807B68DB6B0B
:1041C0001B685B68A7F8BE30B7F8BE30002B00F064
:1041D00045817B689B8DB7F8BE209A4280F03E8176
:1041E0007B68B7F8BE20DA857B68DB6BDB69B3F5EB
:1041F000807F00F088807B681B680C33C7F88830AC
:10420000D7F8883053E8003FC7F88430D7F88430B7
:1042100023F48073C7F8B8307B681B680C33D7F879
:10422000B820C7F89420C7F89030D7F89010D7F886
:10423000942041E80023C7F88C30D7F88C30002B4D
:10424000D9D17B681B6814337B677B6F53E8003FD1
:104250003B673B6F23F00103C7F8B4307B681B68F2
:104260001433D7F8B420C7F88020FB67F96FD7F86C
:10427000802041E80023BB67BB6F002BE1D17B6846
:104280001B6814333B663B6E53E8003FFB65FB6DD8
:1042900023F04003C7F8B0307B681B681433D7F8AD
:1042A000B020FA66BB66B96EFA6E41E800237B6601
:1042B0007B6E002BE3D17B68202283F842207B6851
:1042C00000221A637B681B680C33FB64FB6C53E8A9
:1042D000003FBB64BB6C23F01003C7F8AC307B68B5
:1042E0001B680C33D7F8AC20BA657B65796DBA6D65
:1042F00041E800233B653B6D002BE3D17B68DB6B22
:104300001846FFF73DFD7B6802225A637B689A8D51
:104310007B68DB8D9BB2D31A9BB21946786800F09C
:10432000BEF89BE0794500087B689A8D7B68DB8D41
:104330009BB2D31AA7F8CE307B68DB8D9BB2002BE3
:1043400000F08E80B7F8CE30002B00F089807B68BB
:104350001B680C33BB63BB6B53E8003F7B637B6B19
:1043600023F49073C7F8C8307B681B680C33D7F808
:10437000C8207A643B64396C7A6C41E80023FB63A3
:10438000FB6B002BE3D17B681B6814337B627B6A79
:1043900053E8003F3B623B6A23F00103C7F8C43097
:1043A0007B681B681433D7F8C4203A63FB62F96A50
:1043B0003A6B41E80023BB62BB6A002BE3D17B6808
:1043C000202283F842207B6800221A637B681B68E6
:1043D0000C333B613B6953E8003FFB60FB6823F013
:1043E0001003C7F8C0307B681B680C33D7F8C020B7
:1043F000FA61BB61B969FA6941E800237B617B69B5
:10440000002BE3D17B6802225A63B7F8CE301946FD
:10441000786800F044F823E0D7F8E43003F0800334
:10442000002B09D0D7F8E03003F08003002B03D035
:10443000786800F0B5F814E0D7F8E43003F04003F2
:10444000002B0ED0D7F8E03003F04003002B08D04B
:10445000786800F0F4F804E000BF02E000BF00E07C
:1044600000BFE837BD4680BD80B483B000AF786040
:1044700000BF0C37BD4680BC704780B483B000AF2E
:10448000786000BF0C37BD4680BC704780B483B0F5
:1044900000AF786000BF0C37BD4680BC704780B469
:1044A00083B000AF78600B467B8000BF0C37BD4601
:1044B00080BC704780B495B000AF78607B681B68A3
:1044C0000C337B637B6B53E8003F3B633B6B23F414
:1044D0009073FB647B681B680C33FA6C3A64FB6373
:1044E000F96B3A6C41E80023BB63BB6B002BE5D151
:1044F0007B681B6814333B623B6A53E8003FFB61F7
:10450000FB6923F00103BB647B681B681433BA6C3E
:10451000FA62BB62B96AFA6A41E800237B627B6A8D
:10452000002BE5D17B681B6B012B19D17B681B68C5
:104530000C33FB60FB6853E8003FBB60BB6823F0B3
:1045400010037B647B681B680C337A6CBA617B61F7
:104550007969BA6941E800233B613B69002BE5D1E9
:104560007B68202283F842207B6800221A6300BF08
:104570005437BD4680BC704780B584B000AF7860CA
:104580007B689B6BFB60FB680022DA85FB6800227E
:10459000DA84F868FFF77AFF00BF1037BD4680BDA8
:1045A00080B485B000AF78607B6893F84130DBB2AF
:1045B000212B3ED17B689B68B3F5805F14D17B686B
:1045C0001B69002B10D17B681B6AFB60FB681B8892
:1045D0001A467B681B68C2F308025A607B681B6A34
:1045E0009A1C7B681A6208E07B681B6A591C7A680F
:1045F00011621A787B681B685A607B68DB8C9BB2FF
:10460000013B9BB27A681946D184002B0FD17B689D
:104610001B68DA687B681B6822F08002DA607B68BE
:104620001B68DA687B681B6842F04002DA6000238E
:1046300000E0022318461437BD4680BC704780B5A1
:1046400082B000AF78607B681B68DA687B681B68A3
:1046500022F04002DA607B68202283F841207868EB
:10466000FFF702FF002318460837BD4680BD80B51E
:104670008CB000AF78607B6893F84230DBB2222BBD
:1046800040F0AE807B689B68B3F5805F17D17B6894
:104690001B69002B13D10023FB627B689B6ABB6202
:1046A0007B681B685B689BB2C3F308039AB2BB6A62
:1046B0001A807B689B6A9A1C7B689A6226E07B68FA
:1046C0009B6AFB620023BB627B689B68B3F5805FDB
:1046D00007D07B689B68002B0AD17B681B69002B85
:1046E00006D17B681B685B68DAB2FB6A1A7008E067
:1046F0007B681B685B68DBB203F07F03DAB2FB6A9E
:104700001A707B689B6A5A1C7B689A627B68DB8D97
:104710009BB2013B9BB27A681946D185002B5DD1D3
:104720007B681B68DA687B681B6822F02002DA600D
:104730007B681B68DA687B681B6822F48072DA6029
:104740007B681B685A697B681B6822F001025A610A
:104750007B68202283F842207B6800225A637B68B2
:104760001B6B012B35D17B6800221A637B681B68A9
:104770000C337B617B6953E8003F3B613B6923F06D
:1047800010037B627B681B680C337A6A3A62FB61B8
:10479000F9693A6A41E80023BB61BB69002BE5D1A6
:1047A0007B681B681B6803F01003102B0AD10023E1
:1047B000FB607B681B681B68FB607B681B685B6831
:1047C000FB60FB687B689B8D19467868FFF767FE86
:1047D00002E07868FFF751FE002302E0002300E0CA
:1047E000022318463037BD4680BD000080B584B036
:1047F00000AF78607B681B681B6923F440517B68BD
:10480000DA687B681B680A431A617B689A687B6870
:104810001B691A437B685B691A437B68DB69134336
:10482000BB607B681B68DB6823F4164323F00C0332
:104830007A681268B9680B43D3607B681B685B6950
:1048400023F440717B689A697B681B680A435A614C
:104850007B681B68574A934204D07B681B68564AA2
:10486000934203D1FEF7A4FFF86002E0FEF77EFF5B
:10487000F8607B68DB69B3F5004F4CD1FA681346EA
:104880009B0013449A001A447B685B685B00B2FB90
:10489000F3F34A4AA2FB03235B091901FA681346A2
:1048A0009B0013449A001A447B685B685B00B2FB70
:1048B000F3F2424BA3FB02035B09642000FB03F30A
:1048C000D31ADB0032333D4AA2FB03235B095B00B2
:1048D00003F4F8731944FA6813469B0013449A00D2
:1048E0001A447B685B685B00B2FBF3F2334BA3FBBB
:1048F00002035B09642000FB03F3D31ADB003233AD
:104900002E4AA2FB03235B0903F007027B681B68A6
:104910000A449A604AE0FA6813469B0013449A00DE
:104920001A447B685B689B00B2FBF3F3234AA2FB4B
:1049300003235B091901FA6813469B0013449A008C
:104940001A447B685B689B00B2FBF3F21B4BA3FB32
:1049500002035B09642000FB03F3D31A1B0132330B
:10496000164AA2FB03235B0903F0F0031944FA681B
:1049700013469B0013449A001A447B685B689B00B3
:10498000B2FBF3F20D4BA3FB02035B09642000FBB7
:1049900003F3D31A1B013233084AA2FB03235B093A
:1049A00003F00F027B681B680A449A6000BF10374F
:1049B000BD4680BD00100140001401401F85EB5131
:1049C00080B400AF00BFBD4680BC704780B483B0E8
:1049D00000AF78607B6803F108027B685A607B68EF
:1049E0004FF0FF329A607B6803F108027B68DA605F
:1049F0007B6803F108027B681A617B6800221A60F9
:104A000000BF0C37BD4680BC704780B483B000AF98
:104A100078607B6800221A6100BF0C37BD4680BCFD
:104A2000704780B485B000AF786039607B685B68A0
:104A3000FB603B68FA685A60FB689A683B689A605A
:104A4000FB689B683A685A60FB683A689A603B6802
:104A50007A681A617B681B685A1C7B681A6000BF01
:104A60001437BD4680BC704780B485B000AF786015
:104A700039603B681B68BB60BB68B3F1FF3F03D183
:104A80007B681B69FB600CE07B680833FB6002E01D
:104A9000FB685B68FB60FB685B681B68BA689A42EE
:104AA000F6D2FB685A683B685A603B685B683A68B4
:104AB0009A603B68FA689A60FB683A685A603B689B
:104AC0007A681A617B681B685A1C7B681A6000BF91
:104AD0001437BD4680BC704780B485B000AF7860A5
:104AE0007B681B69FB607B685B687A6892689A6088
:104AF0007B689B687A6852685A60FB685B687A6872
:104B00009A4203D17B689A68FB685A607B680022EE
:104B10001A61FB681B685A1EFB681A60FB681B68F9
:104B200018461437BD4680BC7047000080B584B07D
:104B300000AF786039607B68FB60FB68002B0AD1AE
:104B40004FF0500383F31188BFF36F8FBFF34F8F84
:104B5000BB6000BFFEE702F0F1FCFB681A68FB686F
:104B6000DB6BF968096C01FB03F31A44FB689A607C
:104B7000FB6800229A63FB681A68FB685A60FB684E
:104B80001A68FB68DB6B013BF968096C01FB03F3F6
:104B90001A44FB68DA60FB68FF2283F84420FB6854
:104BA000FF2283F845203B68002B14D1FB681B696A
:104BB000002B1AD0FB681033184601F09BFA03460D
:104BC000002B12D00C4B4FF080521A60BFF34F8F66
:104BD000BFF36F8F09E0FB6810331846FFF7F6FE4E
:104BE000FB6824331846FFF7F1FE02F0D7FC0123DF
:104BF00018461037BD4680BD04ED00E080B58EB08C
:104C000002AFF860B9607A603B60FB68002B0AD1A4
:104C10004FF0500383F31188BFF36F8FBFF34F8FB3
:104C2000BB6200BFFEE73B68002B0AD14FF0500388
:104C300083F31188BFF36F8FBFF34F8F7B6200BF89
:104C4000FEE77B68002B02D0BB68002B01D001235C
:104C500000E00023002B0AD14FF0500383F31188AA
:104C6000BFF36F8FBFF34F8F3B6200BFFEE77B68E0
:104C7000002B02D1BB68002B01D1012300E00023EF
:104C8000002B0AD14FF0500383F31188BFF36F8FCD
:104C9000BFF34F8FFB6100BFFEE750237B617B6951
:104CA000502B0AD04FF0500383F31188BFF36F8F5E
:104CB000BFF34F8FBB6100BFFEE77B693B68FB62C0
:104CC000FB6A002B0DD0FB6A012283F8462097F87F
:104CD0003820FB6A009313467A68B968F86800F0D8
:104CE0003FF8FB6A18463037BD4680BD80B58AB0B4
:104CF00002AFF860B9601346FB71FB68002B0AD164
:104D00004FF0500383F31188BFF36F8FBFF34F8FC2
:104D10003B6100BFFEE7FB68BA6802FB03F3FB617F
:104D2000FB695033184602F0BBFAB861BB69002B2F
:104D300011D0BB697B617B6950337B61BB69002209
:104D400083F84620FA79BB69009313467A69B968FB
:104D5000F86800F005F8BB6918462037BD4680BDED
:104D600080B584B000AFF860B9607A60FB70BB6852
:104D7000002B03D1BB69BA691A6002E0BB697A688B
:104D80001A60BB69FA68DA63BB69BA681A64012100
:104D9000B869FFF7CBFEBB69FA7883F84C2000BFF7
:104DA0001037BD4680BD000080B58EB000AFF86002
:104DB000B9607A603B6000237B63FB683B633B6BBD
:104DC000002B0AD14FF0500383F31188BFF36F8F8C
:104DD000BFF34F8FBB6200BFFEE7BB68002B03D160
:104DE0003B6B1B6C002B01D1012300E00023002B47
:104DF0000AD14FF0500383F31188BFF36F8FBFF3D5
:104E00004F8F7B6200BFFEE73B68022B03D13B6BF9
:104E1000DB6B012B01D1012300E00023002B0AD121
:104E20004FF0500383F31188BFF36F8FBFF34F8FA1
:104E30003B6200BFFEE701F01FFB0346002B02D1DF
:104E40007B68002B01D1012300E00023002B0AD155
:104E50004FF0500383F31188BFF36F8FBFF34F8F71
:104E6000FB6100BFFEE702F069FB3B6B9A6B3B6B9B
:104E7000DB6B9A4202D33B68022B29D13A68B968AE
:104E8000386B00F08BFAF8623B6B5B6A002B10D03A
:104E90003B6B2433184601F02DF90346002B13D049
:104EA0003F4B4FF080521A60BFF34F8FBFF36F8FAD
:104EB0000AE0FB6A002B07D0394B4FF080521A6092
:104EC000BFF34F8FBFF36F8F02F068FB012363E0E6
:104ED0007B68002B03D102F061FB00235CE07B6B5D
:104EE000002B06D107F11403184601F067F90123DE
:104EF0007B6302F053FB00F0C3FE02F01FFB3B6B31
:104F000093F844305BB2B3F1FF3F03D13B6B002217
:104F100083F844203B6B93F845305BB2B3F1FF3F1D
:104F200003D13B6B002283F8452002F037FB3A1D8A
:104F300007F114031146184601F056F90346002BF9
:104F400024D1386B00F022FB0346002B18D03B6BBA
:104F500010337A681146184601F07CF8386B00F07F
:104F6000ADFA00F09BFE0346002B7FF47CAF0C4BA8
:104F70004FF080521A60BFF34F8FBFF36F8F72E70D
:104F8000386B00F09BFA00F089FE6CE7386B00F09C
:104F900095FA00F083FE002318463837BD4680BDE1
:104FA00004ED00E080B590B000AFF860B9607A60C1
:104FB0003B60FB68BB63BB6B002B0AD14FF0500317
:104FC00083F31188BFF36F8FBFF34F8FBB6200BFB6
:104FD000FEE7BB68002B03D1BB6B1B6C002B01D120
:104FE000012300E00023002B0AD14FF0500383F38C
:104FF0001188BFF36F8FBFF34F8F7B6200BFFEE757
:105000003B68022B03D1BB6BDB6B012B01D101236E
:1050100000E00023002B0AD14FF0500383F31188E6
:10502000BFF36F8FBFF34F8F3B6200BFFEE702F00D
:1050300047FBEFF311824FF0500383F31188BFF366
:105040006F8FBFF34F8FFA61BB61FB697B63BB6BF3
:105050009A6BBB6BDB6B9A4202D33B68022B2FD15E
:10506000BB6B93F8453087F83330BB6B9B6BFB62AF
:105070003A68B968B86B00F091F997F93330B3F139
:10508000FF3F12D1BB6B5B6A002B16D0BB6B243386
:10509000184601F02FF80346002B0ED07B68002B3A
:1050A0000BD07B6801221A6007E097F83330013398
:1050B000DBB25AB2BB6B83F845200123FB6301E0EE
:1050C0000023FB637B6B7B617B6983F3118800BFEB
:1050D000FB6B18464037BD4680BD000080B58CB0E4
:1050E00000AFF860B9607A600023FB62FB68BB62C6
:1050F000BB6A002B0AD14FF0500383F31188BFF332
:105100006F8FBFF34F8F3B6200BFFEE7BB68002B82
:1051100003D1BB6A1B6C002B01D1012300E00023EB
:10512000002B0AD14FF0500383F31188BFF36F8F28
:10513000BFF34F8FFB6100BFFEE701F09DF903460F
:10514000002B02D17B68002B01D1012300E000235A
:10515000002B0AD14FF0500383F31188BFF36F8FF8
:10516000BFF34F8FBB6100BFFEE702F0E7F9BB6AF8
:105170009B6B7B627B6A002B1FD0B968B86A00F01A
:1051800077F97B6A5A1EBB6A9A63BB6A1B69002B5C
:105190000FD0BB6A1033184600F0ACFF0346002B5B
:1051A00007D03D4B4FF080521A60BFF34F8FBFF3D3
:1051B0006F8F02F0F3F9012369E07B68002B03D1C4
:1051C00002F0ECF9002362E0FB6A002B06D107F144
:1051D0001003184600F0F2FF0123FB6202F0DEF933
:1051E00000F04EFD02F0AAF9BB6A93F844305BB2BE
:1051F000B3F1FF3F03D1BB6A002283F84420BB6AAE
:1052000093F845305BB2B3F1FF3F03D1BB6A002294
:1052100083F8452002F0C2F93A1D07F11003114648
:10522000184600F0E1FF0346002B23D1B86A00F0D6
:1052300097F90346002B17D0BB6A24337A681146CE
:10524000184600F007FFB86A00F038F900F026FDB4
:105250000346002B89D1104B4FF080521A60BFF3E8
:105260004F8FBFF36F8F80E7B86A00F027F900F027
:1052700015FD7AE7B86A00F021F900F00FFDB86A71
:1052800000F06EF90346002B3FF46FAF0023184681
:105290003037BD4680BD00BF04ED00E080B58EB064
:1052A00000AFF860B9607A60FB683B633B6B002B32
:1052B0000AD14FF0500383F31188BFF36F8FBFF310
:1052C0004F8F3B6200BFFEE7BB68002B03D13B6BF7
:1052D0001B6C002B01D1012300E00023002B0AD11D
:1052E0004FF0500383F31188BFF36F8FBFF34F8FDD
:1052F000FB6100BFFEE702F0E3F9EFF311824FF02C
:10530000500383F31188BFF36F8FBFF34F8FBA61E0
:105310007B61BB69FB623B6B9B6BBB62BB6A002B17
:105320002FD03B6B93F8443087F82730B968386B3F
:1053300000F09EF8BB6A5A1E3B6B9A6397F92730C0
:10534000B3F1FF3F12D13B6B1B69002B16D03B6BB7
:105350001033184600F0CEFE0346002B0ED07B68BB
:10536000002B0BD07B6801221A6007E097F82730EA
:105370000133DBB25AB23B6B83F8442001237B63D9
:1053800001E000237B63FB6A3B613B6983F3118887
:1053900000BF7B6B18463837BD4680BD80B586B0F0
:1053A00000AFF860B9607A6000237B61FB689B6B9B
:1053B0003B61FB681B6C002B0DD1FB681B68002B4D
:1053C0004DD1FB689B68184601F074F87861FB6862
:1053D00000229A6043E07B68002B19D1FB68586873
:1053E000FB681B6C1A46B96802F04EFAFB685A68F3
:1053F000FB681B6C1A44FB685A60FB685A68FB68C0
:105400009B689A422BD3FB681A68FB685A6026E0B7
:10541000FB68D868FB681B6C1A46B96802F034FA5E
:10542000FB68DA68FB681B6C5B421A44FB68DA6055
:10543000FB68DA68FB681B689A4207D2FB689A68C7
:10544000FB681B6C5B421A44FB68DA607B68022BCA
:1054500005D13B69002B02D03B69013B3B613B69B5
:105460005A1CFB689A637B6918461837BD4680BD95
:1054700080B582B000AF786039607B681B6C002B10
:1054800018D07B68DA687B681B6C1A447B68DA602A
:105490007B68DA687B689B689A4203D37B681A68EA
:1054A0007B68DA607B68D9687B681B6C1A46386851
:1054B00002F0EAF900BF0837BD4680BD80B584B070
:1054C00000AF786002F03AF87B6893F84530FB73E0
:1054D00011E07B685B6A002B12D07B68243318468E
:1054E00000F008FE0346002B01D000F0DFFEFB7B3E
:1054F000013BDBB2FB7397F90F30002BE9DC00E0D6
:1055000000BF7B68FF2283F8452002F047F802F0D5
:1055100015F87B6893F84430BB7311E07B681B6916
:10552000002B12D07B681033184600F0E3FD0346D1
:10553000002B01D000F0BAFEBB7B013BDBB2BB739A
:1055400097F90E30002BE9DC00E000BF7B68FF22FA
:1055500083F8442002F022F800BF1037BD4680BD1A
:1055600080B584B000AF786001F0E8FF7B689B6B8A
:10557000002B02D10123FB6001E00023FB6002F05D
:105580000DF8FB6818461037BD4680BD80B584B065
:1055900000AF786001F0D2FF7B689A6B7B68DB6BB1
:1055A0009A4202D10123FB6001E00023FB6001F07D
:1055B000F5FFFB6818461037BD4680BD80B485B046
:1055C00000AF786039600023FB6014E00E4AFB688E
:1055D00052F83330002B0BD10B49FB683A6841F885
:1055E0003320094AFB68DB0013447A685A6006E0FE
:1055F000FB680133FB60FB68072BE7D900BF00BFE6
:105600001437BD4680BC7047B801002080B586B015
:1056100000AFF860B9607A60FB687B6101F08EFFD3
:105620007B6993F844305BB2B3F1FF3F03D17B69F0
:10563000002283F844207B6993F845305BB2B3F1D4
:10564000FF3F03D17B69002283F8452001F0A6FFCC
:105650007B699B6B002B06D17B6924337A68B96820
:10566000184600F01BFD7869FFF728FF00BF1837C8
:10567000BD4680BD80B58EB004AFF860B9607A6079
:105680003B607B6B002B0AD14FF0500383F31188F2
:10569000BFF36F8FBFF34F8F3B6200BFFEE7BB6B63
:1056A000002B0AD14FF0500383F31188BFF36F8FA3
:1056B000BFF34F8FFB6100BFFEE74FF491633B6187
:1056C0003B69B3F5916F0AD04FF0500383F3118813
:1056D000BFF36F8FBFF34F8FBB6100BFFEE73B6926
:1056E000BB6B002B1ED07B6B002B1BD0BB6B7B627C
:1056F0007B6A7A6B1A637B6A022283F88524002313
:1057000003937B6A029307F1140301933B6B0093AD
:105710003B687A68B968F86800F051F8786A00F078
:105720001DF901E000237B617B6918462837BD46DF
:1057300080BD80B58CB004AFF860B9603B601346A3
:10574000FB80FB889B00184601F0AAFD78617B690D
:10575000002B0FD04FF4916001F0A2FDF861FB69BE
:10576000002B03D0FB697A691A6305E0786901F0C0
:10577000DDFD01E00023FB61FB69002B17D0FB6915
:10578000002283F88524FA8800230393FB6902939F
:10579000FB6A0193BB6A00933B68B968F86800F044
:1057A0000EF8F86900F0DAF80123BB6102E04FF06F
:1057B000FF33BB61BB6918462037BD4680BD80B54D
:1057C00088B000AFF860B9607A603B603B6B186BE3
:1057D0007B689B001A46A521FBF7BCF93B6B1A6B53
:1057E0007B6803F18043013B9B001344BB61BB69B1
:1057F00023F00703BB61BB6903F00703002B0AD04A
:105800004FF0500383F31188BFF36F8FBFF34F8FB7
:105810007B6100BFFEE7BB68002B1FD00023FB614C
:1058200012E0BA68FB69134419783A6BFB691344B8
:1058300034330A461A70BA68FB6913441B78002B8C
:1058400006D0FB690133FB61FB690F2BE9D900E04E
:1058500000BF3B6B002283F8432003E03B6B002238
:1058600083F83420BB6A372B01D93723BB623B6BEB
:10587000BA6ADA623B6BBA6ADA643B6B00221A6579
:105880003B6B04331846FFF7C0F83B6B18331846E0
:10589000FFF7BBF83B6B3A6B1A61BB6AC3F1380286
:1058A0003B6B9A613B6B3A6B5A623B6B0022C3F8CD
:1058B00080243B6B002283F884243B6B58334FF4E5
:1058C000856200211846FBF745F93B6B03F55172E1
:1058D0003B6BDA653B6B03F56B723B6B1A663B6B9C
:1058E00003F214423B6B5A66396B4FF001024FF0E2
:1058F0000003C1E940233B6B43F20E32A3F80821B9
:105900003B6B4AF6CD32A3F80A213B6B41F23422BD
:10591000A3F80C213B6B4EF26D62A3F80E213B6B9A
:105920004DF6EC62A3F810213B6B0522A3F812217F
:105930003B6B0B22A3F814213A68F968B86901F0AF
:105940000DFD02463B6B1A60FB6A002B02D0FB6A1E
:105950003A6B1A6000BF2037BD4680BD80B582B06B
:1059600000AF786001F0EAFD2D4B1B6801332C4A33
:1059700013602C4B1B68002B09D12A4A7B681360EB
:10598000274B1B68012B10D100F0B4FC0DE0264B17
:105990001B68002B09D1234B1B68DA6A7B68DB6A22
:1059A0009A4202D81F4A7B681360204B1B68013360
:1059B0001E4A13601D4B1A687B685A647B68DA6A5A
:1059C0001B4B1B689A4203D97B68DB6A184A136039
:1059D0007B68DA6A13469B0013449B00154A1A44FD
:1059E0007B68043319461046FFF71BF801F0D6FD1B
:1059F0000D4B1B68002B0ED00A4B1B68DA6A7B68C4
:105A0000DB6A9A4207D20C4B4FF080521A60BFF308
:105A10004F8FBFF36F8F00BF0837BD4680BD00BFFB
:105A2000CC060020F8010020D8060020E80600205F
:105A3000D4060020FC01002004ED00E080B58AB00F
:105A400000AF7860396000237B627B68002B0AD14D
:105A50004FF0500383F31188BFF36F8FBFF34F8F65
:105A60007B6100BFFEE73B68002B0AD14FF050037B
:105A700083F31188BFF36F8FBFF34F8F3B6100BF7C
:105A8000FEE72A4B1B68002B0AD04FF0500383F32C
:105A90001188BFF36F8FBFF34F8FFB6000BFFEE72E
:105AA00000F0EEF8224B1B683B627B681B683A688B
:105AB0001344FB617B681B683A6A9A420BD27B688D
:105AC0001B68FA699A4211D2FA693B6A9A420DD967
:105AD00001237B620AE07B681B68FA699A4203D360
