:020000040800F2
:10000000000002200D5F00087D0C0008830C000832
:10001000890C00088F0C0008950C000800000000F7
:10002000000000000000000000000000E15B00088C
:100030009B0C000800000000C15D0008FD56000890
:100040005D5F00085D5F00085D5F00085D5F0008A0
:100050005D5F00085D5F00085D5F00085D5F000890
:100060005D5F00085D5F00085D5F00085D5F000880
:100070005D5F00085D5F00085D5F00085D5F000870
:100080005D5F00085D5F00085D5F0008A90C000867
:10009000BD0C0008D10C0008E50C00085D5F0008ED
:1000A0005D5F00085D5F00085D5F00085D5F000840
:1000B0005D5F00085D5F00085D5F00085D5F000830
:1000C0005D5F00085D5F00085D5F00085D5F000820
:1000D0005D5F00085D5F00085D5F0008F90C0008C7
:1000E0005D5F00085D5F00085D5F00085D5F000800
:1000F0005D5F00085D5F00085D5F00085D5F0008F0
:100100005D5F00085D5F00085D5F00085D5F0008DF
:100110005D5F00085D5F00080D0D00085D5F000871
:100120005D5F00085D5F00085D5F00085D5F0008BF
:100130005D5F00085D5F00085D5F0008210D00083D
:10014000350D0008490D00085D0D00085D5F0008D1
:100150005D5F00085D5F00085D5F00085D5F00088F
:100160005D5F00085D5F00085D5F00085D5F00087F
:100170005D5F00085D5F00085D5F00080000000033
:040180005D5F0008B7
:1001900010B5054C237833B9044B13B10448AFF3C1
:1001A00000800123237010BD7800002000000000B3
:1001B000F860000808B5034B1BB103490348AFF3CF
:1001C000008008BD000000007C000020F8600008EE
:1001D00053B94AB9002908BF00281CBF4FF0FF31AE
:1001E0004FF0FF3000F076B9ADF1080C6DE904CEA8
:1001F00000F006F8DDF804E0DDE9022304B0704702
:100200002DE9F047089E0D4604468846002B4DD147
:100210008A42944668D9B2FA82F252B101FA02F3E4
:10022000C2F1200120FA01F10CFA02FC41EA0308B4
:1002300094404FEA1C41B8FBF1F71FFA8CFE01FB1A
:10024000178807FB0EF0230C43EA084398420AD9AB
:100250001CEB030307F1FF3580F01E81984240F24A
:100260001B81023F63441B1AB3FBF1F001FB103307
:1002700000FB0EFEA4B244EA0344A6450AD91CEBD7
:10028000040400F1FF3380F00981A64540F20681A5
:10029000644402380021A4EB0E0440EA07401EB17A
:1002A0000023D440C6E90043BDE8F0878B4208D95B
:1002B000002E00F0EE800021C6E900050846BDE8EA
:1002C000F087B3FA83F100294AD1AB4202D38242CC
:1002D00000F2FC80841A65EB030301209846002E8F
:1002E000E2D0C6E90048DFE702B9FFDEB2FA82F2E7
:1002F000002A40F09180A1EB0C0001214FEA1C473D
:100300001FFA8CFEB0FBF7F307FB1300250C45EA40
:1003100000450EFB03F0A84208D91CEB050503F1CC
:10032000FF3802D2A84200F2CE8043462D1AB5FB18
:10033000F7F007FB10550EFB00FEA4B244EA05449B
:10034000A64508D91CEB040400F1FF3502D2A645EE
:1003500000F2B6802846A4EB0E0440EA03409EE774
:10036000C1F120078B4022FA07FC4CEA030C25FA66
:1003700007FA4FEA1C49BAFBF9F820FA07F309FB20
:1003800018AA8D401FFA8CFE1D4300FA01F308FBEA
:100390000EF02C0C44EA0A44A04202FA01F20BD9F6
:1003A0001CEB040408F1FF3A80F08880A04240F280
:1003B0008580A8F102086444241AB4FBF9F009FB13
:1003C000104400FB0EFEADB245EA0444A64508D930
:1003D0001CEB040400F1FF356CD2A6456AD9023843
:1003E000644440EA0840A0FB0295A4EB0E04AC4232
:1003F000C846AE4656D353D0002E69D0B3EB0802A0
:1004000064EB0E0422FA01F304FA07F71F43CC4011
:10041000C6E90074002147E70CFA02FCC2F1200192
:1004200025FA01F34FEA1C4720FA01F195400D43EC
:10043000B3FBF7F107FB11331FFA8CFE280C40EADF
:10044000034001FB0EF3834204FA02F408D91CEBCB
:10045000000001F1FF382FD283422DD902396044C8
:10046000C01AB0FBF7F307FB1300ADB245EA004535
:1004700003FB0EF0A84208D91CEB050503F1FF3879
:1004800016D2A84214D9023B6544281A43EA014116
:1004900038E73146304607E72F46E4E61846F9E6E6
:1004A0004B45A9D2B9EB020865EB0C0E0138A3E766
:1004B0004346EAE7284694E74146D1E7D0467BE742
:1004C0006444023847E7023B65442FE7084606E7E5
:1004D0003146E9E6704700BF70B500260C4D0D4C63
:1004E000641BA410A64209D105F006FE00260A4DA1
:1004F0000A4C641BA410A64205D170BD55F8043BFC
:1005000098470136EEE755F8043B98470136F2E785
:10051000446300084463000844630008486300081B
:1005200003460244934200D1704703F8011BF9E7E8
:1005300080B500AF01F082FA00F00FF800F06CF81F
:1005400000F022FB00F0D2F900F006FA05F0F0F816
:1005500000F010F905F00EF9FEE780B592B000AF9B
:1005600007F11803302200211846FFF7D9FF3B1D81
:1005700000221A605A609A60DA601A610123BB6136
:100580000523FB6102233B634FF480037B63082355
:10059000BB63F023FB6302233B6405237B6407F109
:1005A0001803184601F088FA0346002B01D000F02A
:1005B0002DF80F237B600223BB600023FB604FF408
:1005C000A0533B614FF480537B613B1D03211846D0
:1005D00001F0C6FC0346002B01D000F017F800BF65
:1005E0004837BD4680BD000080B582B000AF78605E
:1005F0007B681B68044A934201D101F041FA00BFB5
:100600000837BD4680BD00BF0010004080B400AF79
:1006100072B600BFFEE7000080B58CB000AF07F1F6
:100620001C0300221A605A609A60DA601A61002383
:10063000BB614C4B1B6B4B4A43F004031363494BA8
:100640001B6B03F00403BB61BB6900237B61454B5B
:100650001B6B444A43F080031363424B1B6B03F054
:1006600080037B617B6900233B613E4B1B6B3D4AF2
:1006700043F0020313633B4B1B6B03F002033B612C
:100680003B690023FB60374B1B6B364A43F0080382
:100690001363344B1B6B03F00803FB60FB68002300
:1006A000BB60304B1B6B2F4A43F0400313632D4B51
:1006B0001B6B03F04003BB60BB6800237B60294BCE
:1006C0001B6B284A43F001031363264B1B6B03F09B
:1006D00001037B607B68002244F28101224802F022
:1006E00033F900224021214802F02EF94FF4005343
:1006F000FB614FF488133B6200237B6207F11C030C
:1007000019461B4801F082FF44F28103FB6101237B
:100710003B6200237B620023BB6207F11C03194686
:10072000114801F073FF4023FB6101233B6200236A
:100730007B620023BB6207F11C0319460B4801F0E2
:1007400065FF8023FB6100233B6200237B6207F18E
:100750001C031946054801F059FF00BF3037BD465C
:1007600080BD00BF00380240000402400018024073
:100770000008024080B500AF304A1C21102005F06F
:10078000CDF803462E4A13602E4A1C21102005F096
:10079000C5F803462C4A13602C4A1C21102005F092
:1007A000BDF803462A4A13602A4A1C21102005F08E
:1007B000B5F80346284A1360284A1821802005F01E
:1007C000ADF80346264A1360264A1821802005F01A
:1007D000A5F80346244A1360244A1C21102005F082
:1007E0009DF80346224A1360224A1821802005F012
:1007F00095F80346204A1360204A0021204804F05F
:10080000DFFF03461F4A13601F4A00211F4804F000
:10081000D7FF03461E4A13601E4A00211E4804F0FB
:10082000CFFF03461D4A13601D4A00211D4804F0F6
:10083000C7FF03461C4A136000BF80BD6462000806
:10084000A40000207C620008A80000209462000838
:10085000AC000020AC620008B0000020C4620008B8
:10086000B4000020DC620008B8000020F462000838
:10087000BC0000200C630008C0000020D461000808
:10088000AD08000894000020F8610008BD080008C9
:10089000980000201C620008CD0800089C00002081
:1008A00040620008DD080008A000002080B582B08A
:1008B00000AF7860012005F016F8FBE780B582B044
:1008C00000AF7860012005F00EF8FBE780B582B03C
:1008D00000AF7860012005F006F8FBE780B582B034
:1008E00000AF7860012004F0FEFFFBE780B500AFA9
:1008F000174B184A1A60164B06225A60144B0022F6
:100900009A60134B0022DA60114B4FF480221A6177
:100910000F4B4FF440125A610D4B00221A760C4BCC
:1009200000225A760A4B00229A76094B0122DA7687
:10093000074B00221A77064B01225A77044800F031
:1009400055FD0346002B01D0FFF760FE00BF80BDC0
:10095000C40000200064004080B500AF174B184A67
:100960001A60164B06225A60144B00229A60134BF1
:100970000022DA60114B4FF440321A610F4B4FF4F2
:1009800080025A610D4B00221A760C4B00225A76D7
:100990000A4B00229A76094B0122DA76074B002295
:1009A0001A77064B01225A77044800F01FFD0346D0
:1009B000002B01D0FFF72AFE00BF80BDEC00002015
:1009C0000068004080B58CB000AF786007F11C0370
:1009D00000221A605A609A60DA601A617B681B68AC
:1009E000634A934256D1634B1B680133614A1360DB
:1009F000604B1B68012B0DD10023BB615E4B1B6C50
:100A00005D4A43F0007313645B4B1B6C03F000738F
:100A1000BB61BB6900237B61574B1B6B564A43F09C
:100A200001031363544B1B6B03F001037B617B6970
:100A30004FF4C053FB6102233B6200237B6203231C
:100A4000BB620923FB6207F11C0319464B4801F006
:100A5000DDFD00220521132001F0ADFD132001F082
:100A6000C6FD00220521142001F0A5FD142001F08F
:100A7000BEFD00220521152001F09DFD152001F08D
:100A8000B6FD00220521162001F095FD162001F08B
:100A9000AEFD68E07B681B68394A934263D100234E
:100AA0003B61354B1B6C344A43F080631364324B1B
:100AB0001B6C03F080633B613B692E4B1B68013369
:100AC0002C4A13602B4B1B68012B0DD10023FB60BC
:100AD000294B1B6C284A43F000731364264B1B6C94
:100AE00003F00073FB60FB680023BB60224B1B6BB1
:100AF000214A43F0020313631F4B1B6B03F00203F5
:100B0000BB60BB684FF44053FB6102233B62002390
:100B10007B620323BB620923FB6207F11C031946B6
:100B2000184801F073FD002205213F2001F043FD2C
:100B30003F2001F05CFD00220521402001F03BFD3B
:100B4000402001F054FD00220521412001F033FD39
:100B5000412001F04CFD00220521422001F02BFD37
:100B6000422001F044FD00BF3037BD4680BD00BFCC
:100B700000640040140100200038024000000240E0
:100B8000006800400004024080B500AF114B124ADB
:100B90001A60104B4FF4E1325A600E4B00229A60FB
:100BA0000C4B0022DA600B4B00221A61094B0C221D
:100BB0005A61084B00229A61064B0022DA6105480F
:100BC00001F06BFF0346002B01D0FFF71FFD00BFB4
:100BD00080BD00BF180100200048004080B58AB0E9
:100BE00000AF786007F1140300221A605A609A601F
:100BF000DA601A617B681B681D4A934234D1002376
:100C00003B611C4B1B6C1B4A43F480231364194B40
:100C10001B6C03F480233B613B690023FB60154B95
:100C20001B6B144A43F008031363124B1B6B03F056
:100C30000803FB60FB684FF440737B610223BB61D8
:100C40000023FB6103233B6207237B6207F114034C
:100C50001946094801F0DAFC00220521272001F09D
:100C6000AAFC272001F0C3FC00BF2837BD4680BD89
:100C70000048004000380240000C024080B400AF41
:100C8000FEE780B400AFFEE780B400AFFEE780B4BB
:100C900000AFFEE780B400AFFEE780B400AF00BF56
:100CA000BD4680BC7047000080B500AF024800F030
:100CB00098FC00BF80BD00BFC400002080B500AF1D
:100CC000024800F08EFC00BF80BD00BFC4000020C1
:100CD00080B500AF024800F084FC00BF80BD00BFBB
:100CE000C400002080B500AF024800F07AFC00BFCD
:100CF00080BD00BFC400002080B500AF024801F0F5
:100D00001DFF00BF80BD00BF1801002080B500AFEF
:100D1000024800F09BF900BF80BD00BF60010020C9
:100D200080B500AF024800F05CFC00BF80BD00BF92
:100D3000EC00002080B500AF024800F052FC00BF7C
:100D400080BD00BFEC00002080B500AF024800F07D
:100D500048FC00BF80BD00BFEC00002080B500AFA4
:100D6000024800F03EFC00BF80BD00BFEC00002048
:100D700080B582B000AF00237B60124B5B6C114AE0
:100D800043F4804353640F4B5B6C03F480437B60FC
:100D90007B6800233B600B4B1B6C0A4A43F080537B
:100DA0001364084B1B6C03F080533B603B680022CC
:100DB0000F216FF0010001F0FEFB00BF0837BD46B8
:100DC00080BD00BF0038024080B58EB000AF7860B3
:100DD0000023FB620023BB620023FB60334B1B6CD0
:100DE000324A43F010031364304B1B6C03F01003C2
:100DF000FB60FB6807F1100207F114031146184667
:100E000001F0F4FA3B6AFB62FB6A002B03D101F0AC
:100E1000A9FA786304E001F0A5FA03465B007B635E
:100E20007B6B234AA2FB03239B0C013BBB62214B40
:100E3000214A1A601F4B40F2E732DA601D4ABB6A52
:100E400053601C4B00221A611A4B00229A60194B06
:100E500000229A61174800F033F8034687F83330D0
:100E600097F83330002B1BD1124800F081F803466D
:100E700087F8333097F83330002B11D1362001F04A
:100E8000B6FB7B680F2B08D800227968362001F06A
:100E900092FB0A4A7B68136002E0012387F8333033
:100EA00097F8333018463837BD4680BD00380240C9
:100EB00083DE1B436001002000100040640000201E
:100EC00080B582B000AF78607B68002B01D1012330
:100ED00041E07B6893F83D30DBB2002B06D17B68A4
:100EE000002283F83C20786800F039F87B68022201
:100EF00083F83D207B681A687B68043319461046E6
:100F000000F0B8F97B68012283F846207B68012253
:100F100083F83E207B68012283F83F207B68012212
:100F200083F840207B68012283F841207B680122FE
:100F300083F842207B68012283F843207B680122EA
:100F400083F844207B68012283F845207B680122D6
:100F500083F83D20002318460837BD4680BD80B485
:100F600083B000AF786000BF0C37BD4680BC7047CF
:100F700080B485B000AF78607B6893F83D30DBB219
:100F8000012B01D001234EE07B68022283F83D2033
:100F90007B681B68DA687B681B6842F00102DA60D4
:100FA0007B681B68224A934222D07B681B68B3F19E
:100FB000804F1DD07B681B681E4A934218D07B6807
:100FC0001B681D4A934213D07B681B681B4A9342DF
:100FD0000ED07B681B681A4A934209D07B681B6855
:100FE000184A934204D07B681B68174A934211D178
:100FF0007B681B689B6803F00703FB60FB68062B9C
:1010000010D07B681B681A687B681B6842F001027D
:101010001A6007E07B681B681A687B681B6842F0EF
:1010200001021A60002318461437BD4680BC704781
:10103000000001400004004000080040000C004097
:1010400000040140004001400018004080B584B019
:1010500000AF78607B681B68DB68FB607B681B689F
:101060001B69BB60BB6803F00203002B20D0FB6848
:1010700003F00203002B1BD07B681B686FF0020299
:101080001A617B6801221A777B681B689B6903F0F1
:101090000303002B03D0786800F0D1F805E07868EE
:1010A00000F0C4F8786800F0D3F87B6800221A7763
:1010B000BB6803F00403002B20D0FB6803F004039B
:1010C000002B1BD07B681B686FF004021A617B68E1
:1010D00002221A777B681B689B6903F44073002B1C
:1010E00003D0786800F0ABF805E0786800F09EF86F
:1010F000786800F0ADF87B6800221A77BB6803F0CF
:101100000803002B20D0FB6803F00803002B1BD042
:101110007B681B686FF008021A617B6804221A77EB
:101120007B681B68DB6903F00303002B03D078683E
:1011300000F085F805E0786800F078F8786800F04D
:1011400087F87B6800221A77BB6803F01003002B36
:1011500020D0FB6803F01003002B1BD07B681B68BA
:101160006FF010021A617B6808221A777B681B688F
:10117000DB6903F44073002B03D0786800F05FF85C
:1011800005E0786800F052F8786800F061F87B6854
:1011900000221A77BB6803F00103002B0CD0FB6818
:1011A00003F00103002B07D07B681B686FF001027E
:1011B0001A617868FFF718FABB6803F08003002B08
:1011C0000CD0FB6803F08003002B07D07B681B6802
:1011D0006FF080021A61786800F0FFF8BB6803F0D6
:1011E0004003002B0CD0FB6803F04003002B07D01A
:1011F0007B681B686FF040021A61786800F031F874
:10120000BB6803F02003002B0CD0FB6803F0200325
:10121000002B07D07B681B686FF020021A6178688A
:1012200000F0D2F800BF1037BD4680BD80B483B057
:1012300000AF786000BF0C37BD4680BC704780B4FB
:1012400083B000AF786000BF0C37BD4680BC7047EC
:1012500080B483B000AF786000BF0C37BD4680BC5F
:10126000704780B483B000AF786000BF0C37BD46D4
:1012700080BC704780B485B000AF786039607B680F
:101280001B68FB607B68454A934213D07B68B3F1CF
:10129000804F0FD07B68424A93420BD07B68414A13
:1012A000934207D07B68404A934203D07B683F4A11
:1012B000934208D1FB6823F07003FB603B685B68D6
:1012C000FA681343FB607B68344A93422BD07B68F7
:1012D000B3F1804F27D07B68314A934223D07B689B
:1012E000304A93421FD07B682F4A93421BD07B68C1
:1012F0002E4A934217D07B682D4A934213D07B68C5
:101300002C4A93420FD07B682B4A93420BD07B68C8
:101310002A4A934207D07B68294A934203D07B68CC
:10132000284A934208D1FB6823F44073FB603B6872
:10133000DB68FA681343FB60FB6823F080023B68BC
:101340005B691343FB607B68FA681A603B689A68C4
:101350007B68DA623B681A687B689A627B680F4A2E
:10136000934203D07B68114A934203D13B681A69C8
:101370007B681A637B6801225A617B681B6903F0F2
:101380000103012B05D17B681B6923F001027B68F7
:101390001A6100BF1437BD4680BC70470000014091
:1013A0000004004000080040000C00400004014020
:1013B0000040014000440140004801400018004046
:1013C000001C00400020004080B483B000AF786073
:1013D00000BF0C37BD4680BC704780B483B000AFFF
:1013E000786000BF0C37BD4680BC704780B584B0C4
:1013F00000AF78607B68002B01D10123EDE07B68B2
:1014000093F82030DBB2002B02D17868FFF7DAFACC
:101410007B681B681A687B681B6842F001021A60CF
:1014200000F040FBF86012E000F03CFB0246FB6875
:10143000D31A0A2B0BD97B685B6A43F400327B68B2
:101440005A627B68052283F820200123C5E07B686F
:101450001B685B6803F00103002BE5D07B681B6809
:101460001A687B681B6822F002021A6000F01AFBFF
:10147000F86012E000F016FB0246FB68D31A0A2B54
:101480000BD97B685B6A43F400327B685A627B68E5
:10149000052283F8202001239FE07B681B685B689E
:1014A00003F00203002BE5D17B681B7E012B08D1E2
:1014B0007B681B681A687B681B6842F080021A60B0
:1014C00007E07B681B681A687B681B6822F0800253
:1014D0001A607B685B7E012B08D17B681B681A68E9
:1014E0007B681B6842F040021A6007E07B681B685B
:1014F0001A687B681B6822F040021A607B689B7E3A
:10150000012B08D17B681B681A687B681B6842F056
:1015100020021A6007E07B681B681A687B681B68FA
:1015200022F020021A607B68DB7E012B08D17B68E9
:101530001B681A687B681B6822F010021A6007E0BB
:101540007B681B681A687B681B6842F010021A608F
:101550007B681B7F012B08D17B681B681A687B683E
:101560001B6842F008021A6007E07B681B681A6873
:101570007B681B6822F008021A607B685B7F012B86
:1015800008D17B681B681A687B681B6842F00402FC
:101590001A6007E07B681B681A687B681B6822F08A
:1015A00004021A607B689A687B68DB681A437B6870
:1015B0001B691A437B685B6942EA03017B685B68CD
:1015C0005A1E7B681B680A43DA617B6800225A62F4
:1015D0007B68012283F82020002318461037BD467F
:1015E00080BD80B58AB000AF786000237B627B68E5
:1015F0001B685B693B627B681B685B68FB617B689F
:101600001B689B68BB617B681B68DB687B617B68D0
:101610001B681B693B617B681B689B69FB603B6ABD
:1016200003F00103002B7CD0BB6903F00103002B06
:1016300023D07B681B6801229A60BB6903F0020318
:10164000002B03D0786800F083F916E0BB6903F043
:101650000403002B04D07B6A43F400637B620CE03C
:10166000BB6903F00803002B04D07B6A43F480536A
:101670007B6202E0786800F086F9BB6903F480734E
:10168000002B24D07B681B684FF480729A60BB6982
:1016900003F40073002B03D0786800F062F916E0C1
:1016A000BB6903F48063002B04D07B6A43F40053CE
:1016B0007B620CE0BB6903F40063002B04D07B6AFF
:1016C00043F480437B6202E0786800F065F9BB690F
:1016D00003F48033002B24D07B681B684FF48032E6
:1016E0009A60BB6903F40033002B03D0786800F0E4
:1016F00041F916E0BB6903F48023002B04D07B6A18
:1017000043F400437B620CE0BB6903F40023002B2D
:1017100004D07B6A43F480337B6202E0786800F097
:1017200044F93B6A03F00803002B0CD07B6903F0FB
:101730001003002B07D07B6A43F400737B627B6845
:101740001B681022DA603B6A03F00403002B0BD005
:101750007B6903F00803002B06D07B681B68082216
:10176000DA60786800F033F93B6A03F00203002B7B
:1017700009D07B681B68DB6803F00303002B02D0F1
:10178000786800F01BF93B6A03F04003002B0CD093
:101790003B6903F01003002B07D07B6A43F480639E
:1017A0007B627B681B6810221A613B6A03F020038E
:1017B000002B0BD03B6903F00803002B06D07B689D
:1017C0001B6808221A61786800F013F93B6A03F07D
:1017D0001003002B09D07B681B681B6903F003030F
:1017E000002B02D0786800F0FBF83B6A03F400336A
:1017F000002B0BD0FB6903F01003002B06D07B6895
:101800001B6810225A60786800F0FCF83B6A03F409
:101810008033002B0BD0FB6903F00803002B06D0AC
:101820007B681B6808225A60786800F0F4F83B6A0D
:1018300003F40043002B7BD0FB6903F00403002B6F
:1018400072D03B6A03F48073002B08D0FB6803F06E
:101850000103002B03D07B6A43F001037B623B6AE8
:1018600003F40073002B08D0FB6803F00203002B85
:1018700003D07B6A43F002037B623B6A03F480631C
:10188000002B08D0FB6803F00403002B03D07B6A15
:1018900043F004037B623B6A03F40063002B43D0F4
:1018A000FB6803F07003002B3ED0FB6803F070036D
:1018B000602B2BD0602B2ED8502B22D0502B2AD827
:1018C000402B19D0402B26D8302B10D0302B22D8CB
:1018D000102B02D0202B05D01DE07B6A43F00803BB
:1018E0007B6219E07B6A43F010037B6214E07B6A41
:1018F00043F020037B620FE07B6A43F040037B628E
:101900000AE07B6A43F080037B6205E07B6A43F474
:1019100080737B6200E000BF7B681B689A697B680C
:101920001B6822F070029A617B681B6804225A606F
:101930007B6A002B08D07B685A6A7B6A1A437B68F3
:101940005A62786800F070F800BF2837BD4680BD45
:1019500080B483B000AF786000BF0C37BD4680BC58
:10196000704780B483B000AF786000BF0C37BD46CD
:1019700080BC704780B483B000AF786000BF0C3784
:10198000BD4680BC704780B483B000AF786000BFB4
:101990000C37BD4680BC704780B483B000AF786020
:1019A00000BF0C37BD4680BC704780B483B000AF29
:1019B000786000BF0C37BD4680BC704780B483B0F0
:1019C00000AF786000BF0C37BD4680BC704780B464
:1019D00083B000AF786000BF0C37BD4680BC704755
:1019E00080B483B000AF786000BF0C37BD4680BCC8
:1019F000704780B483B000AF786000BF0C37BD463D
:101A000080BC704780B483B000AF786000BF0C37F3
:101A1000BD4680BC704780B483B000AF786000BF23
:101A20000C37BD4680BC704780B483B000AF78608F
:101A300000BF0C37BD4680BC7047000080B500AFCA
:101A40000E4B1B680D4A43F4007313600B4B1B686D
:101A50000A4A43F480631360084B1B68074A43F447
:101A600080731360032000F09BFD0F20FFF7ACF99B
:101A7000FFF77EF90023184680BD00BF003C0240FE
:101A800080B400AF054B1B781A46054B1B68134406
:101A9000034A136000BFBD4680BC70476800002049
:101AA000A801002080B400AF024B1B681846BD4659
:101AB00080BC7047A801002080B58AB000AF786074
:101AC0007B68002B01D101233BE27B681B6803F09C
:101AD0000103002B50D09E4B9B6803F00C03042B9A
:101AE0000CD09B4B9B6803F00C03082B12D1984B36
:101AF0005B6803F48003B3F5800F0BD1944B1B6834
:101B000003F40033002B36D07B685B68002B32D1A6
:101B1000012316E27B685A688E4BD2B21A707B683A
:101B20005B68002B13D0FFF7BDFF386208E0FFF7BA
:101B3000B9FF02463B6AD31A642B01D9032300E2A2
:101B4000834B1B6803F40033002BF0D014E0FFF745
:101B5000A9FF386208E0FFF7A5FF02463B6AD31AE7
:101B6000642B01D90323ECE1794B1B6803F40033A8
:101B7000002BF0D100E000BF7B681B6803F002037C
:101B8000002B77D0724B9B6803F00C03002B0BD01B
:101B90006F4B9B6803F00C03082B26D16C4B5B68E2
:101BA00003F48003002B20D1694B1B6803F0020370
:101BB000002B05D07B68DB68012B01D00123C0E13D
:101BC000634B1B6823F0F8027B681B69F821B9613D
:101BD000B96991FAA1F179617969B1FA81F1C9B272
:101BE0008B405B4913430B6044E07B68DB68002B50
:101BF0002AD0594B01221A60FFF754FF386208E0DF
:101C0000FFF750FF02463B6AD31A022B01D9032388
:101C100097E14F4B1B6803F00203002BF0D04C4BB5
:101C20001B6823F0F8027B681B69F8213961396968
:101C300091FAA1F1F960F968B1FA81F1C9B28B406A
:101C4000434913430B6015E0434B00221A60FFF732
:101C500029FF386208E0FFF725FF02463B6AD31AE6
:101C6000022B01D903236CE1394B1B6803F00203FB
:101C7000002BF0D17B681B6803F00803002B30D0E9
:101C80007B685B69002B16D0344B01221A60FFF78A
:101C900009FF386208E0FFF705FF02463B6AD31AE6
:101CA000022B01D903234CE1294B5B6F03F00203A4
:101CB000002BF0D015E0294B00221A60FFF7F2FE4E
:101CC000386208E0FFF7EEFE02463B6AD31A022BA9
:101CD00001D9032335E11E4B5B6F03F00203002B98
:101CE000F0D17B681B6803F00403002B00F08780B1
:101CF000002387F82730164B1B6C03F08053002B12
:101D000010D10023BB60124B1B6C114A43F080536F
:101D100013640F4B1B6C03F08053BB60BB68012343
:101D200087F827300E4B1B680D4A43F4807313600D
:101D30000B4B1B6803F48073002B22D1084B1B68EC
:101D4000074A43F480731360FFF7ACFE386212E079
:101D5000003802400238024000004742800E4742ED
:101D600000700040FFF79EFE02463B6AD31A022B2A
:101D700001D90323E5E0754B1B6803F48073002B46
:101D8000F0D07B689A68724BD2B21A707B689B68FD
:101D9000002B15D0FFF786FE38620AE0FFF782FEBF
:101DA00002463B6AD31A41F28832934201D9032397
:101DB000C7E0684B1B6F03F00203002BEED014E06A
:101DC000FFF770FE38620AE0FFF76CFE02463B6ADE
:101DD000D31A41F28832934201D90323B1E05D4B1B
:101DE0001B6F03F00203002BEED197F82730012B75
:101DF00005D1584B1B6C574A23F0805313647B6802
:101E00009B69002B00F09C80524B9B6803F00C03F5
:101E1000082B61D07B689B69022B46D14E4B002278
:101E20001A60FFF73FFE386208E0FFF73BFE02460C
:101E30003B6AD31A642B01D9032382E0454B1B680C
:101E400003F00073002BF0D1424B5A68434B134010
:101E50007A68D1697A68126A11437A68526A920183
:101E600011437A68D26A120611437A68926A52085C
:101E7000013A12040A43374913434B60364B01229F
:101E80001A60FFF70FFE386208E0FFF70BFE02460C
:101E90003B6AD31A642B01D9032352E02D4B1B68F4
:101EA00003F00073002BF0D04AE02B4B00221A60A5
:101EB000FFF7F8FD386208E0FFF7F4FD02463B6AE1
:101EC000D31A642B01D903233BE0224B1B6803F098
:101ED0000073002BF0D133E07B689B69012B01D1AB
:101EE00001232EE01B4B5B68FB61FB6903F480025E
:101EF0007B68DB699A4221D1FB6903F03F027B6872
:101F00001B6A9A421AD1FA6947F6C07313407A687D
:101F1000526A9201934211D1FB6903F440327B680B
:101F20009B6A5B08013B1B049A4207D1FB6903F0E3
:101F300070627B68DB6A1B069A4201D0012300E0D5
:101F4000002318462837BD4680BD00BF0070004002
:101F50007038024000380240600047420080BCF008
:101F600080B586B000AF786039607B68002B01D106
:101F70000123D2E06B4B1B6803F00F033A689A42CF
:101F80000CD9684B3A68D2B21A70664B1B6803F0E2
:101F90000F033A689A4201D00123BEE07B681B68B8
:101FA00003F00203002B20D07B681B6803F00403BE
:101FB000002B05D05C4B9B685B4A43F4E053936075
:101FC0007B681B6803F00803002B05D0564B9B6809
:101FD000554A43F460439360534B9B6823F0F002EF
:101FE0007B689B68504913438B607B681B6803F0D8
:101FF0000103002B40D07B685B68012B07D14A4B63
:102000001B6803F40033002B15D1012385E07B68A6
:102010005B68022B07D1444B1B6803F00073002B55
:1020200009D1012379E0404B1B6803F00203002B28
:1020300001D1012371E03C4B9B6823F003027B68D4
:102040005B68394913438B60FFF72CFD78610AE028
:10205000FFF728FD02467B69D31A41F2883293428A
:1020600001D9032359E0304B9B6803F00C027B68D5
:102070005B689B009A42EBD12A4B1B6803F00F036D
:102080003A689A420CD2274B3A68D2B21A70254B62
:102090001B6803F00F033A689A4201D001233CE029
:1020A0007B681B6803F00403002B08D01E4B9B6861
:1020B00023F4E0527B68DB681B4913438B607B6829
:1020C0001B6803F00803002B09D0174B9B6823F40F
:1020D00060427B681B69DB00134913438B6000F08F
:1020E0002BF80146104B9B6803F0F003F0223A6195
:1020F0003A6992FAA2F2FA60FA68B2FA82F2D2B2BD
:10210000D3400A4AD35C21FA03F3094A1360094B0E
:102110001B681846FEF758FE002318461837BD46C0
:1021200080BD00BF003C024000380240246300082C
:102130006C000020640000202DE9B04F94B000AF87
:1021400000237B640023FB6400233B640023BB6407
:102150007C4B9B6803F00C03082B0DD0082B00F27E
:10216000E780002B02D0042B03D0E1E0764BBB6468
:10217000E1E0764BBB64DEE0724B5B6803F03F034B
:102180007B64704B5B6803F48003002B65D06D4B60
:102190005B689B090022BB63FA63BB6BC3F3080354
:1021A0003B6300237B63D7E90C4522462B464FF067
:1021B00000004FF00001590141EAD261500102468E
:1021C0000B462146511A3961294663EB01037B61B5
:1021D0004FF000024FF00003D7E904AB59468B01E2
:1021E000514643EA916351468A01D446B2EB0C084A
:1021F000594663EB01094FF000024FF000034FEA2C
:10220000C90343EA58734FEAC802904699462346E9
:1022100018EB0303BB602B4649EB0303FB604FF055
:1022200000024FF00003D7E9024529464B02204641
:102230002946044643EAD45301464A021046194649
:102240007B6C0022BB62FA62D7E90A23FDF7C0FF6C
:1022500002460B461346FB645CE03A4B5B689B0905
:10226000002218461146C0F308033B6200237B623C
:10227000D7E9088942464B464FF000004FF0000175
:10228000590141EAD261500102460B46C446B2EB05
:102290000C0A404649468C4663EB0C0B4FF000029B
:1022A0004FF000034FEA8B1343EA9A634FEA8A1216
:1022B000B2EB0A0463EB0B054FF000024FF0000392
:1022C000EB0043EA5473E20014461D460346E3184C
:1022D0003B600B4645EB03037B604FF000024FF081
:1022E0000003D7E9004529468B02204629460446CB
:1022F00043EA945301468A02104619467B6C002239
:10230000BB61FA61D7E90623FDF762FF02460B467F
:102310001346FB640B4B5B681B0C03F00303013398
:102320005B003B64FA6C3B6CB2FBF3F3BB6402E012
:10233000054BBB6400BFBB6C18465037BD46BDE8BB
:10234000B08F00BF003802400024F40000127A0071
:1023500080B400AF024B1B681846BD4680BC704776
:102360006C00002080B582B000AFFFF7F1FF01469E
:102370000B4B9B6803F4E0534FF4E0527A607A68A9
:1023800092FAA2F23A603A68B2FA82F2D2B2D3403A
:10239000044AD35C21FA03F318460837BD4680BDD2
:1023A000003802403463000880B582B000AFFFF708
:1023B000CFFF01460B4B9B6803F460434FF4604230
:1023C0007A607A6892FAA2F23A603A68B2FA82F2D5
:1023D000D2B2D340044AD35C21FA03F3184608373B
:1023E000BD4680BD003802403463000880B483B02D
:1023F00000AF786039607B680F221A60114B9B68D0
:1024000003F003027B685A600E4B9B6803F0F002F6
:102410007B689A600B4B9B6803F4E0527B68DA6040
:10242000084B9B68DB0803F4E0527B681A61064B9B
:102430001B6803F00F023B681A6000BF0C37BD46F3
:1024400080BC704700380240003C024080B485B038
:1024500000AF78607B6803F00703FB600C4BDB6820
:10246000BB60BA684FF6FF031340BB60FB681A02FB
:10247000BB68134343F0BF6343F40033BB60044ABB
:10248000BB68D36000BF1437BD4680BC704700BF37
:1024900000ED00E080B400AF044BDB681B0A03F0E2
:1024A00007031846BD4680BC704700BF00ED00E042
:1024B00080B483B000AF0346FB7197F90730002B5F
:1024C0000BDBFB7903F01F02064997F907305B0924
:1024D000012000FA02F241F8232000BF0C37BD466C
:1024E00080BC704700E100E080B483B000AF0346D9
:1024F0003960FB7197F90730002B0ADB3B68DAB2D1
:102500000C4997F907301201D2B20B4483F800232B
:102510000AE03B68DAB20849FB7903F00F03043B99
:102520001201D2B20B441A7600BF0C37BD4680BCF4
:10253000704700BF00E100E000ED00E080B489B02A
:1025400000AFF860B9607A60FB6803F00703FB61D5
:10255000FB69C3F10703042B28BF0423BB61FB699C
:102560000433062B02D9FB69033B00E000237B61A7
:102570004FF0FF32BB6902FA03F3DA43BB681A403B
:102580007B699A404FF0FF317B6901FA03F3D9432D
:102590007B680B40134318462437BD4680BC704708
:1025A00080B582B000AF78607868FFF74FFF00BF5A
:1025B0000837BD4680BD80B586B000AF0346B96020
:1025C0007A60FB7300237B61FFF764FF78617A68B0
:1025D000B9687869FFF7B2FF024697F90F301146E4
:1025E0001846FFF781FF00BF1837BD4680BD80B594
:1025F00082B000AF0346FB7197F907301846FFF72A
:1026000057FF00BF0837BD4680BD000080B487B0CB
:1026100000AF7860396000237B616FE13B681A6826
:1026200001217B6901FA03F31340FB60FB68002B77
:1026300000F061813B685B6803F00303012B05D068
:102640003B685B6803F00303022B30D17B689B6817
:102650003B617B695B00032202FA03F3DB433A69C7
:1026600013403B613B68DA687B695B0002FA03F365
:102670003A6913433B617B683A699A607B685B689F
:102680003B6101227B6902FA03F3DB433A691340A1
:102690003B613B685B681B0903F001027B6902FA3E
:1026A00003F33A6913433B617B683A695A603B68BC
:1026B0005B6803F00303032B17D07B68DB683B6187
:1026C0007B695B00032202FA03F3DB433A691340A0
:1026D0003B613B689A687B695B0002FA03F33A69E5
:1026E00013433B617B683A69DA603B685B6803F0DF
:1026F0000303022B23D17B69DA087B68083253F885
:1027000022303B617B6903F007039B000F2202FA32
:1027100003F3DB433A6913403B613B681A697B6909
:1027200003F007039B0002FA03F33A6913433B618A
:102730007B69DA087B680832396943F822107B68C4
:102740001B683B617B695B00032202FA03F3DB43F6
:102750003A6913403B613B685B6803F003027B69A5
:102760005B0002FA03F33A6913433B617B683A6901
:102770001A603B685B6803F44033002B00F0BB80B9
:102780000023BB60644B5B6C634A43F48043536437
:10279000614B5B6C03F48043BB60BB685F4A7B6941
:1027A0009B08023352F823303B617B6903F003033B
:1027B0009B000F2202FA03F3DB433A6913403B61AB
:1027C0007B68574A934231D07B68564A93422BD05C
:1027D0007B68554A934225D07B68544A93421FD068
:1027E0007B68534A934219D07B68524A934213D074
:1027F0007B68514A93420DD07B68504A934207D080
:102800007B684F4A934201D1082310E009230EE070
:1028100007230CE006230AE0052308E0042306E072
:10282000032304E0022302E0012300E000237A698D
:1028300002F00302920093401A463B6913433B6146
:1028400036497B699B0802333A6941F823203D4BA6
:102850009B683B61FB68DB433A6913403B613B6823
:102860005B6803F48013002B03D03A69FB681343C1
:102870003B61344A3B699360324BDB683B61FB68E8
:10288000DB433A6913403B613B685B6803F4001328
:10289000002B03D03A69FB6813433B61294A3B692B
:1028A000D360284B5B683B61FB68DB433A691340AC
:1028B0003B613B685B6803F40033002B03D03A694B
:1028C000FB6813433B611F4A3B6953601D4B1B6808
:1028D0003B61FB68DB433A6913403B613B685B68E3
:1028E00003F48033002B03D03A69FB6813433B6148
:1028F000144A3B6913607B6901337B613B681A684A
:102900007B6922FA03F3002B7FF488AE00BF00BF7F
:102910001C37BD4680BC704700380240003801407B
:10292000000002400004024000080240000C024087
:10293000001002400014024000180240001C024037
:1029400000200240003C014080B483B000AF7860BA
:102950000B467B8013467B707B78002B03D07A88F4
:102960007B689A6103E07B881A047B689A6100BFE8
:102970000C37BD4680BC704780B584B000AF78602E
:102980007B689B6DFB60FFF78DF8B8607B6893F800
:102990003530DBB2022B08D07B6880225A657B6819
:1029A000002283F83420012352E07B681B681A68F8
:1029B0007B681B6822F016021A607B681B685A69E4
:1029C0007B681B6822F080025A617B681B6C002BBD
:1029D00003D17B689B6C002B07D07B681B681A684F
:1029E0007B681B6822F008021A607B681B681A6803
:1029F0007B681B6822F001021A6013E0FFF752F8AF
:102A00000246BB68D31A052B0CD97B6820225A6575
:102A10007B68032283F835207B68002283F834200A
:102A2000032315E07B681B681B6803F00103002B80
:102A3000E4D17B68DB6D3F229A40FB689A607B683B
:102A4000012283F835207B68002283F8342000239C
:102A500018461037BD4680BD80B483B000AF7860A3
:102A60007B6893F83530DBB2022B04D07B68802280
:102A70005A6501230CE07B68052283F835207B68CA
:102A80001B681A687B681B6822F001021A60002329
:102A900018460C37BD4680BC704780B582B000AF89
:102AA00078607B68002B01D1012342E07B6893F8BA
:102AB0004130DBB2002B06D17B68002283F8402036
:102AC0007868FEF78BF87B68242283F841207B68C6
:102AD0001B68DA687B681B6822F40052DA60786849
:102AE00000F080FC7B681B681A697B681B6822F415
:102AF00090421A617B681B685A697B681B6822F0E8
:102B00002A025A617B681B68DA687B681B6842F49A
:102B10000052DA607B6800225A647B68202283F8C6
:102B200041207B68202283F842207B6800225A6380
:102B3000002318460837BD4680BD000080B5BAB0F6
:102B400000AF78607B681B681B68C7F8E4307B685F
:102B50001B68DB68C7F8E0307B681B685B69C7F8F7
:102B6000DC300023C7F8D8300023C7F8D430D7F8BA
:102B7000E43003F00F03C7F8D830D7F8D830002B73
:102B80000FD1D7F8E43003F02003002B09D0D7F899
:102B9000E03003F02003002B03D0786800F063FBE3
:102BA0005BE2D7F8D830002B00F0DE80D7F8DC30BD
:102BB00003F00103002B06D1D7F8E03003F4907343
:102BC000002B00F0D180D7F8E43003F00103002B94
:102BD0000BD0D7F8E03003F48073002B05D07B686E
:102BE0005B6C43F001027B685A64D7F8E43003F071
:102BF0000403002B0BD0D7F8DC3003F00103002BCB
:102C000005D07B685B6C43F002027B685A64D7F89E
:102C1000E43003F00203002B0BD0D7F8DC3003F0D4
:102C20000103002B05D07B685B6C43F004027B68DA
:102C30005A64D7F8E43003F00803002B11D0D7F81A
:102C4000E03003F02003002B05D1D7F8DC3003F08F
:102C50000103002B05D07B685B6C43F008027B68A6
:102C60005A647B685B6C002B00F0F281D7F8E4308B
:102C700003F02003002B08D0D7F8E03003F0200346
:102C8000002B02D0786800F0EEFA7B681B685B6965
:102C900003F04003402B0CBF01230023DBB2C7F835
:102CA000D4307B685B6C03F00803002B03D1D7F8AA
:102CB000D430002B4FD0786800F0F8F97B681B689F
:102CC0005B6903F04003402B41D17B681B681433E0
:102CD000C7F89C30D7F89C3053E8003FC7F89830CD
:102CE000D7F8983023F04003C7F8D0307B681B68D2
:102CF0001433D7F8D020C7F8A820C7F8A430D7F8E5
:102D0000A410D7F8A82041E80023C7F8A030D7F8CE
:102D1000A030002BD9D17B68DB6B002B13D07B68F4
:102D2000DB6B7E4A1A657B68DB6B1846FFF794FE07
:102D30000346002B16D07B68DB6B1B6D7A68D26B69
:102D4000104698470EE0786800F09CF90AE0786831
:102D500000F098F906E0786800F094F97B680022AA
:102D60005A6475E100BF73E17B681B6B012B40F077
:102D70004F81D7F8E43003F01003002B00F04881B6
:102D8000D7F8E03003F01003002B00F0418100235E
:102D9000BB607B681B681B68BB607B681B685B68EB
:102DA000BB60BB687B681B685B6903F04003402B1A
:102DB00040F0B6807B68DB6B1B685B68A7F8BE30B1
:102DC000B7F8BE30002B00F045817B689B8DB7F8CB
:102DD000BE209A4280F03E817B68B7F8BE20DA853B
:102DE0007B68DB6BDB69B3F5807F00F088807B68F4
:102DF0001B680C33C7F88830D7F8883053E8003F99
:102E0000C7F88430D7F8843023F48073C7F8B8301B
:102E10007B681B680C33D7F8B820C7F89420C7F834
:102E20009030D7F89010D7F8942041E80023C7F8E5
:102E30008C30D7F88C30002BD9D17B681B681433C9
:102E40007B677B6F53E8003F3B673B6F23F00103D9
:102E5000C7F8B4307B681B681433D7F8B420C7F8C0
:102E60008020FB67F96FD7F8802041E80023BB671B
:102E7000BB6F002BE1D17B681B6814333B663B6E54
:102E800053E8003FFB65FB6D23F04003C7F8B0300B
:102E90007B681B681433D7F8B020FA66BB66B96E3E
:102EA000FA6E41E800237B667B6E002BE3D17B68E2
:102EB000202283F842207B6800221A637B681B680B
:102EC0000C33FB64FB6C53E8003FBB64BB6C23F02A
:102ED0001003C7F8AC307B681B680C33D7F8AC2004
:102EE000BA657B65796DBA6D41E800233B653B6D42
:102EF000002BE3D17B68DB6B1846FFF73DFD7B6859
:102F000002225A637B689A8D7B68DB8D9BB2D31A51
:102F10009BB21946786800F0BEF89BE0713100085A
:102F20007B689A8D7B68DB8D9BB2D31AA7F8CE3075
:102F30007B68DB8D9BB2002B00F08E80B7F8CE3023
:102F4000002B00F089807B681B680C33BB63BB6B74
:102F500053E8003F7B637B6B23F49073C7F8C83062
:102F60007B681B680C33D7F8C8207A643B64396CE3
:102F70007A6C41E80023FB63FB6B002BE3D17B6899
:102F80001B6814337B627B6A53E8003F3B623B6AF9
:102F900023F00103C7F8C4307B681B681433D7F8EB
:102FA000C4203A63FB62F96A3A6B41E80023BB62D2
:102FB000BB6A002BE3D17B68202283F842207B6828
:102FC00000221A637B681B680C333B613B6953E842
:102FD000003FFB60FB6823F01003C7F8C0307B683C
:102FE0001B680C33D7F8C020FA61BB61B969FA6974
:102FF00041E800237B617B69002BE3D17B680222DF
:103000005A63B7F8CE301946786800F044F823E0E8
:10301000D7F8E43003F08003002B09D0D7F8E03074
:1030200003F08003002B03D0786800F0B5F814E0BB
:10303000D7F8E43003F04003002B0ED0D7F8E0308F
:1030400003F04003002B08D0786800F0F4F804E0A7
:1030500000BF02E000BF00E000BFE837BD4680BD12
:1030600080B483B000AF786000BF0C37BD4680BC31
:10307000704780B483B000AF786000BF0C37BD46A6
:1030800080BC704780B483B000AF786000BF0C375D
:10309000BD4680BC704780B483B000AF78600B46FB
:1030A0007B8000BF0C37BD4680BC704780B495B0B4
:1030B00000AF78607B681B680C337B637B6B53E8E5
:1030C000003F3B633B6B23F49073FB647B681B689E
:1030D0000C33FA6C3A64FB63F96B3A6C41E80023F9
:1030E000BB63BB6B002BE5D17B681B6814333B6271
:1030F0003B6A53E8003FFB61FB6923F00103BB64BB
:103100007B681B681433BA6CFA62BB62B96AFA6AEC
:1031100041E800237B627B6A002BE5D17B681B6B57
:10312000012B19D17B681B680C33FB60FB6853E8EB
:10313000003FBB60BB6823F010037B647B681B68A7
:103140000C337A6CBA617B617969BA6941E8002312
:103150003B613B69002BE5D17B68202283F842204C
:103160007B6800221A6300BF5437BD4680BC70479D
:1031700080B584B000AF78607B689B6BFB60FB68B8
:103180000022DA85FB680022DA84F868FFF77AFF0C
:1031900000BF1037BD4680BD80B485B000AF7860F9
:1031A0007B6893F84130DBB2212B3ED17B689B6872
:1031B000B3F5805F14D17B681B69002B10D17B684D
:1031C0001B6AFB60FB681B881A467B681B68C2F39E
:1031D00008025A607B681B6A9A1C7B681A6208E0C6
:1031E0007B681B6A591C7A6811621A787B681B68B5
:1031F0005A607B68DB8C9BB2013B9BB27A681946B4
:10320000D184002B0FD17B681B68DA687B681B6850
:1032100022F08002DA607B681B68DA687B681B68D2
:1032200042F04002DA60002300E00223184614371F
:10323000BD4680BC704780B582B000AF78607B68C7
:103240001B68DA687B681B6822F04002DA607B68E2
:10325000202283F841207868FFF702FF00231846F8
:103260000837BD4680BD80B58CB000AF78607B6804
:1032700093F84230DBB2222B40F0AE807B689B6833
:10328000B3F5805F17D17B681B69002B13D1002336
:10329000FB627B689B6ABB627B681B685B689BB256
:1032A000C3F308039AB2BB6A1A807B689B6A9A1CB4
:1032B0007B689A6226E07B689B6AFB620023BB62A4
:1032C0007B689B68B3F5805F07D07B689B68002BA9
:1032D0000AD17B681B69002B06D17B681B685B6881
:1032E000DAB2FB6A1A7008E07B681B685B68DBB2C5
:1032F00003F07F03DAB2FB6A1A707B689B6A5A1C80
:103300007B689A627B68DB8D9BB2013B9BB27A68DB
:103310001946D185002B5DD17B681B68DA687B6814
:103320001B6822F02002DA607B681B68DA687B6821
:103330001B6822F48072DA607B681B685A697B68BC
:103340001B6822F001025A617B68202283F8422028
:103350007B6800225A637B681B6B012B35D17B682D
:1033600000221A637B681B680C337B617B6953E81E
:10337000003F3B613B6923F010037B627B681B6865
:103380000C337A6A3A62FB61F9693A6A41E80023D0
:10339000BB61BB69002BE5D17B681B681B6803F030
:1033A0001003102B0AD10023FB607B681B681B688D
:1033B000FB607B681B685B68FB60FB687B689B8DC0
:1033C00019467868FFF767FE02E07868FFF751FE5C
:1033D000002302E0002300E0022318463037BD46F8
:1033E00080BD000080B584B000AF78607B681B684A
:1033F0001B6923F440517B68DA687B681B680A43C9
:103400001A617B689A687B681B691A437B685B69F1
:103410001A437B68DB691343BB607B681B68DB680E
:1034200023F4164323F00C037A681268B9680B433F
:10343000D3607B681B685B6923F440717B689A6981
:103440007B681B680A435A617B681B68574A934232
:1034500004D07B681B68564A934203D1FEF7A4FF51
:10346000F86002E0FEF77EFFF8607B68DB69B3F589
:10347000004F4CD1FA6813469B0013449A001A443B
:103480007B685B685B00B2FBF3F34A4AA2FB032351
:103490005B091901FA6813469B0013449A001A4409
:1034A0007B685B685B00B2FBF3F2424BA3FB020359
:1034B0005B09642000FB03F3D31ADB0032333D4A7F
:1034C000A2FB03235B095B0003F4F8731944FA6859
:1034D00013469B0013449A001A447B685B685B00A8
:1034E000B2FBF3F2334BA3FB02035B09642000FB46
:1034F00003F3D31ADB0032332E4AA2FB03235B090A
:1035000003F007027B681B680A449A604AE0FA6885
:1035100013469B0013449A001A447B685B689B0027
:10352000B2FBF3F3234AA2FB03235B091901FA68F8
:1035300013469B0013449A001A447B685B689B0007
:10354000B2FBF3F21B4BA3FB02035B09642000FBFD
:1035500003F3D31A1B013233164AA2FB03235B0980
:1035600003F0F0031944FA6813469B0013449A00D1
:103570001A447B685B689B00B2FBF3F20D4BA3FB24
:1035800002035B09642000FB03F3D31A1B013233EF
:10359000084AA2FB03235B0903F00F027B681B6848
:1035A0000A449A6000BF1037BD4680BD001001403C
:1035B000001401401F85EB5180B400AF00BFBD4631
:1035C00080BC704780B483B000AF78607B6803F143
:1035D00008027B685A607B684FF0FF329A607B6814
:1035E00003F108027B68DA607B6803F108027B68FC
:1035F0001A617B6800221A6000BF0C37BD4680BC90
:10360000704780B483B000AF78607B6800221A6195
:1036100000BF0C37BD4680BC704780B485B000AF9A
:10362000786039607B685B68FB603B68FA685A6069
:10363000FB689A683B689A60FB689B683A685A60C6
:10364000FB683A689A603B687A681A617B681B6815
:103650005A1C7B681A6000BF1437BD4680BC704797
:1036600080B485B000AF786039603B681B68BB6090
:10367000BB68B3F1FF3F03D17B681B69FB600CE0C3
:103680007B680833FB6002E0FB685B68FB60FB68FB
:103690005B681B68BA689A42F6D2FB685A683B6856
:1036A0005A603B685B683A689A603B68FA689A605F
:1036B000FB683A685A603B687A681A617B681B68E5
:1036C0005A1C7B681A6000BF1437BD4680BC704727
:1036D00080B485B000AF78607B681B69FB607B6855
:1036E0005B687A6892689A607B689B687A685268BF
:1036F0005A60FB685B687A689A4203D17B689A6873
:10370000FB685A607B6800221A61FB681B685A1EBE
:10371000FB681A60FB681B6818461437BD4680BCFE
:103720007047000080B584B000AF786039607B6876
:10373000FB60FB68002B0AD14FF0500383F3118824
:10374000BFF36F8FBFF34F8FBB6000BFFEE702F088
:10375000DDFAFB681A68FB68DB6BF968096C01FB32
:1037600003F31A44FB689A60FB6800229A63FB68C3
:103770001A68FB685A60FB681A68FB68DB6B013BE0
:10378000F968096C01FB03F31A44FB68DA60FB6813
:10379000FF2283F84420FB68FF2283F845203B6822
:1037A000002B14D1FB681B69002B1AD0FB68103367
:1037B000184601F08BF90346002B12D00C4B4FF04A
:1037C00080521A60BFF34F8FBFF36F8F09E0FB6821
:1037D00010331846FFF7F6FEFB6824331846FFF750
:1037E000F1FE02F0C3FA012318461037BD4680BD32
:1037F00004ED00E080B58EB002AFF860B9607A6089
:103800003B60FB68002B0AD14FF0500383F3118813
:10381000BFF36F8FBFF34F8FBB6200BFFEE73B6804
:10382000002B0AD14FF0500383F31188BFF36F8F41
:10383000BFF34F8F7B6200BFFEE77B68002B02D097
:10384000BB68002B01D0012300E00023002B0AD12C
:103850004FF0500383F31188BFF36F8FBFF34F8F87
:103860003B6200BFFEE77B68002B02D1BB68002BE8
:1038700001D1012300E00023002B0AD14FF05003B7
:1038800083F31188BFF36F8FBFF34F8FFB6100BFCE
:10389000FEE750237B617B69502B0AD04FF0500329
:1038A00083F31188BFF36F8FBFF34F8FBB6100BFEE
:1038B000FEE77B693B68FB62FB6A002B0DD0FB6A6D
:1038C000012283F8462097F83820FB6A00931346BC
:1038D0007A68B968F86800F03FF8FB6A1846303734
:1038E000BD4680BD80B58AB002AFF860B9601346AE
:1038F000FB71FB68002B0AD14FF0500383F3118852
:10390000BFF36F8FBFF34F8F3B6100BFFEE7FB68D4
:10391000BA6802FB03F3FB61FB695033184602F0FF
:10392000A3F8B861BB69002B11D0BB697B617B69CF
:1039300050337B61BB69002283F84620FA79BB696A
:10394000009313467A69B968F86800F005F8BB6916
:1039500018462037BD4680BD80B584B000AFF86002
:10396000B9607A60FB70BB68002B03D1BB69BA6990
:103970001A6002E0BB697A681A60BB69FA68DA63A8
:10398000BB69BA681A640121B869FFF7CBFEBB694D
:10399000FA7883F84C2000BF1037BD4680BD000088
:1039A00080B58EB000AFF860B9607A603B600023EC
:1039B0007B63FB683B633B6B002B0AD14FF05003EA
:1039C00083F31188BFF36F8FBFF34F8FBB6200BFCC
:1039D000FEE7BB68002B03D13B6B1B6C002B01D1B6
:1039E000012300E00023002B0AD14FF0500383F3A2
:1039F0001188BFF36F8FBFF34F8F7B6200BFFEE76D
:103A00003B68022B03D13B6BDB6B012B01D1012304
:103A100000E00023002B0AD14FF0500383F31188FC
:103A2000BFF36F8FBFF34F8F3B6200BFFEE701F024
:103A30000FFA0346002B02D17B68002B01D1012332
:103A400000E00023002B0AD14FF0500383F31188CC
:103A5000BFF36F8FBFF34F8FFB6100BFFEE702F034
:103A600055F93B6B9A6B3B6BDB6B9A4202D33B681D
:103A7000022B29D13A68B968386B00F00BFAF8626A
:103A80003B6B5B6A002B10D03B6B2433184601F074
:103A90001DF80346002B13D03F4B4FF080521A60A5
:103AA000BFF34F8FBFF36F8F0AE0FB6A002B07D085
:103AB000394B4FF080521A60BFF34F8FBFF36F8FB7
:103AC00002F054F9012363E07B68002B03D102F07C
:103AD0004DF900235CE07B6B002B06D107F114034A
:103AE000184601F057F801237B6302F03FF900F01C
:103AF000C5FD02F00BF93B6B93F844305BB2B3F1B8
:103B0000FF3F03D13B6B002283F844203B6B93F8CB
:103B100045305BB2B3F1FF3F03D13B6B002283F82A
:103B2000452002F023F93A1D07F114031146184607
:103B300001F046F80346002B24D1386B00F0A2FABE
:103B40000346002B18D03B6B10337A681146184699
:103B500000F06CFF386B00F02DFA00F09DFD03467D
:103B6000002B7FF47CAF0C4B4FF080521A60BFF3F8
:103B70004F8FBFF36F8F72E7386B00F01BFA00F0C6
:103B80008BFD6CE7386B00F015FA00F085FD002323
:103B900018463837BD4680BD04ED00E080B590B0D2
:103BA00000AFF860B9607A603B60FB68BB63BB6BD9
:103BB000002B0AD14FF0500383F31188BFF36F8FAE
:103BC000BFF34F8FBB6200BFFEE7BB68002B03D182
:103BD000BB6B1B6C002B01D1012300E00023002BE9
:103BE0000AD14FF0500383F31188BFF36F8FBFF3F7
:103BF0004F8F7B6200BFFEE73B68022B03D1BB6B9C
:103C0000DB6B012B01D1012300E00023002B0AD143
:103C10004FF0500383F31188BFF36F8FBFF34F8FC3
:103C20003B6200BFFEE702F033F9EFF311824FF081
:103C3000500383F31188BFF36F8FBFF34F8FFA6187
:103C4000BB61FB697B63BB6B9A6BBB6BDB6B9A42A3
:103C500002D33B68022B2FD1BB6B93F8453087F81A
:103C60003330BB6B9B6BFB623A68B968B86B00F092
:103C700011F997F93330B3F1FF3F12D1BB6B5B6A97
:103C8000002B16D0BB6B2433184600F01FFF0346F1
:103C9000002B0ED07B68002B0BD07B6801221A60B2
:103CA00007E097F833300133DBB25AB2BB6B83F8CD
:103CB00045200123FB6301E00023FB637B6B7B61F9
:103CC0007B6983F3118800BFFB6B18464037BD4604
:103CD00080BD000080B58CB000AFF860B9607A603C
:103CE0000023FB62FB68BB62BB6A002B0AD14FF06A
:103CF000500383F31188BFF36F8FBFF34F8F3B6285
:103D000000BFFEE7BB68002B03D1BB6A1B6C002B16
:103D100001D1012300E00023002B0AD14FF0500312
:103D200083F31188BFF36F8FBFF34F8FFB6100BF29
:103D3000FEE701F08DF80346002B02D17B68002BD3
:103D400001D1012300E00023002B0AD14FF05003E2
:103D500083F31188BFF36F8FBFF34F8FBB6100BF39
:103D6000FEE701F0D3FFBB6A9B6B7B627B6A002B93
:103D70001FD0B968B86A00F0F7F87B6A5A1EBB6AB0
:103D80009A63BB6A1B69002B0FD0BB6A10331846BD
:103D900000F09CFE0346002B07D03D4B4FF08052B5
:103DA0001A60BFF34F8FBFF36F8F01F0DFFF012366
:103DB00069E07B68002B03D101F0D8FF002362E0AB
:103DC000FB6A002B06D107F11003184600F0E2FE53
:103DD0000123FB6201F0CAFF00F050FC01F096FFE6
:103DE000BB6A93F844305BB2B3F1FF3F03D1BB6AC7
:103DF000002283F84420BB6A93F845305BB2B3F1EC
:103E0000FF3F03D1BB6A002283F8452001F0AEFFDB
:103E10003A1D07F110031146184600F0D1FE034683
:103E2000002B23D1B86A00F017F90346002B17D0F6
:103E3000BB6A24337A681146184600F0F7FDB86A69
:103E400000F0B8F800F028FC0346002B89D1104B95
:103E50004FF080521A60BFF34F8FBFF36F8F80E730
:103E6000B86A00F0A7F800F017FC7AE7B86A00F02B
:103E7000A1F800F011FCB86A00F0EEF80346002B40
:103E80003FF46FAF002318463037BD4680BD00BFFA
:103E900004ED00E080B586B000AFF860B9607A60EC
:103EA00000237B61FB689B6B3B61FB681B6C002BF9
:103EB0000DD1FB681B68002B4DD1FB689B68184631
:103EC00000F0E4FF7861FB6800229A6043E07B68C1
:103ED000002B19D1FB685868FB681B6C1A46B9683F
:103EE00002F03DF8FB685A68FB681B6C1A44FB68DB
:103EF0005A60FB685A68FB689B689A422BD3FB6840
:103F00001A68FB685A6026E0FB68D868FB681B6C7F
:103F10001A46B96802F023F8FB68DA68FB681B6C84
:103F20005B421A44FB68DA60FB68DA68FB681B686E
:103F30009A4207D2FB689A68FB681B6C5B421A4482
:103F4000FB68DA607B68022B05D13B69002B02D04D
:103F50003B69013B3B613B695A1CFB689A637B6987
:103F600018461837BD4680BD80B582B000AF786076
:103F700039607B681B6C002B18D07B68DA687B6823
:103F80001B6C1A447B68DA607B68DA687B689B6824
:103F90009A4203D37B681A687B68DA607B68D968C9
:103FA0007B681B6C1A46386801F0D9FF00BF0837E0
:103FB000BD4680BD80B584B000AF786001F0A6FE3C
:103FC0007B6893F84530FB7311E07B685B6A002BDC
:103FD00012D07B682433184600F078FD0346002B8E
:103FE00001D000F04FFEFB7B013BDBB2FB7397F986
:103FF0000F30002BE9DC00E000BF7B68FF2283F874
:10400000452001F0B3FE01F081FE7B6893F8443057
:10401000BB7311E07B681B69002B12D07B681033E7
:10402000184600F053FD0346002B01D000F02AFE95
:10403000BB7B013BDBB2BB7397F90E30002BE9DC95
:1040400000E000BF7B68FF2283F8442001F08EFE71
:1040500000BF1037BD4680BD80B584B000AF78602A
:1040600001F054FE7B689B6B002B02D10123FB60A7
:1040700001E00023FB6001F079FEFB681846103771
:10408000BD4680BD80B584B000AF786001F03EFED3
:104090007B689A6B7B68DB6B9A4202D10123FB60E1
:1040A00001E00023FB6001F061FEFB681846103759
:1040B000BD4680BD80B485B000AF78603960002314
:1040C000FB6014E00E4AFB6852F83330002B0BD132
:1040D0000B49FB683A6841F83320094AFB68DB006A
:1040E00013447A685A6006E0FB680133FB60FB68A2
:1040F000072BE7D900BF00BF1437BD4680BC70470F
:10410000AC01002080B586B000AFF860B9607A607D
:10411000FB687B6101F0FAFD7B6993F844305BB288
:10412000B3F1FF3F03D17B69002283F844207B6910
:1041300093F845305BB2B3F1FF3F03D17B690022B6
:1041400083F8452001F012FE7B699B6B002B06D1A2
:104150007B6924337A68B968184600F08BFC78696B
:10416000FFF728FF00BF1837BD4680BD80B58EB071
:1041700004AFF860B9607A603B607B6B002B0AD1BA
:104180004FF0500383F31188BFF36F8FBFF34F8F4E
:104190003B6200BFFEE7BB6B002B0AD14FF0500320
:1041A00083F31188BFF36F8FBFF34F8FFB6100BFA5
:1041B000FEE74FF491633B613B69B3F5916F0AD021
:1041C0004FF0500383F31188BFF36F8FBFF34F8F0E
:1041D000BB6100BFFEE73B69BB6B002B1ED07B6B56
:1041E000002B1BD0BB6B7B627B6A7A6B1A637B6A8A
:1041F000022283F88524002303937B6A029307F14C
:10420000140301933B6B00933B687A68B968F868C4
:1042100000F051F8786A00F01DF901E000237B619D
:104220007B6918462837BD4680BD80B58CB004AF89
:10423000F860B9603B601346FB80FB889B00184622
:1042400001F012FC78617B69002B0FD04FF4916074
:1042500001F00AFCF861FB69002B03D0FB697A6965
:104260001A6305E0786901F045FC01E00023FB6179
:10427000FB69002B17D0FB69002283F88524FA889C
:1042800000230393FB690293FB6A0193BB6A0093CB
:104290003B68B968F86800F00EF8F86900F0DAF8E1
:1042A0000123BB6102E04FF0FF33BB61BB691846DD
:1042B0002037BD4680BD80B588B000AFF860B960DA
:1042C0007A603B603B6B186B7B689B001A46A521AC
:1042D000FCF726F93B6B1A6B7B6803F18043013BCB
:1042E0009B001344BB61BB6923F00703BB61BB693F
:1042F00003F00703002B0AD04FF0500383F311881B
:10430000BFF36F8FBFF34F8F7B6100BFFEE7BB68CA
:10431000002B1FD00023FB6112E0BA68FB69134435
:1043200019783A6BFB69134434330A461A70BA6839
:10433000FB6913441B78002B06D0FB690133FB613A
:10434000FB690F2BE9D900E000BF3B6B002283F82B
:10435000432003E03B6B002283F83420BB6A372BF9
:1043600001D93723BB623B6BBA6ADA623B6BBA6A2C
:10437000DA643B6B00221A653B6B04331846FFF787
:1043800040F93B6B18331846FFF73BF93B6B3A6B30
:104390001A61BB6AC3F138023B6B9A613B6B3A6BA3
:1043A0005A623B6B0022C3F880243B6B002283F8E7
:1043B00084243B6B58334FF4856200211846FCF788
:1043C000AFF83B6B03F551723B6BDA653B6B03F562
:1043D0006B723B6B1A663B6B03F214423B6B5A6683
:1043E000396B4FF001024FF00003C1E940233B6BF2
:1043F00043F20E32A3F808213B6B4AF6CD32A3F804
:104400000A213B6B41F23422A3F80C213B6B4EF2A4
:104410006D62A3F80E213B6B4DF6EC62A3F8102100
:104420003B6B0522A3F812213B6B0B22A3F814214E
:104430003A68F968B86901F075FB02463B6B1A608F
:10444000FB6A002B02D0FB6A3A6B1A6000BF203770
:10445000BD4680BD80B582B000AF786001F056FCEB
:104460002D4B1B6801332C4A13602C4B1B68002B0F
:1044700009D12A4A7B681360274B1B68012B10D196
:1044800000F024FC0DE0264B1B68002B09D1234BC8
:104490001B68DA6A7B68DB6A9A4202D81F4A7B682B
:1044A0001360204B1B6801331E4A13601D4B1A68B2
:1044B0007B685A647B68DA6A1B4B1B689A4203D993
:1044C0007B68DB6A184A13607B68DA6A13469B00D4
:1044D00013449B00154A1A447B680433194610465E
:1044E000FFF79BF801F042FC0D4B1B68002B0ED030
:1044F0000A4B1B68DA6A7B68DB6A9A4207D20C4B6C
:104500004FF080521A60BFF34F8FBFF36F8F00BF21
:104510000837BD4680BD00BFC0060020EC0100206A
:10452000CC060020DC060020C8060020F001002098
:1045300004ED00E080B584B000AF78600023FB603C
:104540007B68002B17D0134B1B68002B0AD04FF051
:10455000500383F31188BFF36F8FBFF34F8FBB609E
:1045600000BFFEE700F08AF80021786800F0FCFC4C
:1045700000F092F8F860FB68002B07D1064B4FF073
:1045800080521A60BFF34F8FBFF36F8F00BF103799
:10459000BD4680BDE806002004ED00E080B58AB08D
:1045A00004AF0023BB6000237B603A46391D07F14E
:1045B0000803184601F026FA39687B68BA68029247
:1045C00001930023009300230A4624492448FFF75F
:1045D000CDFD0346234A1360224B1B68002B02D0FB
:1045E00001237B6101E000237B617B69012B02D108
:1045F00000F00EFD78617B69012B1BD14FF0500359
:1046000083F31188BFF36F8FBFF34F8F3B6100BF00
:10461000154B1B685833154A1360154B4FF0FF328A
:104620001A60144B01221A60134B00221A6001F029
:10463000FBFA0EE07B69B3F1FF3F0AD14FF0500364
:1046400083F31188BFF36F8FBFF34F8FFB6000BF01
:10465000FEE700BF1837BD4680BD00BFBC61000843
:104660009D4C0008E4060020EC0100200000002022
:10467000E0060020CC060020C406002080B400AF75
:10468000044B1B680133034A136000BFBD4680BC66
:10469000704700BFE806002080B584B000AF00235B
:1046A000FB600023BB60424B1B68002B0AD14FF01C
:1046B000500383F31188BFF36F8FBFF34F8F3B60BD
:1046C00000BFFEE701F022FB394B1B68013B384A73
:1046D0001360374B1B68002B62D1364B1B68002BD5
:1046E0005ED02FE0344BDB68DB68FB60FB6818337F
:1046F0001846FEF7EDFFFB6804331846FEF7E8FFA7
:10470000FB68DA6A2D4B1B689A4203D9FB68DB6AA7
:104710002A4A1360FB68DA6A13469B0013449B0025
:10472000274A1A44FB68043319461046FEF775FF02
:10473000FB68DA6A234B1B68DB6A9A4202D3224B7E
:1047400001221A601C4B1B68002BCBD1FB68002B8D
:1047500001D000F05DFB1D4B1B687B607B68002B6C
:1047600010D000F045F80346002B02D0164B012272
:104770001A607B68013B7B607B68002BF1D1134B97
:1047800000221A60104B1B68002B09D00123BB606C
:104790000F4B4FF080521A60BFF34F8FBFF36F8FF4
:1047A00001F0E4FABB6818461037BD4680BD00BF73
:1047B000E8060020C006002080060020C806002071
:1047C000F0010020EC010020D4060020D0060020DB
:1047D00004ED00E080B483B000AF044B1B687B6045
:1047E0007B6818460C37BD4680BC7047C406002065
:1047F00080B586B000AF00237B614F4B1B68002B58
:1048000040F08F804D4B1B6801333B614B4A3B6945
:1048100013603B69002B20D1494B1B681B68002BA0
:104820000AD04FF0500383F31188BFF36F8FBFF3AB
:104830004F8F3B6000BFFEE7414B1B68FB60414B65
:104840001B683F4A13603F4AFB6813603E4B1B687E
:1048500001333D4A136000F0DBFA3C4B1B683A69B8
:104860009A4249D3364B1B681B68002B04D1374B47
:104870004FF0FF321A603FE0314B1B68DB68DB68AA
:10488000BB60BB685B687B603A697B689A4203D215
:104890002E4A7B6813602FE0BB6804331846FEF78E
:1048A00017FFBB689B6A002B04D0BB6818331846FF
:1048B000FEF70EFFBB68DA6A254B1B689A4203D9E4
:1048C000BB68DB6A224A1360BB68DA6A13469B0046
:1048D00013449B001F4A1A44BB6804331946104610
:1048E000FEF79BFEBB68DA6A1B4B1B68DB6A9A42C9
:1048F000B8D301237B61B5E7174B1B68DA6A15490A
:1049000013469B0013449B000B441B68012B01D9E9
:1049100001237B61114B1B68002B07D001237B61B6
:1049200004E00F4B1B6801330D4A13607B69184686
:104930001837BD4680BD00BFE8060020C406002031
:10494000780600207C060020D8060020E006002023
:10495000C8060020F0010020EC010020D406002051
:10496000D006002080B485B000AF2A4B1B68002B16
:1049700003D0294B01221A6046E0274B00221A601F
:10498000264B1B68FB6010E0FB68002B0AD14FF040
:10499000500383F31188BFF36F8FBFF34F8F7B609A
:1049A00000BFFEE7FB68013BFB601D49FA68134648
:1049B0009B0013449B000B441B68002BE4D0FA6857
:1049C00013469B0013449B00154A1344BB60BB680D
:1049D0005B685A68BB685A60BB685A68BB68083332
:1049E0009A4204D1BB685B685A68BB685A60BB686E
:1049F0005B68DB680B4A1360084AFB681360094B6D
:104A00001B685833084A136000BF1437BD4680BC8A
:104A1000704700BFE8060020D4060020C80600202A
:104A2000F0010020EC0100200000002080B584B0DF
:104A300000AF786039607B68002B0AD14FF05003DB
:104A400083F31188BFF36F8FBFF34F8FFB6000BFFD
:104A5000FEE7074B1B68183319467868FEF700FE1F
:104A60000121386800F080FA00BF1037BD4680BDD4
:104A7000EC01002080B586B000AFF860B9607A60C4
:104A8000FB68002B0AD14FF0500383F31188BFF36A
:104A90006F8FBFF34F8F7B6100BFFEE70A4B1B6830
:104AA00018331946F868FEF7B8FD7B68002B02D072
:104AB0004FF0FF33BB607968B86800F055FA00BF6B
:104AC0001837BD4680BD00BFEC01002080B586B020
:104AD00000AF78607B68DB68DB683B613B69002B7B
:104AE0000AD14FF0500383F31188BFF36F8FBFF3E8
:104AF0004F8FFB6000BFFEE73B6918331846FEF797
:104B0000E7FD1E4B1B68002B1DD13B690433184683
:104B1000FEF7DEFD3B69DA6A194B1B689A4203D93E
:104B20003B69DB6A164A13603B69DA6A13469B00ED
:104B300013449B00134A1A443B6904331946104638
:104B4000FEF76BFD05E03B69183319460E48FEF78A
:104B500064FD3B69DA6A0D4B1B68DB6A9A4205D932
:104B600001237B610A4B01221A6001E000237B6173
:104B70007B6918461837BD4680BD00BFE806002097
:104B8000C8060020F001002080060020EC01002073
:104B9000D406002080B483B000AF7860064B1A685A
:104BA0007B681A60054B1A687B685A6000BF0C3737
:104BB000BD4680BC704700BFD8060020C406002058
:104BC00080B588B000AF786039607B68002B0AD16F
:104BD0004FF0500383F31188BFF36F8FBFF34F8FF4
:104BE0003B6100BFFEE73B68002B0AD14FF050034A
:104BF00083F31188BFF36F8FBFF34F8FFB6000BF4C
:104C0000FEE701F083F81D4B1B68BB617B685B68A6
:104C1000BA69D31A7B613B681B68B3F1FF3F02D1CD
:104C20000023FB6123E07B681A68154B1B689A42DE
:104C300007D07B685B68BA699A4202D30123FB61A3
:104C400015E03B681B687A699A420BD23B681A6888
:104C50007B69D21A3B681A607868FFF79BFF0023D4
:104C6000FB6104E03B6800221A600123FB6101F054
:104C70007DF8FB6918462037BD4680BDC40600207C
:104C8000D806002080B400AF034B01221A6000BF99
:104C9000BD4680BC704700BFD406002080B582B0FE
:104CA00000AF786000F052F8064B1B68012BF9D971
:104CB000054B4FF080521A60BFF34F8FBFF36F8FD9
:104CC000F0E700BFF001002004ED00E080B582B005
:104CD00000AF00237B600CE07A6813469B0013440E
:104CE0009B00124A13441846FEF76CFC7B680133A4
:104CF0007B607B68372BEFD90D48FEF763FC0D48CE
:104D0000FEF760FC0C48FEF75DFC0C48FEF75AFC11
:104D10000B48FEF757FC0B4B054A1A600A4B054A35
:104D20001A6000BF0837BD4680BD00BFF0010020FB
:104D30005006002064060020800600209406002013
:104D4000AC060020780600207C06002080B582B0EA
:104D500000AF19E000F0DAFF104BDB68DB687B6026
:104D60007B6804331846FEF7B3FC0D4B1B68013B10
:104D70000B4A13600B4B1B68013B0A4A136000F09F
:104D8000F5FF786800F010F8064B1B68002BE1D1A6
:104D900000BF00BF0837BD4680BD00BF940600209D
:104DA000C0060020A806002080B584B000AF78605F
:104DB0007B685833184601F0EDF87B6893F885342A
:104DC000002B08D17B681B6B184600F093FE7868B7
:104DD00000F090FE18E07B6893F88534012B03D136
:104DE000786800F087FE0FE07B6893F88534022B2B
:104DF0000AD04FF0500383F31188BFF36F8FBFF3D6
:104E00004F8FFB6000BFFEE700BF1037BD4680BD7F
:104E100080B483B000AF0C4B1B681B68002B04D11F
:104E20000A4B4FF0FF321A6008E0074B1B68DB6843
:104E3000DB687B607B685B68044A136000BF0C37EB
:104E4000BD4680BC704700BF78060020E006002009
:104E500080B483B000AF0B4B1B68002B02D1012341
:104E60007B6008E0084B1B68002B02D102237B60AB
:104E700001E000237B607B6818460C37BD4680BC90
:104E8000704700BFCC060020E806002080B586B041
:104E900000AF78607B683B6100237B617B68002BFF
:104EA00056D02E4B1B683A699A420AD04FF05003F5
:104EB00083F31188BFF36F8FBFF34F8FFB6000BF89
:104EC000FEE73B691B6D002B0AD14FF0500383F3C3
:104ED0001188BFF36F8FBFF34F8FBB6000BFFEE73A
:104EE0003B691B6D5A1E3B691A653B69DA6A3B696F
:104EF000DB6C9A422CD03B691B6D002B28D13B699F
:104F000004331846FEF7E4FB3B69DA6C3B69DA626E
:104F10003B69DB6AC3F138023B699A613B69DA6A33
:104F20000F4B1B689A4203D93B69DB6A0C4A13603A
:104F30003B69DA6A13469B0013449B00094A1A44F2
:104F40003B69043319461046FEF767FB01237B617A
:104F50007B6918461837BD4680BD00BFEC010020B4
:104F6000C8060020F001002080B584B000AF786052
:104F70003960214B1B68FB60204B1B6804331846CB
:104F8000FEF7A6FB7B68B3F1FF3F0AD13B68002B1D
:104F900007D01A4B1B68043319461948FEF73DFB2E
:104FA00026E0FA687B681344BB60144B1B68BA6840
:104FB0005A60BA68FB689A4209D2124B1A680F4BC2
:104FC0001B68043319461046FEF74AFB10E00E4BEF
:104FD0001A680A4B1B68043319461046FEF740FB5B
:104FE0000A4B1B68BA689A4202D2084ABB6813602F
:104FF00000BF1037BD4680BDC4060020EC01002074
:10500000AC0600207C06002078060020E006002088
:1050100080B58AB004AF00237B6100F005FB1C4B18
:105020001B68002B21D00023FB600023BB603A1DCE
:1050300007F1080107F10C03184600F0FBFC796842
:10504000BB68FA68029201930223009300230A4688
:1050500010491148FFF78AF80346104A13600F4BB6
:105060001B68002B01D001237B617B69002B0AD1D7
:105070004FF0500383F31188BFF36F8FBFF34F8F4F
:105080003B6100BFFEE77B6918461837BD4680BD0F
:105090001C070020C4610008D5510008200700202B
:1050A00080B58AB000AFF860B9607A603B600023D9
:1050B0007B62FB68002B0AD14FF0500383F3118809
:1050C000BFF36F8FBFF34F8F3B6200BFFEE71A4BFA
:1050D0001B68002B2AD0BB683B617B687B61FB6847
:1050E000BB61BB68052B18DCFFF7B2FE0346022B41
:1050F00009D1114B186807F1100100233A6BFEF734
:105100004FFC786212E00C4B186807F11001002385
:105110000022FEF745FC786208E0074B186807F1AB
:10512000100100233A68FEF739FD78627B6A184661
:105130002837BD4680BD00BF1C07002080B588B061
:1051400002AF78603960224B1B68DB68DB687B61EB
:105150007B6904331846FEF7BBFA7B6993F8283065
:1051600003F00403002B22D07B699A697B68D11875
:105170007B683A68786900F0CFF80346002B1FD0AF
:105180000023009300237A6800217869FFF788FFE5
:1051900038613B69002B13D14FF0500383F3118822
:1051A000BFF36F8FBFF34F8FFB6000BFFEE77B69DC
:1051B00093F8283023F00103DAB27B6983F82820C2
:1051C0007B691B6A7869984700BF1837BD4680BD68
:1051D0001407002080B584B000AF786007F10803A1
:1051E000184600F057F8F860BB681946F86800F0F8
:1051F00003F800F0D3F8F1E780B584B000AF786031
:105200003960FFF73BFA07F10803184600F064F82D
:10521000F860BB68002B30D13B68002B0AD17A685C
:10522000FB689A4206D8FFF737FAF9687868FFF703
:1052300085FF24E03B68002B08D0134B1B681B68DC
:10524000002B01D1012300E000233B600F4B1868C5
:105250007A68FB68D31A3A681946FEF753FFFFF7DE
:105260001BFA0346002B0AD1094B4FF080521A60FB
:10527000BFF34F8FBFF36F8F01E0FFF70DFA00BF51
:105280001037BD4680BD00BF180700201C07002056
:1052900004ED00E080B485B000AF78600D4B1B6872
:1052A0001B68002B01D1012200E000227B681A60FC
:1052B0007B681B68002B05D1064B1B68DB681B68ED
:1052C000FB6001E00023FB60FB6818461437BD4615
:1052D00080BC70471407002080B584B000AF7860B0
:1052E000FFF778FAF8600B4B1B68FA689A4205D210
:1052F00000F036F97B6801221A6002E07B68002228
:105300001A60044AFB681360FB6818461037BD46F4
:1053100080BD00BF2407002080B586B000AFF860D4
:10532000B9607A603B6000237B61FB68BA685A60B1
:10533000FB68FA681A61BA687B689A4212D87A6880
:105340003B68D21AFB689B699A4202D301237B61B6
:105350001BE0104B1A68FB68043319461046FEF731
:105360007FF912E07A683B689A4206D2BA683B68D5
:105370009A4202D301237B6107E0074B1A68FB685E
:10538000043319461046FEF76BF97B691846183747
:10539000BD4680BD180700201407002080B58EB0E0
:1053A00002AFCAE07B68002B18DA3B1D0433FB62B6
:1053B000FB6A002B0AD14FF0500383F31188BFF32F
:1053C0006F8FBFF34F8FFB6100BFFEE7FB6A1B6867
:1053D000FA6A5068FA6A9268114698477B68002B0F
:1053E000C0F2AA80FB68BB62BB6A5B69002B04D079
:1053F000BB6A04331846FEF76BF93B461846FFF7C5
:105400006BFF78627B68092B00F2978001A252F84B
:1054100023F000BF3D5400083D5400083D540008EF
:10542000B1540008C55400080F5500083D54000849
:105430003D540008B1540008C5540008BB6A93F8F5
:10544000283043F00103DAB2BB6A83F82820BA6837
:10545000BB6A9B69D118BB687A6AB86AFFF75CFFC0
:105460000346002B69D0BB6A1B6AB86A9847BB6ABF
:1054700093F8283003F00403002B5ED0BA68BB6AAF
:105480009B691A440023009300230021B86AFFF7A8
:1054900007FE38623B6A002B4FD14FF0500383F375
:1054A0001188BFF36F8FBFF34F8FBB6100BFFEE763
:1054B000BB6A93F8283023F00103DAB2BB6A83F8A1
:1054C00028203AE0BB6A93F8283043F00103DAB2AF
:1054D000BB6A83F82820BA68BB6A9A61BB6A9B6979
:1054E000002B0AD14FF0500383F31188BFF36F8F65
:1054F000BFF34F8F7B6100BFFEE7BB6A9A697B6A8F
:10550000D1187B6A7A6AB86AFFF706FF15E0BB6AB2
:1055100093F8283003F00203002B03D1B86A00F09F
:10552000E9FA0AE0BB6A93F8283023F00103DAB203
:10553000BB6A83F8282000E000BF084B1B68391DB8
:1055400000221846FEF7C6FB0346002B7FF42AAF65
:1055500000BF00BF3037BD4680BD00BF1C07002024
:1055600080B588B002AF48E02D4B1B68DB681B6834
:105570003B612B4B1B68DB68DB68FB60FB6804331B
:105580001846FEF7A5F8FB681B6AF8689847FB68A1
:1055900093F8283003F00403002B2ED0FB689B699E
:1055A0003A691344BB60BA683B699A420ED9FB68FA
:1055B000BA685A60FB68FA681A61194B1A68FB6886
:1055C000043319461046FEF74BF816E0002300930B
:1055D00000233A690021F868FFF762FD78607B6874
:1055E000002B0AD14FF0500383F31188BFF36F8F64
:1055F000BFF34F8F3B6000BFFEE7094B1B681B6882
:10560000002BB1D1064B1B687B61064B1B68044A1B
:105610001360044A7B69136000BF1837BD4680BD24
:10562000140700201807002080B582B002AF00F0F8
:105630006DFB154B1B68002B20D11448FDF7C2FFF2
:105640001348FDF7BFFF134B104A1A60124B104A64
:105650001A6000230093114B114A10210A20FEF713
:10566000C9F80346084A1360074B1B68002B05D096
:10567000054B1B680B491846FEF71CFD00F076FB36
:1056800000BFBD4680BD00BF1C070020EC06002007
:10569000000700201407002018070020C80700207A
:1056A00028070020CC61000880B483B000AF034617
:1056B0003960FB7197F90730002B0ADB3B68DAB2DF
:1056C0000C4997F907301201D2B20B4483F800233A
:1056D0000AE03B68DAB20849FB7903F00F03043BA8
:1056E0001201D2B20B441A7600BF0C37BD4680BC03
:1056F000704700BF00E100E000ED00E080B500AFC2
:10570000054B1B68FFF7A4FB0346012B01D000F0FB
:105710007BFB00BF80BD00BF10E000E080B500AFA4
:1057200000216FF00400FFF7BFFF00BF80BD000045
:1057300080B483B000AFEFF305833B603B68002B80
:1057400003D06FF005037B600CE0094B1B68002B56
:1057500005D1074B01221A6000237B6002E04FF065
:10576000FF337B607B6818460C37BD4680BC7047B2
:105770001808002080B582B000AFEFF305833B60CE
:105780003B68002B03D06FF005037B6010E00B4BF0
:105790001B68012B09D1FFF7C1FF084B02221A60D9
:1057A000FEF7FCFE00237B6002E04FF0FF337B60DE
:1057B0007B6818460837BD4680BD00BF180800202A
:1057C00080B58EB004AFF860B9607A6000233B61A9
:1057D000EFF305837B617B69002B7FD1FB68002B96
:1057E0007CD080233B621823FB6100237B624FF057
:1057F000FF33BB617B68002B46D07B681B68002BA6
:1058000002D07B681B687B627B689B69002B02D09F
:105810007B689B69FB61FB69002B08D0FB69382B17
:1058200005D87B685B6803F00103002B01D00023DF
:1058300055E07B685B69002B03D07B685B699B0844
:105840003B627B689B68002B0FD07B68DB68B3F5FD
:10585000916F0AD37B681B69002B06D07B685B695C
:10586000002B02D00123BB6110E07B689B68002BFA
:105870000CD17B68DB68002B08D17B681B69002B8F
:1058800004D10023BB6101E00023BB61BB69012B94
:1058900010D17B681B697A68926802920193FB6958
:1058A0000093BB683A6A796AF868FEF75FFC0346C2
:1058B0003B6113E0BB69002B10D13B6A9AB207F140
:1058C00010030193FB690093BB68796AF868FEF7DF
:1058D000ACFC0346012B01D000233B613B69184619
:1058E0002837BD4680BD80B584B000AF7860EFF347
:1058F0000583BB60BB68002B03D06FF00503FB6022
:1059000007E00023FB607B68002B02D07868FEF77D
:1059100011FEFB6818461037BD4680BD80B58AB0C1
:1059200002AFF860B9607A600023FB61EFF3058392
:105930003B613B69002B5FD1FB68002B5CD0BB68EF
:10594000002B59D04FF0FF33BB617B68002B29D06F
:105950007B689B68002B12D07B68DB684F2B0ED9CD
:105960007B681B69002B0AD07B685A69FB68B968A1
:1059700001FB03F39A4202D30123BB6114E07B686D
:105980009B68002B10D17B68DB68002B0CD17B68F7
:105990001B69002B08D17B685B69002B04D10023B5
:1059A000BB6101E00023BB61BB69012B0BD17B68AC
:1059B0001A697B689B6800210091B968F868FDF757
:1059C00019FFF86108E0BB69002B05D10022B96816
:1059D000F868FDF787FFF861FB69002B0CD07B6846
:1059E000002B03D07B681B687B6101E000237B6197
:1059F0007969F869FEF75EFBFB6918462037BD46FA
:105A000080BD000080B485B000AFF860B9607A60F6
:105A1000FB68064A1A60BB68054A1A607B688022E8
:105A20001A6000BF1437BD4680BC704720080020B4
:105A3000A80C002080B485B000AFF860B9607A602F
:105A4000FB68074A1A60BB68064A1A607B684FF415
:105A500080721A6000BF1437BD4680BC704700BF1B
:105A6000A80E00203013002080B584B000AF78600D
:105A70000023FB607B6803F00703002B04D07B68E6
:105A800023F0070308337B60FEF7F8FD164B1B6815
:105A9000002B05D1154B23F007031A46124B1A6051
:105AA000134B1A687B6813444FF6F772934213D86E
:105AB0000F4B1A687B681A440D4B1B689A420BD92E
:105AC000094B1A680A4B1B681344FB60084B1A68A1
:105AD0007B681344064A1360FEF7DEFDFB68184638
