:020000040800F2
:10000000000002202D960008CD380008D3380008E3
:10001000D9380008DF380008E53800080000000083
:100020000000000000000000000000000193000834
:10003000EB38000800000000E1940008118C000873
:100040007D9600087D9600087D9600087D96000844
:100050007D9600087D9600087D9600087D96000834
:100060007D9600087D9600087D9600087D96000824
:100070007D9600087D9600087D9600087D96000814
:100080007D9600087D9600087D960008F9380008E6
:100090000D39000821390008353900087D9600081F
:1000A0007D9600087D9600087D9600087D960008E4
:1000B0007D9600087D9600087D9600087D960008D4
:1000C0007D9600087D9600087D9600087D960008C4
:1000D0007D9600087D9600087D9600084939000845
:1000E0007D9600087D9600087D9600087D960008A4
:1000F0007D9600087D9600087D9600087D96000894
:100100007D9600087D9600087D9600087D96000883
:100110007D9600087D9600085D3900087D960008F0
:100120007D9600087D9600087D9600087D96000863
:100130007D9600087D9600087D96000871390008BC
:100140008539000899390008AD3900087D96000806
:100150007D9600087D9600087D9600087D96000833
:100160007D9600087D9600087D9600087D96000823
:100170007D9600087D9600087D960008000000002E
:040180007D96000860
:1001900010B5054C237833B9044B13B10448AFF3C1
:1001A00000800123237010BD7800002000000000B3
:1001B0001898000808B5034B1BB103490348AFF377
:1001C000008008BD000000007C0000201898000896
:1001D00081F0004102E000BF83F0004330B54FEAF8
:1001E00041044FEA430594EA050F08BF90EA020F65
:1001F0001FBF54EA000C55EA020C7FEA645C7FEAF8
:10020000655C00F0E2804FEA5454D4EB5555B8BF1A
:100210006D420CDD2C4480EA020281EA030382EA8B
:10022000000083EA010180EA020281EA0303362D1D
:1002300088BF30BD11F0004F4FEA01314FF4801CF0
:100240004CEA113102D0404261EB410113F0004F02
:100250004FEA03334CEA133302D0524263EB4303B9
:1002600094EA050F00F0A780A4F10104D5F1200E57
:100270000DDB02FA0EFC22FA05F2801841F10001B2
:1002800003FA0EF2801843FA05F359410EE0A5F186
:1002900020050EF1200E012A03FA0EFC28BF4CF0B7
:1002A000020C43FA05F3C01851EBE37101F000456D
:1002B00007D54FF0000EDCF1000C7EEB00006EEB7A
:1002C0000101B1F5801F1BD3B1F5001F0CD3490804
:1002D0005FEA30004FEA3C0C04F101044FEA44525B
:1002E00012F5800F80F09A80BCF1004F08BF5FEAE2
:1002F000500C50F1000041EB045141EA050130BDC2
:100300005FEA4C0C404141EB0101013C28BFB1F5D3
:10031000801FE9D291F0000F04BF01460020B1FA1E
:1003200081F308BF2033A3F10B03B3F120020CDAF1
:100330000C3208DD02F1140CC2F10C0201FA0CF0CF
:1003400021FA02F10CE002F11402D8BFC2F1200C34
:1003500001FA02F120FA0CFCDCBF41EA0C019040EA
:10036000E41AA2BF01EB0451294330BD6FEA040433
:100370001F3C1CDA0C340EDC04F11404C4F120021E
:1003800020FA04F001FA02F340EA030021FA04F330
:1003900045EA030130BDC4F10C04C4F1200220FA87
:1003A00002F001FA04F340EA0300294630BD21FAC5
:1003B00004F0294630BD94F0000F83F4801306BF8B
:1003C00081F480110134013D4EE77FEA645C18BF7F
:1003D0007FEA655C29D094EA050F08BF90EA020F16
:1003E00005D054EA000C04BF1946104630BD91EA0E
:1003F000030F1EBF0021002030BD5FEA545C05D111
:100400004000494128BF41F0004130BD14F580044F
:100410003CBF01F5801130BD01F0004545F0FE41C3
:1004200041F470014FF0000030BD7FEA645C1ABFF8
:10043000194610467FEA655C1CBF0B46024650EA2F
:10044000013406BF52EA033591EA030F41F400215B
:1004500030BD00BF90F0000F04BF0021704730B5E1
:100460004FF4806404F132044FF000054FF00001B6
:1004700050E700BF90F0000F04BF0021704730B577
:100480004FF4806404F1320410F0004548BF40424C
:100490004FF000013EE700BF42004FEAE2014FEAA1
:1004A00031014FEA02701FBF12F07F4393F07F4F7C
:1004B00081F06051704732F07F4208BF704793F07F
:1004C0007F4F04BF41F40021704730B54FF4607492
:1004D00001F0004521F000411CE700BF50EA010295
:1004E00008BF704730B54FF000050AE050EA01023E
:1004F00008BF704730B511F0004502D5404261EBAE
:1005000041014FF4806404F132045FEA915C3FF4EE
:10051000D8AE4FF003025FEADC0C18BF03325FEA8B
:10052000DC0C18BF033202EBDC02C2F1200300FA3C
:1005300003FC20FA02F001FA03FE40EA0E0021FA61
:1005400002F11444BDE600BF4A0011D212F50012B8
:1005500011D20DD56FF47873B3EB62520ED44FEA1B
:10056000C12343F0004343EA505323FA02F070479B
:100570004FF00000704750EA013002D14FF0FF30D9
:1005800070474FF00000704780F0004002E000BF6D
:1005900081F0004142001FBF5FEA410392EA030F6E
:1005A0007FEA226C7FEA236C6AD04FEA1262D2EBB8
:1005B0001363C1BFD218414048404140B8BF5B42BD
:1005C000192B88BF704710F0004F40F4000020F056
:1005D0007F4018BF404211F0004F41F4000121F06C
:1005E0007F4118BF494292EA030F3FD0A2F10102B6
:1005F00041FA03FC10EB0C00C3F1200301FA03F1F4
:1006000000F0004302D5494260EB4000B0F5000F16
:1006100013D3B0F1807F06D340084FEA310102F1D5
:100620000102FE2A51D2B1F1004F40EBC25008BF87
:1006300020F0010040EA03007047490040EB000051
:10064000013A28BFB0F5000FEDD2B0FA80FCACF152
:10065000080CB2EB0C0200FA0CF0AABF00EBC2507F
:1006600052421843BCBFD0401843704792F0000F6D
:1006700081F4000106BF80F400000132013BB5E7C0
:100680004FEA41037FEA226C18BF7FEA236C21D036
:1006900092EA030F04D092F0000F08BF084670479B
:1006A00090EA010F1CBF0020704712F07F4F04D169
:1006B000400028BF40F00040704712F100723CBF7C
:1006C00000F50000704700F0004343F0FE4040F4A6
:1006D000000070477FEA226216BF08467FEA236364
:1006E0000146420206BF5FEA412390EA010F40F44F
:1006F000800070474FF0000304E000BF10F000439B
:1007000048BF40425FEA000C08BF704743F0964381
:1007100001464FF000001CE050EA010208BF70479C
:100720004FF000030AE000BF50EA010208BF704723
:1007300011F0004302D5404261EB41015FEA010C38
:1007400002BF84460146002043F0B64308BFA3F130
:100750008053A3F50003BCFA8CF2083AA3EBC25312
:1007600010DB01FA02FC634400FA02FCC2F1200231
:10077000BCF1004F20FA02F243EB020008BF20F068
:100780000100704702F1200201FA02FCC2F12002CE
:1007900050EA4C0021FA02F243EB020008BF20EAC3
:1007A000DC7070474FF0FF0C1CEAD0521EBF1CEAF1
:1007B000D15392EA0C0F93EA0C0F6FD01A4480EADF
:1007C000010C400218BF5FEA41211ED04FF00063C8
:1007D00043EA501043EA5111A0FB01310CF00040F4
:1007E000B1F5000F3EBF490041EAD3715B0040EA1A
:1007F000010062F17F02FD2A1DD8B3F1004F40EBEA
:10080000C25008BF20F00100704790F0000F0CF0BC
:10081000004C08BF49024CEA502040EA51207F3A80
:10082000C2BFD2F1FF0340EAC250704740F400005B
:100830004FF00003013A5DDC12F1190FDCBF00F04C
:1008400000407047C2F10002410021FA02F1C2F1FA
:10085000200200FA02FC5FEA310040F1000053EA96
:100860004C0308BF20EADC70704792F0000F00F0E4
:10087000004C02BF400010F4000F013AF9D040EAEA
:100880000C0093F0000F01F0004C02BF490011F47E
:10089000000F013BF9D041EA0C018FE70CEAD1537C
:1008A00092EA0C0F18BF93EA0C0F0AD030F0004CFC
:1008B00018BF31F0004CD8D180EA010000F00040B0
:1008C000704790F0000F17BF90F0004F084691F06E
:1008D000000F91F0004F14D092EA0C0F01D14202A8
:1008E0000FD193EA0C0F03D14B0218BF084608D171
:1008F00080EA010000F0004040F0FE4040F40000BB
:10090000704740F0FE4040F4400070474FF0FF0C4D
:100910001CEAD0521EBF1CEAD15392EA0C0F93EA94
:100920000C0F69D0A2EB030280EA010C49024FEAE6
:10093000402037D04FF0805343EA111143EA10139F
:100940000CF000408B4238BF5B0042F17D024FF457
:10095000000C8B4224BF5B1A40EA0C00B3EB510F32
:1009600024BFA3EB510340EA5C00B3EB910F24BF1B
:10097000A3EB910340EA9C00B3EBD10F24BFA3EBA0
:10098000D10340EADC001B0118BF5FEA1C1CE0D168
:10099000FD2A3FF650AF8B4240EBC25008BF20F01B
:1009A000010070470CF0004C4CEA50207F32C2BF6F
:1009B000D2F1FF0340EAC250704740F400004FF00C
:1009C0000003013A37E792F0000F00F0004C02BF3D
:1009D000400010F4000F013AF9D040EA0C0093F007
:1009E000000F01F0004C02BF490011F4000F013B61
:1009F000F9D041EA0C0195E70CEAD15392EA0C0FC9
:100A000008D142027FF47DAF93EA0C0F7FF470AF00
:100A1000084676E793EA0C0F04D14B023FF44CAF43
:100A200008466EE730F0004C18BF31F0004CCAD1D8
:100A300030F000427FF45CAF31F000437FF43CAF14
:100A40005FE700BF42000ED2B2F1FE4F0BD34FF072
:100A50009E03B3EB126209D44FEA002343F0004334
:100A600023FA02F070474FF00000704712F1610F57
:100A700001D1420202D14FF0FF3070474FF0000029
:100A8000704700BF53B94AB9002908BF00281CBFEE
:100A90004FF0FF314FF0FF3000F076B9ADF1080CA8
:100AA0006DE904CE00F006F8DDF804E0DDE902238C
:100AB00004B070472DE9F047089E0D46044688466D
:100AC000002B4DD18A42944668D9B2FA82F252B1D3
:100AD00001FA02F3C2F1200120FA01F10CFA02FC42
:100AE00041EA030894404FEA1C41B8FBF1F71FFAB2
:100AF0008CFE01FB178807FB0EF0230C43EA08432A
:100B000098420AD91CEB030307F1FF3580F01E81E0
:100B1000984240F21B81023F63441B1AB3FBF1F081
:100B200001FB103300FB0EFEA4B244EA0344A645C9
:100B30000AD91CEB040400F1FF3380F00981A645BB
:100B400040F20681644402380021A4EB0E0440EA1E
:100B500007401EB10023D440C6E90043BDE8F0873A
:100B60008B4208D9002E00F0EE800021C6E9000576
:100B70000846BDE8F087B3FA83F100294AD1AB42B9
:100B800002D3824200F2FC80841A65EB0303012049
:100B90009846002EE2D0C6E90048DFE702B9FFDE42
:100BA000B2FA82F2002A40F09180A1EB0C00012100
:100BB0004FEA1C471FFA8CFEB0FBF7F307FB13004C
:100BC000250C45EA00450EFB03F0A84208D91CEBB2
:100BD000050503F1FF3802D2A84200F2CE80434659
:100BE0002D1AB5FBF7F007FB10550EFB00FEA4B263
:100BF00044EA0544A64508D91CEB040400F1FF357E
:100C000002D2A64500F2B6802846A4EB0E0440EAC4
:100C100003409EE7C1F120078B4022FA07FC4CEA13
:100C2000030C25FA07FA4FEA1C49BAFBF9F820FA37
:100C300007F309FB18AA8D401FFA8CFE1D4300FA2A
:100C400001F308FB0EF02C0C44EA0A44A04202FA1D
:100C500001F20BD91CEB040408F1FF3A80F0888004
:100C6000A04240F28580A8F102086444241AB4FB33
:100C7000F9F009FB104400FB0EFEADB245EA044456
:100C8000A64508D91CEB040400F1FF356CD2A6453B
:100C90006AD90238644440EA0840A0FB0295A4EBFC
:100CA0000E04AC42C846AE4656D353D0002E69D08F
:100CB000B3EB080264EB0E0422FA01F304FA07F71F
:100CC0001F43CC40C6E90074002147E70CFA02FC40
:100CD000C2F1200125FA01F34FEA1C4720FA01F185
:100CE00095400D43B3FBF7F107FB11331FFA8CFE60
:100CF000280C40EA034001FB0EF3834204FA02F49D
:100D000008D91CEB000001F1FF382FD283422DD906
:100D100002396044C01AB0FBF7F307FB1300ADB211
:100D200045EA004503FB0EF0A84208D91CEB050577
:100D300003F1FF3816D2A84214D9023B6544281AA1
:100D400043EA014138E73146304607E72F46E4E6FB
:100D50001846F9E64B45A9D2B9EB020865EB0C0E33
:100D60000138A3E74346EAE7284694E74146D1E73E
:100D7000D0467BE76444023847E7023B65442FE7EF
:100D8000084606E73146E9E6704700BF70B5002621
:100D90000C4D0D4C641BA410A64209D108F03CFD7B
:100DA00000260A4D0A4C641BA410A64205D170BD52
:100DB00055F8043B98470136EEE755F8043B984751
:100DC0000136F2E7989A0008989A0008989A000865
:100DD0009C9A000803460244934200D1704703F8EE
:100DE000011BF9E780B400AF00BFBD4680BC70476F
:100DF00080B483B000AF03463960FB713B6818468E
:100E00000C37BD4680BC704780B483B000AF7860BB
:100E10000B46FB70FB78DB2B19D0DB2B1CDC022B89
:100E200010D0022B18DC002B02D0012B05D013E0D0
:100E30007B680C4A1A6009230FE07B680A4A1A6033
:100E400009230AE07B68094A1A60002305E07B68F1
:100E5000074A1A60002300E0002318460C37BD46FD
:100E600080BC7047C4980008D0980008DC9800083F
:100E7000E098000880B483B000AF78600B467B80B8
:100E800013467B7008E07B687A781A707B680133C0
:100E90007B607B88013B7B807B88002BF3D100BF8C
:100EA00000BF0C37BD4680BC704780B582B000AF34
:100EB00078600B467B807B88002219467868FFF7B4
:100EC000D9FF00BF0837BD4680BD80B485B000AFF4
:100ED000F860B9601346FB710CE0BB681A78FB68D8
:100EE0001A70FB680133FB60BB680133BB60FB79A0
:100EF000013BFB71FB79002BEFD100BF00BF143722
:100F0000BD4680BC7047000080B483B000AF03468C
:100F1000FB710B46BB7113467B71044A7B791374DA
:100F200000BF0C37BD4680BC704700BF9400002056
:100F300080B500AF1F4B03F5805393F82E30DBB222
:100F400003F07003002B1FD01A4B03F5805393F866
:100F50002E30DBB203F00103002B06D0154B5B896A
:100F600043F010039AB2134B5A81124B03F580538E
:100F700093F82E30DBB243F00103DAB20D4B03F5E8
:100F8000805383F82E2013E00A4B03F5805393F827
:100F90002E30DBB243F01003DAB2064B03F5805378
:100FA00083F82E20034B1B7A0249184601F03AF9C8
:100FB00000BF80BD9400002080B582B000AF786093
:100FC0007B681B7A7A681146184601F02BF900BF3E
:100FD0000837BD4680BD000080B500AF2A4B03F541
:100FE000805393F82E30DBB203F07003002B48D10E
:100FF000254B03F580535B8D002B42D0224B03F52C
:10100000805393F82E30DBB243F02003DAB21E4B4C
:1010100003F5805383F82E201B4B03F580535A6A47
:10102000194B03F580539B8D19460B46DB000B448F
:1010300013441846FFF7C0FF134B03F580539B8DF5
:1010400001339AB2104B03F580539A850E4B03F58A
:1010500080539A8D0C4B03F580531B8D9A4204D319
:10106000094B03F5805300229A85074B03F5805303
:101070005B8D013B9AB2044B03F580535A850123E3
:1010800000E00023184680BD9400002080B400AF2B
:10109000064B03F5805300225A85044B03F5805319
:1010A00000229A8500BFBD4680BC70479400002096
:1010B00080B483B000AF03463960FB710FE00C4B86
:1010C000DB683A6812781A70094BDB680133084A0A
:1010D000D3603B6801333B60FB79013BFB71FB79DB
:1010E000002BECD1012318460C37BD4680BC70475D
:1010F0009400002080B483B000AF03463960FB71D8
:101100000FE00C4BDB681A783B681A703B680133C0
:101110003B60084BDB680133064AD360FB79013B37
:10112000FB71FB79002BECD1012318460C37BD462F
:1011300080BC70479400002080B500AF154B5B89E0
:1011400003F0BF039AB2134B5A81124B00225A7418
:10115000104B00229A740F4B00229A820D4B03F51C
:1011600080531A46002393610A4B03F580531A46B5
:101170000023D361074B03F580531A460023136203
:101180004FF480510448FFF790FEFFF77FFF00BF48
:1011900080BD00BF94000020AC00002080B483B06C
:1011A00000AF3A4B5B7C9AB2384B9B7C9BB25B00A6
:1011B0009BB213449BB29B009AB2344B9B8A194654
:1011C00089000B449BB21344FB80FB880933FB80EE
:1011D000FB88B3F5805F01D3302351E02B4B5B7C60
:1011E00006339B00294A1344033323F003031A46B2
:1011F000264B03F580539A61244B03F580539A697B
:10120000224B9B7CDB001344033323F003031A4679
:101210001E4B03F58053DA611C4B03F58053DA69EA
:101220001A4B9B8A9B001344184A02F580521362A2
:10123000164B03F580531B6A144A928A13440333F6
:1012400023F003031A46114B03F580535A62FB88BF
:10125000C3F580531A460E4BA3FB02235B089AB2D8
:101260000A4B03F580531A85084B03F580531A8DFA
:10127000064B9B7C9BB29A4201D2302300E00023B4
:1012800018460C37BD4680BC704700BF9400002054
:10129000398EE33880B483B000AF00237B71002324
:1012A000FB714EE0FB792C4A06339B0013445B78BC
:1012B000BB713BE0FB79284A06339B0013449B78C3
:1012C00003F00203002B25D07B79052B01D93023B5
:1012D0003DE07A7920491346DB0013440B4403F5C3
:1012E00081531233FF221A707A791B4B03F5805316
:1012F0009969BB79DB0019441346DB00134403F5FD
:1013000081531033144A134402334B607B79013309
:101310007B7108E0104B03F580539A69BB79DB00C1
:10132000134400225A60BB790133BB71FB790A4A2E
:10133000063312F82330BA799A42BBD9FB790133CC
:10134000FB71054B5B7CFA799A42ABD300231846BC
:101350000C37BD4680BC70479400002080B582B039
:1013600000AF0346FB71054AFB795374FFF716FF84
:10137000034618460837BD4680BD00BF94000020D4
:1013800080B582B000AF03460A46FB711346BB71BD
:10139000144B9B7C1A46BB7913447B2B01DD302315
:1013A0001BE0FB790F4A917C0E4A06339B001344E5
:1013B0000A465A700B4B9A7CBB791344DAB2094B3C
:1013C0009A74084B9A7CFB79013AD1B2054A0633EC
:1013D00002F82310FFF7E2FE034618460837BD4621
:1013E00080BD00BF9400002080B584B000AF0346EC
:1013F000FB710B46BB7113467B711D4B9B8A1A46D2
:101400007B79C3F57F43FF339A4201D930232BE028
:10141000FB79174A06339B0013445B78FB73144B2C
:1014200003F580539A69F97BBB790B44DB001344C5
:101430000F4A928A1A800E4B9A8A7B799BB2134488
:101440009AB20B4B9A820A4B9A8A094B03F5805346
:101450009969F87BBB790344DB000B44013A92B2F3
:101460005A80FFF79BFE034618461037BD4680BDE5
:101470009400002080B483B000AF0346FB71FB7979
:101480000D4A06339B0013449A78FB7942F04002E0
:10149000D1B2094A06339B0013440A469A70064BA0
:1014A0005B8943F040039AB2034B5A8100BF0C376B
:1014B000BD4680BC704700BF9400002080B582B05C
:1014C00000AF0023FB7120E0FB79154A06339B0037
:1014D00013449B7803F00103002B13D0FB791846CB
:1014E000FFF7C8FFFB790E4A06339B0013449A7836
:1014F000FB7922F00102D1B2094A06339B00134462
:101500000A469A70FB790133FB71054B5B7CFA79D3
:101510009A42D9D300BF00BF0837BD4680BD00BF87
:101520009400002080B584B000AF0346FB71FB79C6
:10153000184A06339B0013449A78FB7902F0320272
:10154000D1B2144A06339B0013440A469A70002312
:10155000FB730CE0FB7B0F4A06339B0013449B7824
:1015600003F04003002B11D1FB7B0133FB73094BCC
:101570005B7CFA7B9A42EDD3064B5B8903F0BF0399
:101580009AB2044B5A81FFF781FD00E000BF10378B
:10159000BD4680BD9400002080B582B000AF00231E
:1015A000FB7120E0FB79154A06339B0013449B78BE
:1015B00003F00103002B13D0FB791846FFF7B2FFAD
:1015C000FB790E4A06339B0013449A78FB7922F08C
:1015D0000102D1B2094A06339B0013440A469A70AD
:1015E000FB790133FB71054B5B7CFA799A42D9D3C5
:1015F00000BF00BF0837BD4680BD00BF940000207B
:1016000080B582B000AF0023FB7112E0FB79124A73
:1016100006339B0013449A78FB7902F03202D1B270
:101620000D4A06339B0013440A469A70FB79013336
:10163000FB71094B5B7CFA799A42E7D3064B5B89D5
:1016400003F0BF039AB2044B5A81FFF71FFD00BF9E
:101650000837BD4680BD00BF9400002080B588B02B
:1016600000AF0346FB710023FB76A84B5B8903F0B8
:101670004003002B01D1002395E10023FB758BE192
:10168000FB7DA24A06339B0013449B7803F0400382
:10169000002B00F07B81FB7D9C4A06339B001344AA
:1016A000DB78FA799A4240F07381FB7D974A0633E2
:1016B0009B0013449B7803F00203002B6FD0FB7E4A
:1016C00043F00803FB76FB7D904A06339B001344EE
:1016D0005B78BB755AE08D4B03F580539A69BB7DEF
:1016E000DB0013441B883B83884B03F580531A6A45
:1016F0003B8B13441B78002B00F03881834B03F5A0
:1017000080539A69BB7DDB0013445B887B827F4BEF
:1017100003F580539A69BB7DDB0013445B68FB6172
:10172000FB691B78FF2B04D1FB7E43F01003FB7693
:1017300029E0FB69FF221A701FE0744B03F5805308
:101740001A6A3B8B13441B787B747B7C002B19D06B
:101750006E4B03F58053DA693B8B9B00134418688A
:10176000FB6901337A7C1946FFF7AFFB7B7CFA6992
:101770001344FB613B8B01333B833A8B7B8A9A4258
:10178000DBD900E000BFBB7D0133BB75FB7D5F4A49
:10179000063312F82330BA7D9A429CD9F9E0FB7DDA
:1017A0005A4A06339B0013445B78BB75E4E0FB7E2A
:1017B00043F00103FB76554B03F580535A8D534B91
:1017C00003F580531B8D9A4214D3FB7E43F0020332
:1017D000FB76FB7D4D4A06339B0013449A78FB7DD4
:1017E00042F00802D1B2494A06339B0013440A462C
:1017F0009A70BEE0454B03F580539A8D434B03F539
:1018000080535B8D1344BB82404B03F580531B8D8B
:10181000BA8A9A4206D33D4B03F580531B8DBA8A90
:10182000D31ABB82394B03F58053596ABA8A1346DF
:10183000DB0013440B44FB60FB68BA7D1A70012384
:10184000FB72FB7D314A06339B0013449B7803F007
:101850000803002B16D0FB681B7863F07F03DAB215
:10186000FB681A70FB7D294A06339B0013449A7863
:10187000FB7D22F00802D1B2244A06339B001344B8
:101880000A469A70214B03F580539A69BB7DDB00B1
:1018900013441B883B831D4B03F580531A6A3B8B13
:1018A00013441B78002B63D0184B03F580539A69BF
:1018B000BB7DDB0013445B887B82FB7AFA681344B0
:1018C000FB611EE0114B03F580531A6A3B8B1344F6
:1018D0001B787B747B7C002B1AD00C4B03F5805358
:1018E000DA693B8B9B0013441B687A7C1946F869C4
:1018F000FFF7EBFA7B7CFA691344FB613B8B013306
:101900003B833A8B7B8A9A42DCD902E09400002028
:1019100000BFFB68FA69D31ADAB2FB681A72244B6B
:1019200003F5805393F82E30DBB203F07003002BE5
:101930000AD01F4B03F580535B8D01339AB21C4BC9
:1019400003F580535A8514E0194B03F5805393F83F
:101950002E30DBB243F02003DAB2154B03F580538F
:1019600083F82E20F868FFF727FB02E000BF00E0B5
:1019700000BFBB7D0133BB75FB7D0D4A063312F8FA
:101980002330BA7D9A427FF612AF02E000BF00E03A
:1019900000BFFB7D0133FB75054B5B7CFA7D9A42F2
:1019A000FFF46EAEFB7E18462037BD4680BD00BFFB
:1019B0009400002080B500AF054B5B8903F0DF0386
:1019C0009AB2034B5A81FFF71BFE00BF80BD00BFD8
:1019D0009400002080B58CB000AF78607B68BB625B
:1019E000BB6A1B7887F8273097F82730BF2B1FD8A2
:1019F000B64B9B7C97F827209A4215D2B34B03F540
:101A000080539A6997F82730DB0013445B68FB60CA
:101A1000FB68002B08D0FB68BA6A10685168186030
:101A20005960127A1A7285E3222387F82F306BE30C
:101A3000BB6A1B78FF2B41D1A44BFF221A70A34B2A
:101A400001221A72A14B5B8903F08003002B07D19E
:101A5000FFF772FB9D4B03F58053002283F82E2085
:101A60009A4B20225A81994B08221A72974B0122D5
:101A7000DA71964B01229A71944B0822DA70934BDB
:101A800008229A80914B00225A70904B5B7843F069
:101A90000403DAB28D4B5A708C4B5B7843F0080329
:101AA000DAB28A4B5A70894B00229A70874B9B7826
:101AB00063F07F03DAB2854B9A702FE3834B5B8927
:101AC00003F02003002B00F02C83804B03F58053A0
:101AD00093F82E30DBB203F01103002B07D07B4BC1
:101AE0005B8943F010039AB2784B5A8122E3774B1B
:101AF000FF221A70754B01221A72BB6A1B78D33B06
:101B00002B2B00F2EB8201A252F823F0B31E000847
:101B1000891E0008691E0008631E0008071E0008D1
:101B2000DD200008DB1D0008B11D0008DD200008D5
:101B3000DD200008932000082B200008E31E000889
:101B4000131F0008CD1F0008551F0008DD200008E6
:101B5000DD200008DD200008DD200008DD20000871
:101B6000DD200008DD200008DD200008DD20000861
:101B7000DD200008DD200008D11C0008DD20000861
:101B8000731C0008DD200008DD200008DD200008AF
:101B9000611D00080F1D00085B1C0008DD20000807
:101BA000DD200008DD200008031C0008D11B000810
:101BB000BD1B00083D1C0008F71B0008434B022218
:101BC0001A72424BFE221A70404B00225A709AE25F
:101BD0003E4B08221A723D4B1022DA713B4B002219
:101BE0009A703A4B00229A71384B00221A71374B87
:101BF00000225A7187E2354B01221A72FFF7DAFE92
:101C000081E2324B08221A72304B00225A702F4B5D
:101C100000225A60BB6A5A7807F108031146184639
:101C2000FFF7F2F80346294A5360BB6819460020C3
:101C3000FFF7DEF80346254AD36064E2234B062211
:101C40001A72224B5B89DAB2204B5A701F4B00226A
:101C50009A701E4B00229A8055E2BB6ADA78BB6A02
:101C60005B6819461046FFF7C3F80346174AD3606E
:101C700049E2BB6A5B7887F8253097F82530062B58
:101C800003D9222387F82F303EE2BB6A9A1C97F8CB
:101C9000253011461846FFF70BFA034687F82F3018
:101CA00097F82F30022B00F03E8297F82F30002B50
:101CB00003D1232387F82F3026E297F82F30032B08
:101CC00040F01082212387F82F301DE2940000207D
:101CD000BB6A013319460720FFF7EAF9034687F884
:101CE0002F3097F82F30022B00F0238297F82F30F7
:101CF000002B03D1232387F82F3005E297F82F30EC
:101D0000032B40F0F181212387F82F30FCE1BB6ADF
:101D10005B7887F8263097F82630072B03D92223E3
:101D200087F82F30F0E197F82630A1491846FFF7E1
:101D3000E1F9034687F82F3097F826300133DAB2FD
:101D40009C4B1A7297F82F30022B00F0EE8197F817
:101D50002F30002B40F0CA81242387F82F30D3E1A5
:101D6000BB6ADA78BB6A5B6819461046FFF740F831
:101D70000346904AD360BB6A5B788D491846FFF7EB
:101D8000B9F9034687F82F30BB6A5B780133DAB2C2
:101D9000884B1A7297F82F30022B00F0C88197F801
:101DA0002F30002B40F0A481242387F82F30ABE1A3
:101DB000804B08221A727F4B00229A717D4B5B7C0C
:101DC0009AB27C4B5A807B4B02229A80794B00223C
:101DD000DA71784B41225A7095E1764B08221A72DB
:101DE000744B01225A70734B0122DA70714B072237
:101DF0009A70704B07221A716E4B00225A716D4B0C
:101E00000022DA807FE1BB6A5B88FB75694B0722A1
:101E10001A72FB7D684AD25C664B5A70654B012290
:101E20009A70FB7D654AD25C624BDA70FB7D644A36
:101E3000D25C604B1A71FB7D624AD35C1B09DAB23B
:101E40005C4B5A715B4B00229A71FB7D5E4A52F8E3
:101E500023301946FF20FEF7CBFF0346554AD360D7
:101E600051E1FFF769F94EE1BB6A5B88BB75BB7D49
:101E70001846FFF773FA034687F82F3097F82F308C
:101E8000002B00F037813FE1BB6A5B887B75BB6A42
:101E90001B793B753A7D7B7D11461846FFF770FA3A
:101EA000034687F82F3097F82F30002B00F024815D
:101EB0002AE1BB6A5B88FB74BB6A1B79BB74BB6A93
:101EC0005B797B747A7CB97CFB7C1846FFF78CFAD3
:101ED000034687F82F3097F82F30002B00F00E8143
:101EE00012E1BB6A5B887B76324B08221A727B7EDA
:101EF000304A06339B0013449A782E4B5A702D4B70
:101F000001229A712B4B00229A802A4B0022DA710F
:101F1000F9E0BB6A5B88FB76BB6A9B88BB76FB7E7D
:101F2000244A06339B001344BA7EDA70FB7EBA6AF9
:101F30005178204A06339B0013440A469A70FFF7F3
:101F4000A9F9034687F82F3097F82F30002B00F0BF
:101F5000D780D9E0BB6A5B8887F82430BB6A1B79DD
:101F600087F82330BB6A5B7987F8223097F82430F2
:101F7000104A06339B0013445A7897F823301344D1
:101F800087F821300B4B01221A720A4B03F580535C
:101F90009A6997F82130DB0013441A8897F82230A9
:101FA0009BB213449AB2034B03F580531A86AAE0FE
:101FB000950000209400002008990008FC98000873
:101FC0000099000804990008F4980008BB6ADA78C0
:101FD000BB6A5B6819461046FEF70AFFF861574B6B
:101FE00001221A72554B03F580531B6A534A02F5BE
:101FF0008052128E1344BA6A92781A704F4B03F5CE
:102000008053DA694D4B03F580531B8E9B001344BC
:10201000FA691A60494B03F580531B8E01339AB25B
:10202000464B03F580531A866DE0BB6A5B883B76AE
:10203000BB6A5B78012B03D0BB6A5B78022B23D190
:102040003B7E3E4A06339B0013449A783B7E42F027
:102050000102D1B2394A06339B0013440A469A70F2
:10206000BB6A5B78012B03D13B7E1846FFF702FA6F
:10207000324B02221A723B7E304A06339B001344D5
:102080005A782E4B5A703EE03B7E1846FFF74AFACC
:1020900039E0BB6A5B78002B02D1FFF7B1FA31E07F
:1020A000264B5B7C002B07D0244B9B7C002B03D062
:1020B000224B9B8A002B03D12A2387F82F3023E061
:1020C000BB6A5B78022B02D1FFF766FA1AE0BB6AA3
:1020D0005B78012B16D1FFF7F1F913E0202387F885
:1020E0002F3011E000BF19E000BF17E000BF15E07E
:1020F00000BF13E000BF11E000BF0FE000BF0DE024
:1021000000BF0BE000BF09E00C4B02221A720B4B20
:10211000FE221A70094A97F82F305370FEF708FF15
:1021200008E000BF06E000BF04E000BF02E000BF1F
:1021300000E000BF3037BD4680BD00BF94000020E6
:1021400080B500AF1C4B03F5805393F82E30DBB203
:1021500023F07003DAB2184B03F5805383F82E2076
:10216000154B03F5805393F82E30DBB203F00103D7
:10217000002B11D0104B03F5805393F82E30DBB2B7
:1021800023F00103DAB20C4B03F5805383F82E20C1
:10219000FEF7CEFE01230DE0074B5B8903F0400301
:1021A000002B06D0FEF718FF0346002B01D00123B9
:1021B00000E00023184680BD9400002080B500AFE9
:1021C000FEF710FE41F268010948FEF76EFE00229C
:1021D00008210820FEF798FE054B00225A81044B87
:1021E00003F58053002283F82E2000BF80BD00BF7E
:1021F0009400002080B582B000AF78607B685B6897
:1022000040F25552934208D17B681B78002B04D1D1
:102210007B680C331846FFF7DDFB00BF0837BD466F
:1022200080BD000080B588B000AF03463960FB7107
:1022300007F10C0300221A605A609A60DA601A6192
:1022400000233B7340F277733B61FB797B73FA7930
:1022500007F10C030C333968184607F010FA074BE6
:10226000186807F10C010023002206F09FFEFFF71B
:1022700067FF00BF2037BD4680BD00BFCC110020E6
:1022800080B400AF134B5A780132D2B25A70114B5E
:102290005B78012B02D90F4B00225A700D4B9A78B4
:1022A0000132D2B29A700B4B9B78312B02D9094B79
:1022B00000229A70074BDA780132D2B2DA70054BFD
:1022C000DB78632B02D9034B0022DA7000BFBD46D6
:1022D00080BC70479811002080B58AB000AF78604C
:1022E00039607B68D3E9022310461946FEF72CF9C2
:1022F00003467B617B685B683B617B685B787B73D3
:1023000000237B6210E07A687B6A134410331B78E9
:1023100087F8233007F118027B6A134497F82320CB
:102320001A707B6A01337B627B6A072BEBDD7B686B
:102330001B783B737B689B78BB737B68DB78FB7394
:1023400007F10C031946002000F08EFC03461A46E4
:102350003B681A7000BF2837BD4680BD80B58AB083
:1023600000AF786039607B68D3E9022310461946D4
:10237000FEF7EAF803463B627B685B68FB607B68BC
:102380005B787B7200237B620EE07A687B6A134481
:1023900010331B78FB7707F114027B6A1344FA7F32
:1023A0001A707B6A01337B627B6A072BEDDD7B68E9
:1023B0001B783B727B689B78BB727B68DB78FB7217
:1023C0003B6A3B6107F108031946002000F04CFC12
:1023D00003461A463B681A7000BF2837BD4680BDC9
:1023E00080B592B000AF01233B640123FB7183E011
:1023F00007F110031946002000F004FC0346FB71AE
:10240000BB69BB637B69A34AD3613A7CA14B1A7653
:1024100000237B640DE007F11C027B6C13441978E8
:102420009C4A7B6C134428330A461A707B6C013338
:102430007B647B6C072BEEDD7A7C964B5A76BA7CFC
:10244000944B9A76FA7C934BDA76B86BFEF702F8E7
:1024500002460B468F49C1E90823FB79002B48D07F
:10246000002387F83C308B4B5B7E082B18D1894BBF
:10247000DB69B3F1FF3F13D0864BDB69864A934299
:102480000ED1844B1B7E012B0AD1012387F83C30EF
:10249000804B804A5833283292E8030083E80300D7
:1024A0007C4A97F83C3082F878307A4B93F8583071
:1024B000002B14BF01230023DBB21A46754B83F8AF
:1024C0008D20744B93F85930002B14BF0123002347
:1024D000DBB21A466F4B83F88E206E4B93F85A305E
:1024E000002B14BF01230023DBB21A46694B83F88B
:1024F0008F203B6C01333B643B6C322B01DC0122AF
:1025000000E00022FB79002B01D0012300E0002332
:1025100013405BB2002B7FF46BAF01233B640123BC
:10252000FB710AE007F124031946012000F06AFB61
:102530000346FB713B6C01333B643B6C322B01DC8B
:10254000012200E00022FB79002B01D0012300E0F2
:10255000002313405BB2002BE4D1504B5B78002B7F
:1025600005D14C4B93F87930013387F83F30494B14
:1025700093F87E301E2B07D8464B93F87E300133FC
:10258000DAB2444B83F87E20424B93F87F303E2BE7
:1025900007D8404B93F87F300133DAB23D4B83F8D4
:1025A0007F203C4B93F880307E2B07D8394B93F833
:1025B00080300133DAB2374B83F88020354B93F803
:1025C0007A30002B24D1334B012283F87A20314B0F
:1025D000002283F87E202F4B012283F87B200123E9
:1025E000FB712C4B002283F87F202A4B012283F8B9
:1025F0007C20012387F83E30264B002283F8802080
:10260000244B012283F87D20012387F83D3086E0AA
:10261000204B93F87B30012B11D10123FB711D4B13
:1026200093F87E30092B1BD91A4B002283F87E20A9
:10263000184B022283F87B200023FB7110E000235B
:10264000FB71144B93F87E30182B09D9114B0022E3
:1026500083F87E200F4B012283F87B200123FB713E
:102660000C4B93F87C30012B1AD1012387F83E30B4
:10267000084B93F87F30312B25D9064B002283F885
:102680007F20044B022283F87C20002387F83E3011
:1026900019E000BF00110020550FF018981100201C
:1026A000002387F83E30A94B93F87F30312B0AD9AD
:1026B000A64B002283F87F20A44B012283F87C20C4
:1026C000012387F83E30A14B93F87D30012B13D1C5
:1026D000012387F83D309D4B93F88030632B1ED942
:1026E0009A4B002283F88020984B022283F87D20A9
:1026F000002387F83D3012E0002387F83D30934BEC
:1027000093F88030632B0AD9904B002283F8802005
:102710008E4B012283F87D20012387F83D308B4BBF
:1027200093F88D2097F83E301340DAB2874B83F848
:102730008120864B93F881301946022000F0C6FABA
:10274000824B93F88E2097F83D301340DAB27F4BDE
:1027500083F882207D4B93F882301946012000F0E7
:10276000B5FA7A4B93F88F20FB791340DAB2774BA6
:1027700083F88320754B93F883301946032000F0CB
:10278000A5FA734B5B78002B69D1704A97F83F30FC
:1027900082F879306D4B93F894206C4B83F88A2043
:1027A0006A4B93F88A30002B02D0684B0022DA641F
:1027B000664B9B6C002B04D0644BDB6C0133634A8B
:1027C000D364624BDB6C1846FDF794FF0346614906
:1027D0001846FDF7E7FF03461846FEF733F90346B0
:1027E000632B8CBF01230023DBB287F83E30574BAD
:1027F00093F8952097F83E301343DAB2534B83F8A1
:102800008B20524B93F88B30002B03D05249534806
:10281000FFF7A4FD00237B640DE0504A7B6C13445A
:1028200010331978494A7B6C134470330A461A7086
:102830007B6C01337B647B6C072BEEDD434B012209
:102840009A64424A97F83E3082F894303F4B93F8AE
:102850008C3083F00103DAB23C4B83F895200023DF
:102860007B6418E03D4A7B6C134458331A7837492F
:102870007B6C0B4468331B789A4214BF01230023FE
:10288000DBB2194607F108027B6C13440A461A7042
:102890007B6C01337B647B6C072BE3DD2B4B93F864
:1028A00092202A4B83F88720284B93F88730002BFF
:1028B00002D0264B00225A64244B1B6C002B04D000
:1028C000224B5B6C0133214A53643B7AFB7100233A
:1028D0003B640CE03B6C013348333B4413F8402C21
:1028E000FB791343DBB2FB713B6C01333B643B6C04
:1028F000062BEFDD154B5B6C1846FDF7FBFE034620
:1029000017491846FDF74EFF03461846FEF79AF89A
:102910000346F92B8CBF01230023DBB287F83E303E
:102920000A4B93F8932097F83E301343DAB2074BE3
:1029300083F88820054B93F88830002B03D0094991
:102940000948FFF70BFD00237B641DE00011002008
:10295000981100200000A0418C110020109900085F
:102960000000204189110020589900089A4A7B6C88
:10297000134458331978994A7B6C134468330A46D8
:102980001A707B6C01337B647B6C072BEEDD934B01
:1029900001221A64914A97F83E3082F892308F4BA8
:1029A00093F8893083F00103DAB28C4B83F89320DB
:1029B0008B4B5B78002B40F0F680884BFF2283F82E
:1029C0005020864BFF2283F85120844BFF2283F84E
:1029D0005220824BFF2283F85320804BFF2283F842
:1029E00054207E4BFF2283F855207C4BFF2283F836
:1029F00056207A4A97F83F3082F85730774B794A19
:102A00005A60764B08225A70744B01221A70734B2D
:102A100000229A70714B00221A74704B00225A7473
:102A20006E4B00229A746D4B0022DA746B4B0022BD
:102A30001A756A4B00225A75684B00229A75674BCB
:102A40000022DA75654B654A1033503292E8030074
:102A500083E8030000237B6418E0604A7B6C134426
:102A600010331A785D497B6C0B4460331B789A42B3
:102A700014BF01230023DBB2194607F108027B6C67
:102A800013440A461A707B6C01337B647B6C072B02
:102A9000E3DD524B93F89020504B83F884204F4B4A
:102AA00093F88430002B02D04C4B0022DA634B4B5E
:102AB0009B6B002B04D0494BDB6B0133474AD3633C
:102AC0003B7AFB7100233B640CE03B6C01334833E1
:102AD0003B4413F8402CFB791343DBB2FB713B6C96
:102AE00001333B643B6C062BEFDD3C4BDB6B184644
:102AF000FDF700FE03463C491846FDF753FE03462A
:102B00001846FDF79FFF034640F2F31293428CBF35
:102B100001230023DBB287F83E30304B93F891302D
:102B2000002B01D0012200E0002297F83E30002B5C
:102B300001D0012300E0002313435BB2DAB2FB793A
:102B40001343DAB2254B83F88520244B93F8853064
:102B5000002B03D025492148FFF700FC00237B64AC
:102B60000DE01E4A7B6C1344103319781B4A7B6CB2
:102B7000134460330A461A707B6C01337B647B6CB0
:102B8000072BEEDD154B01229A63144A97F83E306D
:102B900082F89030114B93F8863083F00103DAB25B
:102BA0000E4B83F891200E4BDB78002B04D1FB1DDC
:102BB00019460F48FFF790FB094B9B78002B04D177
:102BC000FB1D19460B48FFF787FBFFF759FB00BFBA
:102BD0004837BD4680BD00BF109900080011002095
:102BE000981100200305F0180000A0418611002074
:102BF000289900084099000880B400AF00BFBD4686
:102C000080BC704780B582B000AF786039603B68A7
:102C1000002B01D100231EE07B68002B0BD1104B51
:102C2000186800230022396806F020FA0346002BBA
:102C300010D101230FE07B68012B0BD1094B1868E1
:102C400000230022396806F011FA0346002B01D157
:102C5000012300E0002318460837BD4680BD00BFB1
:102C6000C4110020C811002080B582B000AF786088
:102C700039603B68002B01D100231EE07B68002BEC
:102C80000BD1104B186800230022396806F08EF92A
:102C90000346002B10D101230FE07B68012B0BD1E1
:102CA000094B186800230022396806F07FF90346B3
:102CB000002B01D1012300E0002318460837BD4650
:102CC00080BD00BFCC110020D011002080B584B0A1
:102CD00000AF03460A46FB711346BB714FF48043B5
:102CE000FB8100237B73FB79012B02D0022B03D0E5
:102CF00005E00123FB8106E08023FB8103E04FF424
:102D00008043FB8100BFBB79002B14BF012300234C
:102D1000DBB27B737A7BFB891946034802F08EFF96
:102D200000BF1037BD4680BD0004024080B500AF33
:102D300001F0FEFF00F032F800F0EEF800F04CFD7C
:102D400000F0FEFB00F032FC00F06EF800F0A0F89E
:102D5000104801F04FFB0346002B05D10E4801F04F
:102D600049FB0346002B01D000F0D0F848F21301D4
:102D7000084801F0A7FD48F21301074801F0A2FD41
:102D8000FFF73AFF05F05EFF00F074F905F07CFFF5
:102D9000FEE700BFD81100200012002080B592B0DD
:102DA00000AF07F11803302200211846FEF712F891
:102DB0003B1D00221A605A609A60DA601A61012392
:102DC000BB610523FB6102233B634FF480037B63FC
:102DD0000823BB63F023FB6302233B6405237B646E
:102DE00007F11803184601F0E1FF0346002B01D05C
:102DF00000F08CF80F237B600223BB600023FB6094
:102E00004FF4A0533B614FF480537B613B1D032182
:102E1000184602F01FFA0346002B01D000F076F8A6
:102E200000BF4837BD4680BD80B58AB000AF0023E3
:102E30007B610023BB610123FB6100233B60042312
:102E40007B600023BB600423FB6000233B61012304
:102E50003B620E237B623B4619460C4801F0EAF9BF
:102E600001237B6100233B6000237B600023BB6068
:102E70000423FB6001233B613B461946034801F0F4
:102E8000D9F900BF2837BD4680BD00BFD81100204A
:102E900080B58AB000AF0E237B610023BB610123A4
:102EA000FB6100233B6000237B600023BB600023A9
:102EB000FB6000233B6101233B620E237B623B46A8
:102EC0001946084801F0B6F90F237B6101233B61E5
:102ED0003B461946034801F0ADF900BF2837BD460F
:102EE00080BD00BF0012002080B582B000AF7860C6
:102EF0007B681B68044A934201D101F03BFF00BF8D
:102F00000837BD4680BD00BF0010004080B400AF50
:102F100072B600BFFEE7000080B58CB000AF07F1CD
:102F20001C0300221A605A609A60DA601A6100235A
:102F3000BB614C4B1B6B4B4A43F004031363494B7F
:102F40001B6B03F00403BB61BB6900237B61454B32
:102F50001B6B444A43F080031363424B1B6B03F02B
:102F600080037B617B6900233B613E4B1B6B3D4AC9
:102F700043F0020313633B4B1B6B03F002033B6103
:102F80003B690023FB60374B1B6B364A43F0080359
:102F90001363344B1B6B03F00803FB60FB680023D7
:102FA000BB60304B1B6B2F4A43F0400313632D4B28
:102FB0001B6B03F04003BB60BB6800237B60294BA5
:102FC0001B6B284A43F001031363264B1B6B03F072
:102FD00001037B607B68002244F28101224802F0F9
:102FE0002DFE00224021214802F028FE4FF400531C
:102FF000FB614FF488133B6200237B6207F11C03E3
:1030000019461B4802F07CFC44F28103FB6101235A
:103010003B6200237B620023BB6207F11C0319465D
:10302000114802F06DFC4023FB6101233B62002349
:103030007B620023BB6207F11C0319460B4802F0B8
:103040005FFC8023FB6100233B6200237B6207F16E
:103050001C031946054802F053FC00BF3037BD463B
:1030600080BD00BF0038024000040240001802404A
:103070000008024080B500AF244A1421802005F0EA
:1030800021FF0346224A1360224A1421802005F0C2
:1030900019FF0346204A1360204A1421802005F0BE
:1030A00011FF03461E4A13601E4A1421802005F0BA
:1030B00009FF03461C4A13601C4A1421802005F0B6
:1030C00001FF03461A4A13601A4A00211A4805F004
:1030D0001EFE0346194A1360194A0021194805F0DB
:1030E00016FE0346184A1360184A0021184805F0D6
:1030F0000EFE0346174A1360174A0021174805F0D1
:1031000006FE0346164A136000BF80BD009A000801
:10311000C4110020189A0008C8110020309A000835
:10312000CC110020489A0008D0110020609A0008B5
:10313000D41100207099000865310008B4110020F6
:1031400094990008A1310008B8110020B89900082E
:10315000DD310008BC110020DC990008793200083C
:10316000C011002080B58EB000AF78600A4B18689F
:1031700007F124010023002205F078FF0346002B0D
:1031800005D107F124031946044800F0D1F80120C5
:1031900005F050FEEAE700BFD01100200012002029
:1031A00080B58EB000AF78600A4B186807F1240133
:1031B0000023002205F05AFF0346002B05D107F13A
:1031C00024031946044800F0B3F8012005F032FE4C
:1031D000EAE700BFCC110020D811002080B58CB0E8
:1031E00000AF786005F08BFD024613469B00134448
:1031F0005B001A461C4BA3FB02239B09BB6205F034
:103200007EFD0346642202FB03F3174AA2FB03235D
:103210009B097B6205F073FD03464FF47A7202FB53
:1032200003F3114AA2FB03239B093B620F4BFB6193
:103230000F4BBB614FF000037B61B9690D48FDF78F
:1032400065FB03463B6105F045FDF862FB6AFB60E8
:10325000FB6ABB60FFF7C4F8FA6ABB6A1344FB62FF
:10326000F86A05F002FEF5E7D34D621000FFFA455B
:1032700000409C45D2537B4280B58EB000AF786051
:1032800005F03DFD024613469B0013445B001A46C1
:10329000254BA3FB02239B09BB6205F030FD0346CF
:1032A000642202FB03F3204AA2FB03239B097B62F7
:1032B00005F010FD78637B6B3B630023FB623223D8
:1032C0003B62FEF77BFF0023FB6207E007F10C0384
:1032D0001846FEF78FFFFB6A0133FB62134B186839
:1032E00007F10C010023002205F0C0FE0346002B6D
:1032F00003D1FA6A3B6A9A42E8D30020FEF7AEF99E
:103300007A6B3B6BD31A7A6A9A4204D80120FEF793
:10331000A5F97B6B3B637A6BBB6A13447B63786B69
:1033200005F0A3FDCFE700BFD34D6210D4110020FC
:1033300080B588B000AF786039603B681B78002B9F
:1033400001D0042300E000233B613B681B78002B85
:1033500002D13B685B6800E00023BB603B681B78E0
:10336000002B02D03B685B6800E00023FB603B68F9
:103370005B78BB6100237B6100233B7702E0012087
:1033800005F058FD786801F048F90346002BF6D0A7
:103390003B6803F10C0207F108010023786801F093
:1033A0006DF8034618462037BD4680BD80B592B003
:1033B00000AFF8600B467A60FB72F97A07F12403DC
:1033C00007F12C02F86801F05CF90346002B23D1C9
:1033D0007B6B042B0CBF01230023DBB23B743B7CD3
:1033E000002B01D03B6B00E0FB6A7B61FB6BDBB227
:1033F0007B7407F11C0307F1240292E8030083E8C1
:10340000030001F0C9FC0346BB6107F11001002372
:103410000022786805F0CAFD00BF4837BD4680BD70
:1034200080B582B000AF78607B68124A93420CD1BD
:10343000114B1B681A4600217868FFF7B7FF0F4B46
:103440005B6801330D4A53600FE07B680C4A93427E
:103450000BD10C4B1B681A4600217868FFF7A6FFBA
:10346000094B5B680133084A536000BF0837BD460B
:1034700080BD00BFD8110020C41100209C11002085
:1034800000120020C8110020A811002080B582B0D1
:1034900000AF78607B68124A93420CD1114B1B68D5
:1034A0001A4601217868FFF781FF0F4B5B680133F3
:1034B0000D4A53600FE07B680C4A93420BD10C4BD2
:1034C0001B681A4601217868FFF770FF094B5B689B
:1034D0000133084A536000BF0837BD4680BD00BFB6
:1034E000D8110020D41100209C11002000120020CF
:1034F000C8110020A811002080B483B000AF78600C
:103500007B680B4A934204D10A4B9B680133094AFA
:1035100093607B68084A934204D1084B9B6801334F
:10352000064A936000BF0C37BD4680BC704700BFA1
:10353000D81100209C11002000120020A8110020AA
:1035400080B500AF174B184A1A60164B06225A6016
:10355000144B00229A60134B0022DA60114B4FF497
:1035600080221A610F4B4FF440125A610D4B00221A
:103570001A760C4B00225A760A4B00229A76094B97
:103580000122DA76074B00221A77064B01225A777E
:10359000044800F053FD0346002B01D0FFF7B6FCB2
:1035A00000BF80BDD81100200064004080B500AF8E
:1035B000174B184A1A60164B06225A60144B002209
:1035C0009A60134B0022DA60114B4FF440321A61BB
:1035D0000F4B4FF480025A610D4B00221A760C4BB0
:1035E00000225A760A4B00229A76094B0122DA769B
:1035F000074B00221A77064B01225A77044800F045
:103600001DFD0346002B01D0FFF780FC00BF80BDED
:10361000001200200068004080B58CB000AF7860D8
:1036200007F11C0300221A605A609A60DA601A617E
:103630007B681B68634A934256D1634B1B68013316
:10364000614A1360604B1B68012B0DD10023BB61E5
:103650005E4B1B6C5D4A43F0007313645B4B1B6C49
:1036600003F00073BB61BB6900237B61574B1B6B8D
:10367000564A43F002031363544B1B6B03F00203DF
:103680007B617B694FF44073FB6102233B62002343
:103690007B620323BB620923FB6207F11C0319460B
:1036A0004B4802F02DF900220521132002F0FDF80D
:1036B000132002F016F900220521142002F0F5F87B
:1036C000142002F00EF900220521152002F0EDF879
:1036D000152002F006F900220521162002F0E5F877
:1036E000162002F0FEF868E07B681B68394A9342B6
:1036F00063D100233B61354B1B6C344A43F080633C
:103700001364324B1B6C03F080633B613B692E4BAF
:103710001B6801332C4A13602B4B1B68012B0DD106
:103720000023FB60294B1B6C284A43F00073136491
:10373000264B1B6C03F00073FB60FB680023BB602F
:10374000224B1B6B214A43F0020313631F4B1B6B7D
:1037500003F00203BB60BB684FF44053FB610223DC
:103760003B6200237B620323BB620923FB6207F1F8
:103770001C031946164802F0C3F8002205213F2019
:1037800002F093F83F2002F0ACF80022052140201F
:1037900002F08BF8402002F0A4F80022052141201D
:1037A00002F083F8412002F09CF80022052142201B
:1037B00002F07BF8422002F094F800BF3037BD469B
:1037C00080BD00BF00640040281200200038024085
:1037D000000402400068004080B500AF114B124A5F
:1037E0001A60104B4FF4E1325A600E4B00229A607F
:1037F0000C4B0022DA600B4B00221A61094B0C22A1
:103800005A61084B00229A61064B0022DA61054892
:1038100002F0BDFA0346002B01D0FFF777FB00BF93
:1038200080BD00BF2C1200200048004080B58AB047
:1038300000AF786007F1140300221A605A609A60A2
:10384000DA601A617B681B681D4A934234D10023F9
:103850003B611C4B1B6C1B4A43F480231364194BC4
:103860001B6C03F480233B613B690023FB60154B19
:103870001B6B144A43F008031363124B1B6B03F0DA
:103880000803FB60FB684FF440737B610223BB615C
:103890000023FB6103233B6207237B6207F11403D0
:1038A0001946094802F02CF800220521272001F0D2
:1038B000FCFF272002F015F800BF2837BD4680BD69
:1038C0000048004000380240000C024080B400AFC5
:1038D000FEE780B400AFFEE780B400AFFEE780B43F
:1038E00000AFFEE780B400AFFEE780B400AF00BFDA
:1038F000BD4680BC7047000080B500AF024801F0B3
:1039000006F800BF80BD00BFD811002080B500AF11
:10391000024800F0FCFF00BF80BD00BFD8110020AE
:1039200080B500AF024800F0F2FF00BF80BD00BFCD
:10393000D811002080B500AF024800F0E8FF00BFBA
:1039400080BD00BFD811002080B500AF024802F052
:103950006FFA00BF80BD00BF2C12002080B500AF01
:10396000024800F09BF900BF80BD00BF7412002028
:1039700080B500AF024800F0CAFF00BF80BD00BFA5
:103980000012002080B500AF024800F0C0FF00BF69
:1039900080BD00BF0012002080B500AF024800F0DB
:1039A000B6FF00BF80BD00BF0012002080B500AF91
:1039B000024800F0ACFF00BF80BD00BF0012002035
:1039C00080B582B000AF00237B60124B5B6C114A64
:1039D00043F4804353640F4B5B6C03F480437B6080
:1039E0007B6800233B600B4B1B6C0A4A43F08053FF
:1039F0001364084B1B6C03F080533B603B68002250
:103A00000F216FF0010001F050FF00BF0837BD46E5
:103A100080BD00BF0038024080B58EB000AF786036
:103A20000023FB620023BB620023FB60334B1B6C53
:103A3000324A43F010031364304B1B6C03F0100345
:103A4000FB60FB6807F1100207F1140311461846EA
:103A500001F046FE3B6AFB62FB6A002B03D101F0DA
:103A6000FBFD786304E001F0F7FD03465B007B6338
:103A70007B6B234AA2FB03239B0C013BBB62214BC4
:103A8000214A1A601F4B40F2E732DA601D4ABB6AD6
:103A900053601C4B00221A611A4B00229A60194B8A
:103AA00000229A61174800F033F8034687F8333054
:103AB00097F83330002B1BD1124800F081F80346F1
:103AC00087F8333097F83330002B11D1362001F0CE
:103AD00008FF7B680F2B08D800227968362001F098
:103AE000E4FE0A4A7B68136002E0012387F8333062
:103AF00097F8333018463837BD4680BD003802404D
:103B000083DE1B437412002000100040640000207C
:103B100080B582B000AF78607B68002B01D10123B3
:103B200041E07B6893F83D30DBB2002B06D17B6827
:103B3000002283F83C20786800F039F87B68022284
:103B400083F83D207B681A687B6804331946104669
:103B500000F0B8F97B68012283F846207B680122D7
:103B600083F83E207B68012283F83F207B68012296
:103B700083F840207B68012283F841207B68012282
:103B800083F842207B68012283F843207B6801226E
:103B900083F844207B68012283F845207B6801225A
:103BA00083F83D20002318460837BD4680BD80B409
:103BB00083B000AF786000BF0C37BD4680BC704753
:103BC00080B485B000AF78607B6893F83D30DBB29D
:103BD000012B01D001234EE07B68022283F83D20B7
:103BE0007B681B68DA687B681B6842F00102DA6058
:103BF0007B681B68224A934222D07B681B68B3F122
:103C0000804F1DD07B681B681E4A934218D07B688A
:103C10001B681D4A934213D07B681B681B4A934262
:103C20000ED07B681B681A4A934209D07B681B68D8
:103C3000184A934204D07B681B68174A934211D1FB
:103C40007B681B689B6803F00703FB60FB68062B1F
:103C500010D07B681B681A687B681B6842F0010201
:103C60001A6007E07B681B681A687B681B6842F073
:103C700001021A60002318461437BD4680BC704705
:103C8000000001400004004000080040000C00401B
:103C900000040140004001400018004080B584B09D
:103CA00000AF78607B681B68DB68FB607B681B6823
:103CB0001B69BB60BB6803F00203002B20D0FB68CC
:103CC00003F00203002B1BD07B681B686FF002021D
:103CD0001A617B6801221A777B681B689B6903F075
:103CE0000303002B03D0786800F0D1F805E0786872
:103CF00000F0C4F8786800F0D3F87B6800221A77E7
:103D0000BB6803F00403002B20D0FB6803F004031E
:103D1000002B1BD07B681B686FF004021A617B6864
:103D200002221A777B681B689B6903F44073002B9F
:103D300003D0786800F0ABF805E0786800F09EF8F2
:103D4000786800F0ADF87B6800221A77BB6803F052
:103D50000803002B20D0FB6803F00803002B1BD0C6
:103D60007B681B686FF008021A617B6804221A776F
:103D70007B681B68DB6903F00303002B03D07868C2
:103D800000F085F805E0786800F078F8786800F0D1
:103D900087F87B6800221A77BB6803F01003002BBA
:103DA00020D0FB6803F01003002B1BD07B681B683E
:103DB0006FF010021A617B6808221A777B681B6813
:103DC000DB6903F44073002B03D0786800F05FF8E0
:103DD00005E0786800F052F8786800F061F87B68D8
:103DE00000221A77BB6803F00103002B0CD0FB689C
:103DF00003F00103002B07D07B681B686FF0010202
:103E00001A617868FFF770F8BB6803F08003002B35
:103E10000CD0FB6803F08003002B07D07B681B6885
:103E20006FF080021A61786800F0FFF8BB6803F059
:103E30004003002B0CD0FB6803F04003002B07D09D
:103E40007B681B686FF040021A61786800F031F8F7
:103E5000BB6803F02003002B0CD0FB6803F02003A9
:103E6000002B07D07B681B686FF020021A6178680E
:103E700000F0D2F800BF1037BD4680BD80B483B0DB
:103E800000AF786000BF0C37BD4680BC704780B47F
:103E900083B000AF786000BF0C37BD4680BC704770
:103EA00080B483B000AF786000BF0C37BD4680BCE3
:103EB000704780B483B000AF786000BF0C37BD4658
:103EC00080BC704780B485B000AF786039607B6893
:103ED0001B68FB607B68454A934213D07B68B3F153
:103EE000804F0FD07B68424A93420BD07B68414A97
:103EF000934207D07B68404A934203D07B683F4A95
:103F0000934208D1FB6823F07003FB603B685B6859
:103F1000FA681343FB607B68344A93422BD07B687A
:103F2000B3F1804F27D07B68314A934223D07B681E
:103F3000304A93421FD07B682F4A93421BD07B6844
:103F40002E4A934217D07B682D4A934213D07B6848
:103F50002C4A93420FD07B682B4A93420BD07B684C
:103F60002A4A934207D07B68294A934203D07B6850
:103F7000284A934208D1FB6823F44073FB603B68F6
:103F8000DB68FA681343FB60FB6823F080023B6840
:103F90005B691343FB607B68FA681A603B689A6848
:103FA0007B68DA623B681A687B689A627B680F4AB2
:103FB000934203D07B68114A934203D13B681A694C
:103FC0007B681A637B6801225A617B681B6903F076
:103FD0000103012B05D17B681B6923F001027B687B
:103FE0001A6100BF1437BD4680BC70470000014015
:103FF0000004004000080040000C004000040140A4
:1040000000400140004401400048014000180040C9
:10401000001C00400020004080B483B000AF7860F6
:1040200000BF0C37BD4680BC704780B483B000AF82
:10403000786000BF0C37BD4680BC704780B584B047
:1040400000AF78607B68002B01D10123EDE07B6835
:1040500093F82030DBB2002B02D17868FFF7DCFA4E
:104060007B681B681A687B681B6842F001021A6053
:1040700000F092FEF86012E000F08EFE0246FB684F
:10408000D31A0A2B0BD97B685B6A43F400327B6836
:104090005A627B68052283F820200123C5E07B68F3
:1040A0001B685B6803F00103002BE5D07B681B688D
:1040B0001A687B681B6822F002021A6000F06CFE2E
:1040C000F86012E000F068FE0246FB68D31A0A2B83
:1040D0000BD97B685B6A43F400327B685A627B6869
:1040E000052283F8202001239FE07B681B685B6822
:1040F00003F00203002BE5D17B681B7E012B08D166
:104100007B681B681A687B681B6842F080021A6033
:1041100007E07B681B681A687B681B6822F08002D6
:104120001A607B685B7E012B08D17B681B681A686C
:104130007B681B6842F040021A6007E07B681B68DE
:104140001A687B681B6822F040021A607B689B7EBD
:10415000012B08D17B681B681A687B681B6842F0DA
:1041600020021A6007E07B681B681A687B681B687E
:1041700022F020021A607B68DB7E012B08D17B686D
:104180001B681A687B681B6822F010021A6007E03F
:104190007B681B681A687B681B6842F010021A6013
:1041A0007B681B7F012B08D17B681B681A687B68C2
:1041B0001B6842F008021A6007E07B681B681A68F7
:1041C0007B681B6822F008021A607B685B7F012B0A
:1041D00008D17B681B681A687B681B6842F0040280
:1041E0001A6007E07B681B681A687B681B6822F00E
:1041F00004021A607B689A687B68DB681A437B68F4
:104200001B691A437B685B6942EA03017B685B6850
:104210005A1E7B681B680A43DA617B6800225A6277
:104220007B68012283F82020002318461037BD4602
:1042300080BD000080B487B000AF786039607B68D3
:104240001B687B617B6893F82030FB74FB7C012B3F
:1042500003D0FB7C022B40F0BE80654B7B617B6909
:10426000D3F8003243F001027B69C3F800227B6976
:10427000D3F8003223F47C527B69C3F800227B69B7
:10428000D3F800223B685B6A1B021A437B69C3F8C0
:1042900000223B685B6903F01F03012202FA03F36B
:1042A000FB607B69D3F81C22FB68DB431A407B6907
:1042B000C3F81C223B68DB69002B23D17B69D3F850
:1042C0000C22FB68DB431A407B69C3F80C223B6875
:1042D000DB6819043B685B689BB23A685269194312
:1042E0007B69483243F832103B689B6819043B688D
:1042F0001B689AB23B685B690A4379694833DB0003
:104300000B445A603B68DB69012B22D17B69D3F8EF
:104310000C22FB681A437B69C3F80C223B681B68BC
:1043200019043B685B689BB23A68526919437B6920
:10433000483243F832103B689B6819043B68DB68DD
:104340009AB23B685B690A4379694833DB000B44E6
:104350005A603B689B69002B09D17B69D3F8042222
:10436000FB68DB431A407B69C3F8042207E07B69E2
:10437000D3F80422FB681A437B69C3F804223B6824
:104380001B69002B09D17B69D3F81422FB68DB433E
:104390001A407B69C3F8142207E07B69D3F8142222
:1043A000FB681A437B69C3F814223B681B6A012B24
:1043B00007D17B69D3F81C22FB681A437B69C3F8D9
:1043C0001C227B69D3F8003223F001027B69C3F819
:1043D0000022002306E07B685B6A43F480227B684E
:1043E0005A62012318461C37BD4680BC704700BF87
:1043F0000064004080B584B000AF78607B6893F8BB
:104400002030DBB2012B2ED17B68022283F82020E2
:104410007B681B681A687B681B6822F001021A60BF
:1044200000F0BAFCF86012E000F0B6FC0246FB684F
:10443000D31A0A2B0BD97B685B6A43F400327B6882
:104440005A627B68052283F82020012312E07B68F2
:104450001B685B6803F00103002BE5D17B68002239
:104460005A62002306E07B685B6A43F400227B68A3
:104470005A62012318461037BD4680BD80B489B00A
:1044800000AFF860B9607A603B60FB6893F8203059
:10449000FB77FB681B689B68BB61FB7F012B03D02C
:1044A000FB7F022B40F0AD80BB6903F08063002BE3
:1044B0000AD1BB6903F00063002B05D1BB6903F08F
:1044C0008053002B00F09580BB691B0E03F00303A3
:1044D0007B6101227B699A403B681A60BB689B68DC
:1044E000002B0DD1BB681B685A05BB68DB68F968F7
:1044F00009681A437B6918331B010B441A600FE0EB
:10450000BB685B68DA00BB689B681A43BB68DB6802
:10451000F96809681A437B6918331B010B441A6058
:10452000FB681968BB681A697B6918331B010B4467
:1045300004331A60BB681B7D012B11D1FB681A681C
:104540007B6918331B01134404331B68FA68116834
:1045500043F480727B6918331B010B4404331A60E7
:104560007B6807331B781A067B6806331B781B04AD
:104570001A437B6805331B781B0213437A680432A5
:1045800012781046FA68116843EA00027B691B0141
:104590000B4403F5C6731A607B6803331B781A0655
:1045A0007B6802331B781B041A437B6801331B783A
:1045B0001B0213437A6812781046FA68116843EABE
:1045C00000027B691B010B4403F5C4731A60FB688E
:1045D0001A687B6918331B0113441B68FA68116859
:1045E00043F001027B6918331B010B441A6000235E
:1045F0000EE0FB685B6A43F40012FB685A62012319
:1046000006E0FB685B6A43F48022FB685A62012380
:1046100018462437BD4680BC704780B485B000AFD3
:1046200078600023FB607B6893F82030FB72FB7A94
:10463000012B02D0FB7A022B1DD17B681B689B6883
:1046400003F08063002B02D0FB680133FB607B68C2
:104650001B689B6803F00063002B02D0FB680133EA
:10466000FB607B681B689B6803F08053002B02D0C3
:10467000FB680133FB60FB6818461437BD4680BCFD
:10468000704780B487B000AFF860B9607A603B6073
:10469000FB6893F82030FB75FB7D012B03D0FB7D7D
:1046A000022B40F00381BB68002B0ED1FB681B6816
:1046B000DB6803F00303002B16D1FB685B6A43F44D
:1046C0000012FB685A620123F7E0FB681B681B6954
:1046D00003F00303002B07D1FB685B6A43F400126D
:1046E000FB685A620123E8E0FB681A68BB681B3369
:1046F0001B0113441B6803F004027B689A607B680B
:104700009B68002B0CD1FB681A68BB681B331B012C
:1047100013441B685B0DC3F30A027B681A600BE04D
:10472000FB681A68BB681B331B0113441B68DB085A
:1047300023F060427B685A60FB681A68BB681B33D1
:104740001B0113441B6803F002027B68DA60FB68FC
:104750001A68BB681B331B01134404331B6803F046
:104760000803002B03D07B6808221A610BE0FB686A
:104770001A68BB681B331B01134404331B6803F026
:104780000F027B681A61FB681A68BB681B331B0148
:10479000134404331B681B0ADAB27B689A61FB6816
:1047A0001A68BB681B331B01134404331B681B0CC2
:1047B0009AB27B685A61FB681A68BB681B01134494
:1047C00003F5DC731B68DAB23B681A70FB681A6881
:1047D000BB681B01134403F5DC731B681A0A3B68B2
:1047E0000133D2B21A70FB681A68BB681B0113440C
:1047F00003F5DC731B681A0C3B680233D2B21A70E3
:10480000FB681A68BB681B01134403F5DC731B6863
:104810001A0E3B680333D2B21A70FB681A68BB6881
:104820001B01134403F5DE731A683B680433D2B2EC
:104830001A70FB681A68BB681B01134403F5DE732A
:104840001B681A0A3B680533D2B21A70FB681A68F3
:10485000BB681B01134403F5DE731B681A0C3B682D
:104860000633D2B21A70FB681A68BB681B01134486
:1048700003F5DE731B681A0E3B680733D2B21A7059
:10488000BB68002B08D1FB681B68DA68FB681B68F3
:1048900042F02002DA6007E0FB681B681A69FB68D7
:1048A0001B6842F020021A61002306E0FB685B6A85
:1048B00043F48022FB685A62012318461C37BD4628
:1048C00080BC704780B485B000AF786039607B6889
:1048D00093F82030FB73FB7B012B02D0FB7B022B78
:1048E00009D17B681B6859697B681B683A680A4371
:1048F0005A61002306E07B685B6A43F480227B6890
:104900005A62012318461437BD4680BC704780B5F3
:104910008AB000AF786000237B627B681B685B69AC
:104920003B627B681B685B68FB617B681B689B68FC
:10493000BB617B681B68DB687B617B681B681B69EC
:104940003B617B681B689B69FB603B6A03F001036A
:10495000002B7CD0BB6903F00103002B23D07B68C4
:104960001B6801229A60BB6903F00203002B03D08D
:10497000786800F083F916E0BB6903F00403002BAC
:1049800004D07B6A43F400637B620CE0BB6903F0F4
:104990000803002B04D07B6A43F480537B6202E05F
:1049A000786800F086F9BB6903F48073002B24D08B
:1049B0007B681B684FF480729A60BB6903F40073D4
:1049C000002B03D0786800F062F916E0BB6903F4AD
:1049D0008063002B04D07B6A43F400537B620CE0BD
:1049E000BB6903F40063002B04D07B6A43F480436B
:1049F0007B6202E0786800F065F9BB6903F48033FC
:104A0000002B24D07B681B684FF480329A60BB690E
:104A100003F40033002B03D0786800F041F916E06E
:104A2000BB6903F48023002B04D07B6A43F400436A
:104A30007B620CE0BB6903F40023002B04D07B6A8B
:104A400043F480337B6202E0786800F044F93B6A0B
:104A500003F00803002B0CD07B6903F01003002B3C
:104A600007D07B6A43F400737B627B681B6810226B
:104A7000DA603B6A03F00403002B0BD07B6903F080
:104A80000803002B06D07B681B680822DA60786870
:104A900000F02AF93B6A03F00203002B09D07B687F
:104AA0001B68DB6803F00303002B02D07868FEF775
:104AB000B7FC3B6A03F04003002B0CD03B6903F0CA
:104AC0001003002B07D07B6A43F480637B627B6812
:104AD0001B6810221A613B6A03F02003002B0BD0E5
:104AE0003B6903F00803002B06D07B681B68082293
:104AF0001A61786800F001F93B6A03F01003002B9B
:104B000009D07B681B681B6903F00303002B02D0EC
:104B10007868FEF7BBFC3B6A03F40033002B0BD034
:104B2000FB6903F01003002B06D07B681B68102282
:104B30005A60786800F0EAF83B6A03F48033002B8F
:104B40000BD0FB6903F00803002B06D07B681B68C1
:104B500008225A60786800F0E2F83B6A03F40043E8
:104B6000002B7BD0FB6903F00403002B72D03B6A5F
:104B700003F48073002B08D0FB6803F00103002BC3
:104B800003D07B6A43F001037B623B6A03F400734A
:104B9000002B08D0FB6803F00203002B03D07B6AD4
:104BA00043F002037B623B6A03F48063002B08D06E
:104BB000FB6803F00403002B03D07B6A43F004037B
:104BC0007B623B6A03F40063002B43D0FB6803F075
:104BD0007003002B3ED0FB6803F07003602B2BD0DA
:104BE000602B2ED8502B22D0502B2AD8402B19D0F6
:104BF000402B26D8302B10D0302B22D8102B02D0AF
:104C0000202B05D01DE07B6A43F008037B6219E08E
:104C10007B6A43F010037B6214E07B6A43F020035D
:104C20007B620FE07B6A43F040037B620AE07B6AB1
:104C300043F080037B6205E07B6A43F480737B6210
:104C400000E000BF7B681B689A697B681B6822F0E4
:104C500070029A617B681B6804225A607B6A002B91
:104C600008D07B685A6A7B6A1A437B685A62786804
:104C7000FEF742FC00BF2837BD4680BD80B483B03C
:104C800000AF786000BF0C37BD4680BC704780B471
:104C900083B000AF786000BF0C37BD4680BC704762
:104CA00080B483B000AF786000BF0C37BD4680BCD5
:104CB000704780B483B000AF786000BF0C37BD464A
:104CC00080BC704780B483B000AF786000BF0C3701
:104CD000BD4680BC704780B483B000AF786000BF31
:104CE0000C37BD4680BC704780B483B000AF78609D
:104CF00000BF0C37BD4680BC704780B483B000AFA6
:104D0000786000BF0C37BD4680BC704780B483B06C
:104D100000AF786000BF0C37BD4680BC704780B4E0
:104D200083B000AF786000BF0C37BD4680BC7047D1
:104D300080B500AF0E4B1B680D4A43F4007313603F
:104D40000B4B1B680A4A43F480631360084B1B68D3
:104D5000074A43F480731360032000F09BFD0F208B
:104D6000FEF75AFEFEF72CFE0023184680BD00BF5A
:104D7000003C024080B400AF054B1B781A46054B3F
:104D80001B681344034A136000BFBD4680BC7047D4
:104D900068000020BC12002080B400AF024B1B68EA
:104DA0001846BD4680BC7047BC12002080B58AB052
:104DB00000AF78607B68002B01D101233BE27B6868
:104DC0001B6803F00103002B50D09E4B9B6803F03F
:104DD0000C03042B0CD09B4B9B6803F00C03082B9B
:104DE00012D1984B5B6803F48003B3F5800F0BD1AD
:104DF000944B1B6803F40033002B36D07B685B6850
:104E0000002B32D1012316E27B685A688E4BD2B256
:104E10001A707B685B68002B13D0FFF7BDFF386208
:104E200008E0FFF7B9FF02463B6AD31A642B01D9A9
:104E3000032300E2834B1B6803F40033002BF0D004
:104E400014E0FFF7A9FF386208E0FFF7A5FF02466C
:104E50003B6AD31A642B01D90323ECE1794B1B681D
:104E600003F40033002BF0D100E000BF7B681B6827
:104E700003F00203002B77D0724B9B6803F00C0306
:104E8000002B0BD06F4B9B6803F00C03082B26D133
:104E90006C4B5B6803F48003002B20D1694B1B68CB
:104EA00003F00203002B05D07B68DB68012B01D0E7
:104EB0000123C0E1634B1B6823F0F8027B681B6988
:104EC000F821B961B96991FAA1F179617969B1FA09
:104ED00081F1C9B28B405B4913430B6044E07B68AE
:104EE000DB68002B2AD0594B01221A60FFF754FFD0
:104EF000386208E0FFF750FF02463B6AD31A022BE4
:104F000001D9032397E14F4B1B6803F00203002BE9
:104F1000F0D04C4B1B6823F0F8027B681B69F8212A
:104F20003961396991FAA1F1F960F968B1FA81F151
:104F3000C9B28B40434913430B6015E0434B002239
:104F40001A60FFF729FF386208E0FFF725FF0246E5
:104F50003B6AD31A022B01D903236CE1394B1B683E
:104F600003F00203002BF0D17B681B6803F00803F9
:104F7000002B30D07B685B69002B16D0344B0122AC
:104F80001A60FFF709FF386208E0FFF705FF0246E5
:104F90003B6AD31A022B01D903234CE1294B5B6FE7
:104FA00003F00203002BF0D015E0294B00221A6019
:104FB000FFF7F2FE386208E0FFF7EEFE02463B6ABA
:104FC000D31A022B01D9032335E11E4B5B6F03F08B
:104FD0000203002BF0D17B681B6803F00403002B55
:104FE00000F08780002387F82730164B1B6C03F0F6
:104FF0008053002B10D10023BB60124B1B6C114A55
:1050000043F0805313640F4B1B6C03F08053BB6061
:10501000BB68012387F827300E4B1B680D4A43F409
:10502000807313600B4B1B6803F48073002B22D139
:10503000084B1B68074A43F480731360FFF7ACFE0C
:10504000386212E000380240023802400000474255
:10505000800E474200700040FFF79EFE02463B6A0A
:10506000D31A022B01D90323E5E0754B1B6803F427
:105070008073002BF0D07B689A68724BD2B21A70A2
:105080007B689B68002B15D0FFF786FE38620AE02C
:10509000FFF782FE02463B6AD31A41F288329342FE
:1050A00001D90323C7E0684B1B6F03F00203002BF9
:1050B000EED014E0FFF770FE38620AE0FFF76CFEF6
:1050C00002463B6AD31A41F28832934201D9032344
:1050D000B1E05D4B1B6F03F00203002BEED197F89C
:1050E0002730012B05D1584B1B6C574A23F08053B6
:1050F00013647B689B69002B00F09C80524B9B687B
:1051000003F00C03082B61D07B689B69022B46D10E
:105110004E4B00221A60FFF73FFE386208E0FFF7AF
:105120003BFE02463B6AD31A642B01D9032382E07B
:10513000454B1B6803F00073002BF0D1424B5A68BB
:10514000434B13407A68D1697A68126A11437A68CE
:10515000526A920111437A68D26A120611437A6840
:10516000926A5208013A12040A43374913434B60CA
:10517000364B01221A60FFF70FFE386208E0FFF796
:105180000BFE02463B6AD31A642B01D9032352E07B
:105190002D4B1B6803F00073002BF0D04AE02B4B23
:1051A00000221A60FFF7F8FD386208E0FFF7F4FD0F
:1051B00002463B6AD31A642B01D903233BE0224BFE
:1051C0001B6803F00073002BF0D133E07B689B6910
:1051D000012B01D101232EE01B4B5B68FB61FB69B6
:1051E00003F480027B68DB699A4221D1FB6903F0FA
:1051F0003F027B681B6A9A421AD1FA6947F6C0736C
:1052000013407A68526A9201934211D1FB6903F408
:1052100040327B689B6A5B08013B1B049A4207D1C2
:10522000FB6903F070627B68DB6A1B069A4201D05F
:10523000012300E0002318462837BD4680BD00BF8B
:105240000070004070380240003802406000474261
:105250000080BCF080B586B000AF786039607B68B4
:10526000002B01D10123D2E06B4B1B6803F00F032D
:105270003A689A420CD9684B3A68D2B21A70664BB7
:105280001B6803F00F033A689A4201D00123BEE085
:105290007B681B6803F00203002B20D07B681B682F
:1052A00003F00403002B05D05C4B9B685B4A43F47E
:1052B000E05393607B681B6803F00803002B05D064
:1052C000564B9B68554A43F460439360534B9B682D
:1052D00023F0F0027B689B68504913438B607B6826
:1052E0001B6803F00103002B40D07B685B68012B37
:1052F00007D14A4B1B6803F40033002B15D101235F
:1053000085E07B685B68022B07D1444B1B6803F088
:105310000073002B09D1012379E0404B1B6803F097
:105320000203002B01D1012371E03C4B9B6823F069
:1053300003027B685B68394913438B60FFF72CFDE0
:1053400078610AE0FFF728FD02467B69D31A41F233
:105350008832934201D9032359E0304B9B6803F014
:105360000C027B685B689B009A42EBD12A4B1B685E
:1053700003F00F033A689A420CD2274B3A68D2B234
:105380001A70254B1B6803F00F033A689A4201D04C
:1053900001233CE07B681B6803F00403002B08D06A
:1053A0001E4B9B6823F4E0527B68DB681B49134368
:1053B0008B607B681B6803F00803002B09D0174B38
:1053C0009B6823F460427B681B69DB00134913432D
:1053D0008B6000F02BF80146104B9B6803F0F00344
:1053E000F0223A613A6992FAA2F2FA60FA68B2FAE5
:1053F00082F2D2B2D3400A4AD35C21FA03F3094ABB
:105400001360094B1B681846FEF706FB002318467D
:105410001837BD4680BD00BF003C02400038024046
:10542000789A00086C000020640000202DE9B04F3D
:1054300094B000AF00237B640023FB6400233B6433
:105440000023BB647C4B9B6803F00C03082B0DD03E
:10545000082B00F2E780002B02D0042B03D0E1E000
:10546000764BBB64E1E0764BBB64DEE0724B5B687D
:1054700003F03F037B64704B5B6803F48003002BF5
:1054800065D06D4B5B689B090022BB63FA63BB6B05
:10549000C3F308033B6300237B63D7E90C45224633
:1054A0002B464FF000004FF00001590141EAD26154
:1054B000500102460B462146511A3961294663EBD9
:1054C00001037B614FF000024FF00003D7E904AB0A
:1054D00059468B01514643EA916351468A01D446AD
:1054E000B2EB0C08594663EB01094FF000024FF094
:1054F00000034FEAC90343EA58734FEAC8029046D3
:105500009946234618EB0303BB602B4649EB030384
:10551000FB604FF000024FF00003D7E90245294637
:105520004B0220462946044643EAD45301464A0228
:10553000104619467B6C0022BB62FA62D7E90A2347
:10554000FBF7A0FA02460B461346FB645CE03A4BBD
:105550005B689B09002218461146C0F308033B62B2
:1055600000237B62D7E9088942464B464FF0000092
:105570004FF00001590141EAD261500102460B4649
:10558000C446B2EB0C0A404649468C4663EB0C0B12
:105590004FF000024FF000034FEA8B1343EA9A6387
:1055A0004FEA8A12B2EB0A0463EB0B054FF00002DC
:1055B0004FF00003EB0043EA5473E20014461D462B
:1055C0000346E3183B600B4645EB03037B604FF05B
:1055D00000024FF00003D7E9004529468B02204620
:1055E0002946044643EA945301468A021046194666
:1055F0007B6C0022BB61FA61D7E90623FBF742FA14
:1056000002460B461346FB640B4B5B681B0C03F016
:10561000030301335B003B64FA6C3B6CB2FBF3F3B6
:10562000BB6402E0054BBB6400BFBB6C184650373F
:10563000BD46BDE8B08F00BF003802400024F40032
:1056400000127A0080B400AF024B1B681846BD46BA
:1056500080BC70476C00002080B582B000AFFFF7BF
:10566000F1FF01460B4B9B6803F4E0534FF4E0520B
:105670007A607A6892FAA2F23A603A68B2FA82F2F2
:10568000D2B2D340044AD35C21FA03F31846083758
:10569000BD4680BD00380240889A000880B582B0BF
:1056A00000AFFFF7CFFF01460B4B9B6803F460434D
:1056B0004FF460427A607A6892FAA2F23A603A68ED
:1056C000B2FA82F2D2B2D340044AD35C21FA03F395
:1056D00018460837BD4680BD00380240889A000849
:1056E00080B483B000AF786039607B680F221A60A5
:1056F000114B9B6803F003027B685A600E4B9B685A
:1057000003F0F0027B689A600B4B9B6803F4E05255
:105710007B68DA60084B9B68DB0803F4E0527B6827
:105720001A61064B1B6803F00F023B681A6000BF4A
:105730000C37BD4680BC704700380240003C024038
:1057400080B485B000AF78607B6803F00703FB602E
:105750000C4BDB68BB60BA684FF6FF031340BB60BD
:10576000FB681A02BB68134343F0BF6343F4003382
:10577000BB60044ABB68D36000BF1437BD4680BC21
:10578000704700BF00ED00E080B400AF044BDB6861
:105790001B0A03F007031846BD4680BC704700BFD4
:1057A00000ED00E080B483B000AF0346FB7197F9D1
:1057B0000730002B0BDBFB7903F01F02064997F93A
:1057C00007305B09012000FA02F241F8232000BFF4
:1057D0000C37BD4680BC704700E100E080B483B068
:1057E00000AF03463960FB7197F90730002B0ADBE5
:1057F0003B68DAB20C4997F907301201D2B20B4478
:1058000083F800230AE03B68DAB20849FB7903F029
:105810000F03043B1201D2B20B441A7600BF0C37BF
:10582000BD4680BC704700BF00E100E000ED00E035
:1058300080B489B000AFF860B9607A60FB6803F0AB
:105840000703FB61FB69C3F10703042B28BF042393
:10585000BB61FB690433062B02D9FB69033B00E003
:1058600000237B614FF0FF32BB6902FA03F3DA4396
:10587000BB681A407B699A404FF0FF317B6901FA9F
:1058800003F3D9437B680B40134318462437BD46C6
:1058900080BC704780B582B000AF78607868FFF751
:1058A0004FFF00BF0837BD4680BD80B586B000AF52
:1058B0000346B9607A60FB7300237B61FFF764FFE6
:1058C00078617A68B9687869FFF7B2FF024697F99C
:1058D0000F3011461846FFF781FF00BF1837BD464D
:1058E00080BD80B582B000AF0346FB7197F90730E9
:1058F0001846FFF757FF00BF0837BD4680BD0000C0
:1059000080B487B000AF7860396000237B616FE1BD
:105910003B681A6801217B6901FA03F31340FB60BD
:10592000FB68002B00F061813B685B6803F00303B8
:10593000012B05D03B685B6803F00303022B30D1D9
:105940007B689B683B617B695B00032202FA03F37F
:10595000DB433A6913403B613B68DA687B695B0073
:1059600002FA03F33A6913433B617B683A699A6030
:105970007B685B683B6101227B6902FA03F3DB43CE
:105980003A6913403B613B685B681B0903F0010205
:105990007B6902FA03F33A6913433B617B683A6916
:1059A0005A603B685B6803F00303032B17D07B68E6
:1059B000DB683B617B695B00032202FA03F3DB4394
:1059C0003A6913403B613B689A687B695B0002FA65
:1059D00003F33A6913433B617B683A69DA603B68D9
:1059E0005B6803F00303022B23D17B69DA087B6831
:1059F000083253F822303B617B6903F007039B00B8
:105A00000F2202FA03F3DB433A6913403B613B6820
:105A10001A697B6903F007039B0002FA03F33A69F2
:105A200013433B617B69DA087B680832396943F8C4
:105A300022107B681B683B617B695B00032202FAD2
:105A400003F3DB433A6913403B613B685B6803F057
:105A500003027B695B0002FA03F33A6913433B617B
:105A60007B683A691A603B685B6803F44033002B3B
:105A700000F0BB800023BB60644B5B6C634A43F463
:105A800080435364614B5B6C03F48043BB60BB6831
:105A90005F4A7B699B08023352F823303B617B6984
:105AA00003F003039B000F2202FA03F3DB433A697E
:105AB00013403B617B68574A934231D07B68564A1A
:105AC00093422BD07B68554A934225D07B68544A39
:105AD00093421FD07B68534A934219D07B68524A45
